{
	"compilerInput": "{\"language\":\"Solidity\",\"sources\":{\"fg.sol\":{\"content\":\"// SPDX-License-Identifier: MIT\\r\\npragma solidity ^0.8.0;\\r\\n\\r\\ncontract Attendance {\\r\\n    struct Record {\\r\\n        string name;\\r\\n        string timestamp;\\r\\n        string hash;\\r\\n        address recordedBy;\\r\\n        uint256 blockNumber;\\r\\n    }\\r\\n    \\r\\n    Record[] public records;\\r\\n    address public owner;\\r\\n    \\r\\n    constructor() {\\r\\n        owner = msg.sender;\\r\\n    }\\r\\n    \\r\\n    modifier onlyOwner() {\\r\\n        require(msg.sender == owner, \\\"Only owner can call this function\\\");\\r\\n        _;\\r\\n    }\\r\\n    \\r\\n    function addRecord(\\r\\n        string memory _name,\\r\\n        string memory _timestamp,\\r\\n        string memory _hash\\r\\n    ) public onlyOwner {\\r\\n        records.push(Record({\\r\\n            name: _name,\\r\\n            timestamp: _timestamp,\\r\\n            hash: _hash,\\r\\n            recordedBy: msg.sender,\\r\\n            blockNumber: block.number\\r\\n        }));\\r\\n    }\\r\\n    \\r\\n    function getRecordCount() public view returns (uint256) {\\r\\n        return records.length;\\r\\n    }\\r\\n    \\r\\n    function getRecord(uint256 index) public view returns (\\r\\n        string memory,\\r\\n        string memory,\\r\\n        string memory,\\r\\n        address,\\r\\n        uint256\\r\\n    ) {\\r\\n        require(index < records.length, \\\"Index out of bounds\\\");\\r\\n        Record memory record = records[index];\\r\\n        return (\\r\\n            record.name,\\r\\n            record.timestamp,\\r\\n            record.hash,\\r\\n            record.recordedBy,\\r\\n            record.blockNumber\\r\\n        );\\r\\n    }\\r\\n    \\r\\n    function verifyRecord(\\r\\n        uint256 index,\\r\\n        string memory _name,\\r\\n        string memory _timestamp,\\r\\n        string memory _hash\\r\\n    ) public view returns (bool) {\\r\\n        require(index < records.length, \\\"Index out of bounds\\\");\\r\\n        Record memory record = records[index];\\r\\n        return (\\r\\n            keccak256(bytes(record.name)) == keccak256(bytes(_name)) &&\\r\\n            keccak256(bytes(record.timestamp)) == keccak256(bytes(_timestamp)) &&\\r\\n            keccak256(bytes(record.hash)) == keccak256(bytes(_hash))\\r\\n        );\\r\\n    }\\r\\n}\"}},\"settings\":{\"optimizer\":{\"enabled\":false,\"runs\":200},\"outputSelection\":{\"*\":{\"\":[\"ast\"],\"*\":[\"abi\",\"metadata\",\"devdoc\",\"userdoc\",\"storageLayout\",\"evm.legacyAssembly\",\"evm.bytecode\",\"evm.deployedBytecode\",\"evm.methodIdentifiers\",\"evm.gasEstimates\",\"evm.assembly\"]}},\"remappings\":[]}}",
	"name": "Attendance",
	"bytecode": {
		"linkReferences": {},
		"object": "608060405234801561001057600080fd5b5033600160006101000a81548173ffffffffffffffffffffffffffffffffffffffff021916908373ffffffffffffffffffffffffffffffffffffffff16021790555061120a806100616000396000f3fe608060405234801561001057600080fd5b50600436106100625760003560e01c806303e9e60914610067578063344610671461009b5780633f723c62146100cf5780638da5cb5b146100eb578063ca267f2814610109578063f6c61f4514610127575b600080fd5b610081600480360381019061007c9190610bc5565b610157565b604051610092959493929190610cdb565b60405180910390f35b6100b560048036038101906100b09190610bc5565b610419565b6040516100c6959493929190610cdb565b60405180910390f35b6100e960048036038101906100e49190610e78565b610617565b005b6100f36107be565b6040516101009190610f1f565b60405180910390f35b6101116107e4565b60405161011e9190610f3a565b60405180910390f35b610141600480360381019061013c9190610f55565b6107f0565b60405161014e919061102b565b60405180910390f35b606080606060008060008054905086106101a6576040517f08c379a000000000000000000000000000000000000000000000000000000000815260040161019d90611092565b60405180910390fd5b60008087815481106101bb576101ba6110b2565b5b90600052602060002090600502016040518060a00160405290816000820180546101e490611110565b80601f016020809104026020016040519081016040528092919081815260200182805461021090611110565b801561025d5780601f106102325761010080835404028352916020019161025d565b820191906000526020600020905b81548152906001019060200180831161024057829003601f168201915b5050505050815260200160018201805461027690611110565b80601f01602080910402602001604051908101604052809291908181526020018280546102a290611110565b80156102ef5780601f106102c4576101008083540402835291602001916102ef565b820191906000526020600020905b8154815290600101906020018083116102d257829003601f168201915b5050505050815260200160028201805461030890611110565b80601f016020809104026020016040519081016040528092919081815260200182805461033490611110565b80156103815780601f1061035657610100808354040283529160200191610381565b820191906000526020600020905b81548152906001019060200180831161036457829003601f168201915b505050505081526020016003820160009054906101000a900473ffffffffffffffffffffffffffffffffffffffff1673ffffffffffffffffffffffffffffffffffffffff1673ffffffffffffffffffffffffffffffffffffffff168152602001600482015481525050905080600001518160200151826040015183606001518460800151955095509550955095505091939590929450565b6000818154811061042957600080fd5b906000526020600020906005020160009150905080600001805461044c90611110565b80601f016020809104026020016040519081016040528092919081815260200182805461047890611110565b80156104c55780601f1061049a576101008083540402835291602001916104c5565b820191906000526020600020905b8154815290600101906020018083116104a857829003601f168201915b5050505050908060010180546104da90611110565b80601f016020809104026020016040519081016040528092919081815260200182805461050690611110565b80156105535780601f1061052857610100808354040283529160200191610553565b820191906000526020600020905b81548152906001019060200180831161053657829003601f168201915b50505050509080600201805461056890611110565b80601f016020809104026020016040519081016040528092919081815260200182805461059490611110565b80156105e15780601f106105b6576101008083540402835291602001916105e1565b820191906000526020600020905b8154815290600101906020018083116105c457829003601f168201915b5050505050908060030160009054906101000a900473ffffffffffffffffffffffffffffffffffffffff16908060040154905085565b600160009054906101000a900473ffffffffffffffffffffffffffffffffffffffff1673ffffffffffffffffffffffffffffffffffffffff163373ffffffffffffffffffffffffffffffffffffffff16146106a7576040517f08c379a000000000000000000000000000000000000000000000000000000000815260040161069e906111b4565b60405180910390fd5b60006040518060a001604052808581526020018481526020018381526020013373ffffffffffffffffffffffffffffffffffffffff168152602001438152509080600181540180825580915050600190039060005260206000209060050201600090919091909150600082015181600001908051906020019061072b929190610ad8565b506020820151816001019080519060200190610748929190610ad8565b506040820151816002019080519060200190610765929190610ad8565b5060608201518160030160006101000a81548173ffffffffffffffffffffffffffffffffffffffff021916908373ffffffffffffffffffffffffffffffffffffffff160217905550608082015181600401555050505050565b600160009054906101000a900473ffffffffffffffffffffffffffffffffffffffff1681565b60008080549050905090565b600080805490508510610838576040517f08c379a000000000000000000000000000000000000000000000000000000000815260040161082f90611092565b60405180910390fd5b600080868154811061084d5761084c6110b2565b5b90600052602060002090600502016040518060a001604052908160008201805461087690611110565b80601f01602080910402602001604051908101604052809291908181526020018280546108a290611110565b80156108ef5780601f106108c4576101008083540402835291602001916108ef565b820191906000526020600020905b8154815290600101906020018083116108d257829003601f168201915b5050505050815260200160018201805461090890611110565b80601f016020809104026020016040519081016040528092919081815260200182805461093490611110565b80156109815780601f1061095657610100808354040283529160200191610981565b820191906000526020600020905b81548152906001019060200180831161096457829003601f168201915b5050505050815260200160028201805461099a90611110565b80601f01602080910402602001604051908101604052809291908181526020018280546109c690611110565b8015610a135780601f106109e857610100808354040283529160200191610a13565b820191906000526020600020905b8154815290600101906020018083116109f657829003601f168201915b505050505081526020016003820160009054906101000a900473ffffffffffffffffffffffffffffffffffffffff1673ffffffffffffffffffffffffffffffffffffffff1673ffffffffffffffffffffffffffffffffffffffff16815260200160048201548152505090508480519060200120816000015180519060200120148015610ab057508380519060200120816020015180519060200120145b8015610acd57508280519060200120816040015180519060200120145b915050949350505050565b828054610ae490611110565b90600052602060002090601f016020900481019282610b065760008555610b4d565b82601f10610b1f57805160ff1916838001178555610b4d565b82800160010185558215610b4d579182015b82811115610b4c578251825591602001919060010190610b31565b5b509050610b5a9190610b5e565b5090565b5b80821115610b77576000816000905550600101610b5f565b5090565b6000604051905090565b600080fd5b600080fd5b6000819050919050565b610ba281610b8f565b8114610bad57600080fd5b50565b600081359050610bbf81610b99565b92915050565b600060208284031215610bdb57610bda610b85565b5b6000610be984828501610bb0565b91505092915050565b600081519050919050565b600082825260208201905092915050565b60005b83811015610c2c578082015181840152602081019050610c11565b83811115610c3b576000848401525b50505050565b6000601f19601f8301169050919050565b6000610c5d82610bf2565b610c678185610bfd565b9350610c77818560208601610c0e565b610c8081610c41565b840191505092915050565b600073ffffffffffffffffffffffffffffffffffffffff82169050919050565b6000610cb682610c8b565b9050919050565b610cc681610cab565b82525050565b610cd581610b8f565b82525050565b600060a0820190508181036000830152610cf58188610c52565b90508181036020830152610d098187610c52565b90508181036040830152610d1d8186610c52565b9050610d2c6060830185610cbd565b610d396080830184610ccc565b9695505050505050565b600080fd5b600080fd5b7f4e487b7100000000000000000000000000000000000000000000000000000000600052604160045260246000fd5b610d8582610c41565b810181811067ffffffffffffffff82111715610da457610da3610d4d565b5b80604052505050565b6000610db7610b7b565b9050610dc38282610d7c565b919050565b600067ffffffffffffffff821115610de357610de2610d4d565b5b610dec82610c41565b9050602081019050919050565b82818337600083830152505050565b6000610e1b610e1684610dc8565b610dad565b905082815260208101848484011115610e3757610e36610d48565b5b610e42848285610df9565b509392505050565b600082601f830112610e5f57610e5e610d43565b5b8135610e6f848260208601610e08565b91505092915050565b600080600060608486031215610e9157610e90610b85565b5b600084013567ffffffffffffffff811115610eaf57610eae610b8a565b5b610ebb86828701610e4a565b935050602084013567ffffffffffffffff811115610edc57610edb610b8a565b5b610ee886828701610e4a565b925050604084013567ffffffffffffffff811115610f0957610f08610b8a565b5b610f1586828701610e4a565b9150509250925092565b6000602082019050610f346000830184610cbd565b92915050565b6000602082019050610f4f6000830184610ccc565b92915050565b60008060008060808587031215610f6f57610f6e610b85565b5b6000610f7d87828801610bb0565b945050602085013567ffffffffffffffff811115610f9e57610f9d610b8a565b5b610faa87828801610e4a565b935050604085013567ffffffffffffffff811115610fcb57610fca610b8a565b5b610fd787828801610e4a565b925050606085013567ffffffffffffffff811115610ff857610ff7610b8a565b5b61100487828801610e4a565b91505092959194509250565b60008115159050919050565b61102581611010565b82525050565b6000602082019050611040600083018461101c565b92915050565b7f496e646578206f7574206f6620626f756e647300000000000000000000000000600082015250565b600061107c601383610bfd565b915061108782611046565b602082019050919050565b600060208201905081810360008301526110ab8161106f565b9050919050565b7f4e487b7100000000000000000000000000000000000000000000000000000000600052603260045260246000fd5b7f4e487b7100000000000000000000000000000000000000000000000000000000600052602260045260246000fd5b6000600282049050600182168061112857607f821691505b6020821081141561113c5761113b6110e1565b5b50919050565b7f4f6e6c79206f776e65722063616e2063616c6c20746869732066756e6374696f60008201527f6e00000000000000000000000000000000000000000000000000000000000000602082015250565b600061119e602183610bfd565b91506111a982611142565b604082019050919050565b600060208201905081810360008301526111cd81611191565b905091905056fea26469706673582212203d62538eee7c9e9479b8fad1262ab5ecdb507ee9a1ff6468abf52d5cb19379c364736f6c634300080c0033",
		"opcodes": "PUSH1 0x80 PUSH1 0x40 MSTORE CALLVALUE DUP1 ISZERO PUSH2 0x10 JUMPI PUSH1 0x0 DUP1 REVERT JUMPDEST POP CALLER PUSH1 0x1 PUSH1 0x0 PUSH2 0x100 EXP DUP2 SLOAD DUP2 PUSH20 0xFFFFFFFFFFFFFFFFFFFFFFFFFFFFFFFFFFFFFFFF MUL NOT AND SWAP1 DUP4 PUSH20 0xFFFFFFFFFFFFFFFFFFFFFFFFFFFFFFFFFFFFFFFF AND MUL OR SWAP1 SSTORE POP PUSH2 0x120A DUP1 PUSH2 0x61 PUSH1 0x0 CODECOPY PUSH1 0x0 RETURN INVALID PUSH1 0x80 PUSH1 0x40 MSTORE CALLVALUE DUP1 ISZERO PUSH2 0x10 JUMPI PUSH1 0x0 DUP1 REVERT JUMPDEST POP PUSH1 0x4 CALLDATASIZE LT PUSH2 0x62 JUMPI PUSH1 0x0 CALLDATALOAD PUSH1 0xE0 SHR DUP1 PUSH4 0x3E9E609 EQ PUSH2 0x67 JUMPI DUP1 PUSH4 0x34461067 EQ PUSH2 0x9B JUMPI DUP1 PUSH4 0x3F723C62 EQ PUSH2 0xCF JUMPI DUP1 PUSH4 0x8DA5CB5B EQ PUSH2 0xEB JUMPI DUP1 PUSH4 0xCA267F28 EQ PUSH2 0x109 JUMPI DUP1 PUSH4 0xF6C61F45 EQ PUSH2 0x127 JUMPI JUMPDEST PUSH1 0x0 DUP1 REVERT JUMPDEST PUSH2 0x81 PUSH1 0x4 DUP1 CALLDATASIZE SUB DUP2 ADD SWAP1 PUSH2 0x7C SWAP2 SWAP1 PUSH2 0xBC5 JUMP JUMPDEST PUSH2 0x157 JUMP JUMPDEST PUSH1 0x40 MLOAD PUSH2 0x92 SWAP6 SWAP5 SWAP4 SWAP3 SWAP2 SWAP1 PUSH2 0xCDB JUMP JUMPDEST PUSH1 0x40 MLOAD DUP1 SWAP2 SUB SWAP1 RETURN JUMPDEST PUSH2 0xB5 PUSH1 0x4 DUP1 CALLDATASIZE SUB DUP2 ADD SWAP1 PUSH2 0xB0 SWAP2 SWAP1 PUSH2 0xBC5 JUMP JUMPDEST PUSH2 0x419 JUMP JUMPDEST PUSH1 0x40 MLOAD PUSH2 0xC6 SWAP6 SWAP5 SWAP4 SWAP3 SWAP2 SWAP1 PUSH2 0xCDB JUMP JUMPDEST PUSH1 0x40 MLOAD DUP1 SWAP2 SUB SWAP1 RETURN JUMPDEST PUSH2 0xE9 PUSH1 0x4 DUP1 CALLDATASIZE SUB DUP2 ADD SWAP1 PUSH2 0xE4 SWAP2 SWAP1 PUSH2 0xE78 JUMP JUMPDEST PUSH2 0x617 JUMP JUMPDEST STOP JUMPDEST PUSH2 0xF3 PUSH2 0x7BE JUMP JUMPDEST PUSH1 0x40 MLOAD PUSH2 0x100 SWAP2 SWAP1 PUSH2 0xF1F JUMP JUMPDEST PUSH1 0x40 MLOAD DUP1 SWAP2 SUB SWAP1 RETURN JUMPDEST PUSH2 0x111 PUSH2 0x7E4 JUMP JUMPDEST PUSH1 0x40 MLOAD PUSH2 0x11E SWAP2 SWAP1 PUSH2 0xF3A JUMP JUMPDEST PUSH1 0x40 MLOAD DUP1 SWAP2 SUB SWAP1 RETURN JUMPDEST PUSH2 0x141 PUSH1 0x4 DUP1 CALLDATASIZE SUB DUP2 ADD SWAP1 PUSH2 0x13C SWAP2 SWAP1 PUSH2 0xF55 JUMP JUMPDEST PUSH2 0x7F0 JUMP JUMPDEST PUSH1 0x40 MLOAD PUSH2 0x14E SWAP2 SWAP1 PUSH2 0x102B JUMP JUMPDEST PUSH1 0x40 MLOAD DUP1 SWAP2 SUB SWAP1 RETURN JUMPDEST PUSH1 0x60 DUP1 PUSH1 0x60 PUSH1 0x0 DUP1 PUSH1 0x0 DUP1 SLOAD SWAP1 POP DUP7 LT PUSH2 0x1A6 JUMPI PUSH1 0x40 MLOAD PUSH32 0x8C379A000000000000000000000000000000000000000000000000000000000 DUP2 MSTORE PUSH1 0x4 ADD PUSH2 0x19D SWAP1 PUSH2 0x1092 JUMP JUMPDEST PUSH1 0x40 MLOAD DUP1 SWAP2 SUB SWAP1 REVERT JUMPDEST PUSH1 0x0 DUP1 DUP8 DUP2 SLOAD DUP2 LT PUSH2 0x1BB JUMPI PUSH2 0x1BA PUSH2 0x10B2 JUMP JUMPDEST JUMPDEST SWAP1 PUSH1 0x0 MSTORE PUSH1 0x20 PUSH1 0x0 KECCAK256 SWAP1 PUSH1 0x5 MUL ADD PUSH1 0x40 MLOAD DUP1 PUSH1 0xA0 ADD PUSH1 0x40 MSTORE SWAP1 DUP2 PUSH1 0x0 DUP3 ADD DUP1 SLOAD PUSH2 0x1E4 SWAP1 PUSH2 0x1110 JUMP JUMPDEST DUP1 PUSH1 0x1F ADD PUSH1 0x20 DUP1 SWAP2 DIV MUL PUSH1 0x20 ADD PUSH1 0x40 MLOAD SWAP1 DUP2 ADD PUSH1 0x40 MSTORE DUP1 SWAP3 SWAP2 SWAP1 DUP2 DUP2 MSTORE PUSH1 0x20 ADD DUP3 DUP1 SLOAD PUSH2 0x210 SWAP1 PUSH2 0x1110 JUMP JUMPDEST DUP1 ISZERO PUSH2 0x25D JUMPI DUP1 PUSH1 0x1F LT PUSH2 0x232 JUMPI PUSH2 0x100 DUP1 DUP4 SLOAD DIV MUL DUP4 MSTORE SWAP2 PUSH1 0x20 ADD SWAP2 PUSH2 0x25D JUMP JUMPDEST DUP3 ADD SWAP2 SWAP1 PUSH1 0x0 MSTORE PUSH1 0x20 PUSH1 0x0 KECCAK256 SWAP1 JUMPDEST DUP2 SLOAD DUP2 MSTORE SWAP1 PUSH1 0x1 ADD SWAP1 PUSH1 0x20 ADD DUP1 DUP4 GT PUSH2 0x240 JUMPI DUP3 SWAP1 SUB PUSH1 0x1F AND DUP3 ADD SWAP2 JUMPDEST POP POP POP POP POP DUP2 MSTORE PUSH1 0x20 ADD PUSH1 0x1 DUP3 ADD DUP1 SLOAD PUSH2 0x276 SWAP1 PUSH2 0x1110 JUMP JUMPDEST DUP1 PUSH1 0x1F ADD PUSH1 0x20 DUP1 SWAP2 DIV MUL PUSH1 0x20 ADD PUSH1 0x40 MLOAD SWAP1 DUP2 ADD PUSH1 0x40 MSTORE DUP1 SWAP3 SWAP2 SWAP1 DUP2 DUP2 MSTORE PUSH1 0x20 ADD DUP3 DUP1 SLOAD PUSH2 0x2A2 SWAP1 PUSH2 0x1110 JUMP JUMPDEST DUP1 ISZERO PUSH2 0x2EF JUMPI DUP1 PUSH1 0x1F LT PUSH2 0x2C4 JUMPI PUSH2 0x100 DUP1 DUP4 SLOAD DIV MUL DUP4 MSTORE SWAP2 PUSH1 0x20 ADD SWAP2 PUSH2 0x2EF JUMP JUMPDEST DUP3 ADD SWAP2 SWAP1 PUSH1 0x0 MSTORE PUSH1 0x20 PUSH1 0x0 KECCAK256 SWAP1 JUMPDEST DUP2 SLOAD DUP2 MSTORE SWAP1 PUSH1 0x1 ADD SWAP1 PUSH1 0x20 ADD DUP1 DUP4 GT PUSH2 0x2D2 JUMPI DUP3 SWAP1 SUB PUSH1 0x1F AND DUP3 ADD SWAP2 JUMPDEST POP POP POP POP POP DUP2 MSTORE PUSH1 0x20 ADD PUSH1 0x2 DUP3 ADD DUP1 SLOAD PUSH2 0x308 SWAP1 PUSH2 0x1110 JUMP JUMPDEST DUP1 PUSH1 0x1F ADD PUSH1 0x20 DUP1 SWAP2 DIV MUL PUSH1 0x20 ADD PUSH1 0x40 MLOAD SWAP1 DUP2 ADD PUSH1 0x40 MSTORE DUP1 SWAP3 SWAP2 SWAP1 DUP2 DUP2 MSTORE PUSH1 0x20 ADD DUP3 DUP1 SLOAD PUSH2 0x334 SWAP1 PUSH2 0x1110 JUMP JUMPDEST DUP1 ISZERO PUSH2 0x381 JUMPI DUP1 PUSH1 0x1F LT PUSH2 0x356 JUMPI PUSH2 0x100 DUP1 DUP4 SLOAD DIV MUL DUP4 MSTORE SWAP2 PUSH1 0x20 ADD SWAP2 PUSH2 0x381 JUMP JUMPDEST DUP3 ADD SWAP2 SWAP1 PUSH1 0x0 MSTORE PUSH1 0x20 PUSH1 0x0 KECCAK256 SWAP1 JUMPDEST DUP2 SLOAD DUP2 MSTORE SWAP1 PUSH1 0x1 ADD SWAP1 PUSH1 0x20 ADD DUP1 DUP4 GT PUSH2 0x364 JUMPI DUP3 SWAP1 SUB PUSH1 0x1F AND DUP3 ADD SWAP2 JUMPDEST POP POP POP POP POP DUP2 MSTORE PUSH1 0x20 ADD PUSH1 0x3 DUP3 ADD PUSH1 0x0 SWAP1 SLOAD SWAP1 PUSH2 0x100 EXP SWAP1 DIV PUSH20 0xFFFFFFFFFFFFFFFFFFFFFFFFFFFFFFFFFFFFFFFF AND PUSH20 0xFFFFFFFFFFFFFFFFFFFFFFFFFFFFFFFFFFFFFFFF AND PUSH20 0xFFFFFFFFFFFFFFFFFFFFFFFFFFFFFFFFFFFFFFFF AND DUP2 MSTORE PUSH1 0x20 ADD PUSH1 0x4 DUP3 ADD SLOAD DUP2 MSTORE POP POP SWAP1 POP DUP1 PUSH1 0x0 ADD MLOAD DUP2 PUSH1 0x20 ADD MLOAD DUP3 PUSH1 0x40 ADD MLOAD DUP4 PUSH1 0x60 ADD MLOAD DUP5 PUSH1 0x80 ADD MLOAD SWAP6 POP SWAP6 POP SWAP6 POP SWAP6 POP SWAP6 POP POP SWAP2 SWAP4 SWAP6 SWAP1 SWAP3 SWAP5 POP JUMP JUMPDEST PUSH1 0x0 DUP2 DUP2 SLOAD DUP2 LT PUSH2 0x429 JUMPI PUSH1 0x0 DUP1 REVERT JUMPDEST SWAP1 PUSH1 0x0 MSTORE PUSH1 0x20 PUSH1 0x0 KECCAK256 SWAP1 PUSH1 0x5 MUL ADD PUSH1 0x0 SWAP2 POP SWAP1 POP DUP1 PUSH1 0x0 ADD DUP1 SLOAD PUSH2 0x44C SWAP1 PUSH2 0x1110 JUMP JUMPDEST DUP1 PUSH1 0x1F ADD PUSH1 0x20 DUP1 SWAP2 DIV MUL PUSH1 0x20 ADD PUSH1 0x40 MLOAD SWAP1 DUP2 ADD PUSH1 0x40 MSTORE DUP1 SWAP3 SWAP2 SWAP1 DUP2 DUP2 MSTORE PUSH1 0x20 ADD DUP3 DUP1 SLOAD PUSH2 0x478 SWAP1 PUSH2 0x1110 JUMP JUMPDEST DUP1 ISZERO PUSH2 0x4C5 JUMPI DUP1 PUSH1 0x1F LT PUSH2 0x49A JUMPI PUSH2 0x100 DUP1 DUP4 SLOAD DIV MUL DUP4 MSTORE SWAP2 PUSH1 0x20 ADD SWAP2 PUSH2 0x4C5 JUMP JUMPDEST DUP3 ADD SWAP2 SWAP1 PUSH1 0x0 MSTORE PUSH1 0x20 PUSH1 0x0 KECCAK256 SWAP1 JUMPDEST DUP2 SLOAD DUP2 MSTORE SWAP1 PUSH1 0x1 ADD SWAP1 PUSH1 0x20 ADD DUP1 DUP4 GT PUSH2 0x4A8 JUMPI DUP3 SWAP1 SUB PUSH1 0x1F AND DUP3 ADD SWAP2 JUMPDEST POP POP POP POP POP SWAP1 DUP1 PUSH1 0x1 ADD DUP1 SLOAD PUSH2 0x4DA SWAP1 PUSH2 0x1110 JUMP JUMPDEST DUP1 PUSH1 0x1F ADD PUSH1 0x20 DUP1 SWAP2 DIV MUL PUSH1 0x20 ADD PUSH1 0x40 MLOAD SWAP1 DUP2 ADD PUSH1 0x40 MSTORE DUP1 SWAP3 SWAP2 SWAP1 DUP2 DUP2 MSTORE PUSH1 0x20 ADD DUP3 DUP1 SLOAD PUSH2 0x506 SWAP1 PUSH2 0x1110 JUMP JUMPDEST DUP1 ISZERO PUSH2 0x553 JUMPI DUP1 PUSH1 0x1F LT PUSH2 0x528 JUMPI PUSH2 0x100 DUP1 DUP4 SLOAD DIV MUL DUP4 MSTORE SWAP2 PUSH1 0x20 ADD SWAP2 PUSH2 0x553 JUMP JUMPDEST DUP3 ADD SWAP2 SWAP1 PUSH1 0x0 MSTORE PUSH1 0x20 PUSH1 0x0 KECCAK256 SWAP1 JUMPDEST DUP2 SLOAD DUP2 MSTORE SWAP1 PUSH1 0x1 ADD SWAP1 PUSH1 0x20 ADD DUP1 DUP4 GT PUSH2 0x536 JUMPI DUP3 SWAP1 SUB PUSH1 0x1F AND DUP3 ADD SWAP2 JUMPDEST POP POP POP POP POP SWAP1 DUP1 PUSH1 0x2 ADD DUP1 SLOAD PUSH2 0x568 SWAP1 PUSH2 0x1110 JUMP JUMPDEST DUP1 PUSH1 0x1F ADD PUSH1 0x20 DUP1 SWAP2 DIV MUL PUSH1 0x20 ADD PUSH1 0x40 MLOAD SWAP1 DUP2 ADD PUSH1 0x40 MSTORE DUP1 SWAP3 SWAP2 SWAP1 DUP2 DUP2 MSTORE PUSH1 0x20 ADD DUP3 DUP1 SLOAD PUSH2 0x594 SWAP1 PUSH2 0x1110 JUMP JUMPDEST DUP1 ISZERO PUSH2 0x5E1 JUMPI DUP1 PUSH1 0x1F LT PUSH2 0x5B6 JUMPI PUSH2 0x100 DUP1 DUP4 SLOAD DIV MUL DUP4 MSTORE SWAP2 PUSH1 0x20 ADD SWAP2 PUSH2 0x5E1 JUMP JUMPDEST DUP3 ADD SWAP2 SWAP1 PUSH1 0x0 MSTORE PUSH1 0x20 PUSH1 0x0 KECCAK256 SWAP1 JUMPDEST DUP2 SLOAD DUP2 MSTORE SWAP1 PUSH1 0x1 ADD SWAP1 PUSH1 0x20 ADD DUP1 DUP4 GT PUSH2 0x5C4 JUMPI DUP3 SWAP1 SUB PUSH1 0x1F AND DUP3 ADD SWAP2 JUMPDEST POP POP POP POP POP SWAP1 DUP1 PUSH1 0x3 ADD PUSH1 0x0 SWAP1 SLOAD SWAP1 PUSH2 0x100 EXP SWAP1 DIV PUSH20 0xFFFFFFFFFFFFFFFFFFFFFFFFFFFFFFFFFFFFFFFF AND SWAP1 DUP1 PUSH1 0x4 ADD SLOAD SWAP1 POP DUP6 JUMP JUMPDEST PUSH1 0x1 PUSH1 0x0 SWAP1 SLOAD SWAP1 PUSH2 0x100 EXP SWAP1 DIV PUSH20 0xFFFFFFFFFFFFFFFFFFFFFFFFFFFFFFFFFFFFFFFF AND PUSH20 0xFFFFFFFFFFFFFFFFFFFFFFFFFFFFFFFFFFFFFFFF AND CALLER PUSH20 0xFFFFFFFFFFFFFFFFFFFFFFFFFFFFFFFFFFFFFFFF AND EQ PUSH2 0x6A7 JUMPI PUSH1 0x40 MLOAD PUSH32 0x8C379A000000000000000000000000000000000000000000000000000000000 DUP2 MSTORE PUSH1 0x4 ADD PUSH2 0x69E SWAP1 PUSH2 0x11B4 JUMP JUMPDEST PUSH1 0x40 MLOAD DUP1 SWAP2 SUB SWAP1 REVERT JUMPDEST PUSH1 0x0 PUSH1 0x40 MLOAD DUP1 PUSH1 0xA0 ADD PUSH1 0x40 MSTORE DUP1 DUP6 DUP2 MSTORE PUSH1 0x20 ADD DUP5 DUP2 MSTORE PUSH1 0x20 ADD DUP4 DUP2 MSTORE PUSH1 0x20 ADD CALLER PUSH20 0xFFFFFFFFFFFFFFFFFFFFFFFFFFFFFFFFFFFFFFFF AND DUP2 MSTORE PUSH1 0x20 ADD NUMBER DUP2 MSTORE POP SWAP1 DUP1 PUSH1 0x1 DUP2 SLOAD ADD DUP1 DUP3 SSTORE DUP1 SWAP2 POP POP PUSH1 0x1 SWAP1 SUB SWAP1 PUSH1 0x0 MSTORE PUSH1 0x20 PUSH1 0x0 KECCAK256 SWAP1 PUSH1 0x5 MUL ADD PUSH1 0x0 SWAP1 SWAP2 SWAP1 SWAP2 SWAP1 SWAP2 POP PUSH1 0x0 DUP3 ADD MLOAD DUP2 PUSH1 0x0 ADD SWAP1 DUP1 MLOAD SWAP1 PUSH1 0x20 ADD SWAP1 PUSH2 0x72B SWAP3 SWAP2 SWAP1 PUSH2 0xAD8 JUMP JUMPDEST POP PUSH1 0x20 DUP3 ADD MLOAD DUP2 PUSH1 0x1 ADD SWAP1 DUP1 MLOAD SWAP1 PUSH1 0x20 ADD SWAP1 PUSH2 0x748 SWAP3 SWAP2 SWAP1 PUSH2 0xAD8 JUMP JUMPDEST POP PUSH1 0x40 DUP3 ADD MLOAD DUP2 PUSH1 0x2 ADD SWAP1 DUP1 MLOAD SWAP1 PUSH1 0x20 ADD SWAP1 PUSH2 0x765 SWAP3 SWAP2 SWAP1 PUSH2 0xAD8 JUMP JUMPDEST POP PUSH1 0x60 DUP3 ADD MLOAD DUP2 PUSH1 0x3 ADD PUSH1 0x0 PUSH2 0x100 EXP DUP2 SLOAD DUP2 PUSH20 0xFFFFFFFFFFFFFFFFFFFFFFFFFFFFFFFFFFFFFFFF MUL NOT AND SWAP1 DUP4 PUSH20 0xFFFFFFFFFFFFFFFFFFFFFFFFFFFFFFFFFFFFFFFF AND MUL OR SWAP1 SSTORE POP PUSH1 0x80 DUP3 ADD MLOAD DUP2 PUSH1 0x4 ADD SSTORE POP POP POP POP POP JUMP JUMPDEST PUSH1 0x1 PUSH1 0x0 SWAP1 SLOAD SWAP1 PUSH2 0x100 EXP SWAP1 DIV PUSH20 0xFFFFFFFFFFFFFFFFFFFFFFFFFFFFFFFFFFFFFFFF AND DUP2 JUMP JUMPDEST PUSH1 0x0 DUP1 DUP1 SLOAD SWAP1 POP SWAP1 POP SWAP1 JUMP JUMPDEST PUSH1 0x0 DUP1 DUP1 SLOAD SWAP1 POP DUP6 LT PUSH2 0x838 JUMPI PUSH1 0x40 MLOAD PUSH32 0x8C379A000000000000000000000000000000000000000000000000000000000 DUP2 MSTORE PUSH1 0x4 ADD PUSH2 0x82F SWAP1 PUSH2 0x1092 JUMP JUMPDEST PUSH1 0x40 MLOAD DUP1 SWAP2 SUB SWAP1 REVERT JUMPDEST PUSH1 0x0 DUP1 DUP7 DUP2 SLOAD DUP2 LT PUSH2 0x84D JUMPI PUSH2 0x84C PUSH2 0x10B2 JUMP JUMPDEST JUMPDEST SWAP1 PUSH1 0x0 MSTORE PUSH1 0x20 PUSH1 0x0 KECCAK256 SWAP1 PUSH1 0x5 MUL ADD PUSH1 0x40 MLOAD DUP1 PUSH1 0xA0 ADD PUSH1 0x40 MSTORE SWAP1 DUP2 PUSH1 0x0 DUP3 ADD DUP1 SLOAD PUSH2 0x876 SWAP1 PUSH2 0x1110 JUMP JUMPDEST DUP1 PUSH1 0x1F ADD PUSH1 0x20 DUP1 SWAP2 DIV MUL PUSH1 0x20 ADD PUSH1 0x40 MLOAD SWAP1 DUP2 ADD PUSH1 0x40 MSTORE DUP1 SWAP3 SWAP2 SWAP1 DUP2 DUP2 MSTORE PUSH1 0x20 ADD DUP3 DUP1 SLOAD PUSH2 0x8A2 SWAP1 PUSH2 0x1110 JUMP JUMPDEST DUP1 ISZERO PUSH2 0x8EF JUMPI DUP1 PUSH1 0x1F LT PUSH2 0x8C4 JUMPI PUSH2 0x100 DUP1 DUP4 SLOAD DIV MUL DUP4 MSTORE SWAP2 PUSH1 0x20 ADD SWAP2 PUSH2 0x8EF JUMP JUMPDEST DUP3 ADD SWAP2 SWAP1 PUSH1 0x0 MSTORE PUSH1 0x20 PUSH1 0x0 KECCAK256 SWAP1 JUMPDEST DUP2 SLOAD DUP2 MSTORE SWAP1 PUSH1 0x1 ADD SWAP1 PUSH1 0x20 ADD DUP1 DUP4 GT PUSH2 0x8D2 JUMPI DUP3 SWAP1 SUB PUSH1 0x1F AND DUP3 ADD SWAP2 JUMPDEST POP POP POP POP POP DUP2 MSTORE PUSH1 0x20 ADD PUSH1 0x1 DUP3 ADD DUP1 SLOAD PUSH2 0x908 SWAP1 PUSH2 0x1110 JUMP JUMPDEST DUP1 PUSH1 0x1F ADD PUSH1 0x20 DUP1 SWAP2 DIV MUL PUSH1 0x20 ADD PUSH1 0x40 MLOAD SWAP1 DUP2 ADD PUSH1 0x40 MSTORE DUP1 SWAP3 SWAP2 SWAP1 DUP2 DUP2 MSTORE PUSH1 0x20 ADD DUP3 DUP1 SLOAD PUSH2 0x934 SWAP1 PUSH2 0x1110 JUMP JUMPDEST DUP1 ISZERO PUSH2 0x981 JUMPI DUP1 PUSH1 0x1F LT PUSH2 0x956 JUMPI PUSH2 0x100 DUP1 DUP4 SLOAD DIV MUL DUP4 MSTORE SWAP2 PUSH1 0x20 ADD SWAP2 PUSH2 0x981 JUMP JUMPDEST DUP3 ADD SWAP2 SWAP1 PUSH1 0x0 MSTORE PUSH1 0x20 PUSH1 0x0 KECCAK256 SWAP1 JUMPDEST DUP2 SLOAD DUP2 MSTORE SWAP1 PUSH1 0x1 ADD SWAP1 PUSH1 0x20 ADD DUP1 DUP4 GT PUSH2 0x964 JUMPI DUP3 SWAP1 SUB PUSH1 0x1F AND DUP3 ADD SWAP2 JUMPDEST POP POP POP POP POP DUP2 MSTORE PUSH1 0x20 ADD PUSH1 0x2 DUP3 ADD DUP1 SLOAD PUSH2 0x99A SWAP1 PUSH2 0x1110 JUMP JUMPDEST DUP1 PUSH1 0x1F ADD PUSH1 0x20 DUP1 SWAP2 DIV MUL PUSH1 0x20 ADD PUSH1 0x40 MLOAD SWAP1 DUP2 ADD PUSH1 0x40 MSTORE DUP1 SWAP3 SWAP2 SWAP1 DUP2 DUP2 MSTORE PUSH1 0x20 ADD DUP3 DUP1 SLOAD PUSH2 0x9C6 SWAP1 PUSH2 0x1110 JUMP JUMPDEST DUP1 ISZERO PUSH2 0xA13 JUMPI DUP1 PUSH1 0x1F LT PUSH2 0x9E8 JUMPI PUSH2 0x100 DUP1 DUP4 SLOAD DIV MUL DUP4 MSTORE SWAP2 PUSH1 0x20 ADD SWAP2 PUSH2 0xA13 JUMP JUMPDEST DUP3 ADD SWAP2 SWAP1 PUSH1 0x0 MSTORE PUSH1 0x20 PUSH1 0x0 KECCAK256 SWAP1 JUMPDEST DUP2 SLOAD DUP2 MSTORE SWAP1 PUSH1 0x1 ADD SWAP1 PUSH1 0x20 ADD DUP1 DUP4 GT PUSH2 0x9F6 JUMPI DUP3 SWAP1 SUB PUSH1 0x1F AND DUP3 ADD SWAP2 JUMPDEST POP POP POP POP POP DUP2 MSTORE PUSH1 0x20 ADD PUSH1 0x3 DUP3 ADD PUSH1 0x0 SWAP1 SLOAD SWAP1 PUSH2 0x100 EXP SWAP1 DIV PUSH20 0xFFFFFFFFFFFFFFFFFFFFFFFFFFFFFFFFFFFFFFFF AND PUSH20 0xFFFFFFFFFFFFFFFFFFFFFFFFFFFFFFFFFFFFFFFF AND PUSH20 0xFFFFFFFFFFFFFFFFFFFFFFFFFFFFFFFFFFFFFFFF AND DUP2 MSTORE PUSH1 0x20 ADD PUSH1 0x4 DUP3 ADD SLOAD DUP2 MSTORE POP POP SWAP1 POP DUP5 DUP1 MLOAD SWAP1 PUSH1 0x20 ADD KECCAK256 DUP2 PUSH1 0x0 ADD MLOAD DUP1 MLOAD SWAP1 PUSH1 0x20 ADD KECCAK256 EQ DUP1 ISZERO PUSH2 0xAB0 JUMPI POP DUP4 DUP1 MLOAD SWAP1 PUSH1 0x20 ADD KECCAK256 DUP2 PUSH1 0x20 ADD MLOAD DUP1 MLOAD SWAP1 PUSH1 0x20 ADD KECCAK256 EQ JUMPDEST DUP1 ISZERO PUSH2 0xACD JUMPI POP DUP3 DUP1 MLOAD SWAP1 PUSH1 0x20 ADD KECCAK256 DUP2 PUSH1 0x40 ADD MLOAD DUP1 MLOAD SWAP1 PUSH1 0x20 ADD KECCAK256 EQ JUMPDEST SWAP2 POP POP SWAP5 SWAP4 POP POP POP POP JUMP JUMPDEST DUP3 DUP1 SLOAD PUSH2 0xAE4 SWAP1 PUSH2 0x1110 JUMP JUMPDEST SWAP1 PUSH1 0x0 MSTORE PUSH1 0x20 PUSH1 0x0 KECCAK256 SWAP1 PUSH1 0x1F ADD PUSH1 0x20 SWAP1 DIV DUP2 ADD SWAP3 DUP3 PUSH2 0xB06 JUMPI PUSH1 0x0 DUP6 SSTORE PUSH2 0xB4D JUMP JUMPDEST DUP3 PUSH1 0x1F LT PUSH2 0xB1F JUMPI DUP1 MLOAD PUSH1 0xFF NOT AND DUP4 DUP1 ADD OR DUP6 SSTORE PUSH2 0xB4D JUMP JUMPDEST DUP3 DUP1 ADD PUSH1 0x1 ADD DUP6 SSTORE DUP3 ISZERO PUSH2 0xB4D JUMPI SWAP2 DUP3 ADD JUMPDEST DUP3 DUP2 GT ISZERO PUSH2 0xB4C JUMPI DUP3 MLOAD DUP3 SSTORE SWAP2 PUSH1 0x20 ADD SWAP2 SWAP1 PUSH1 0x1 ADD SWAP1 PUSH2 0xB31 JUMP JUMPDEST JUMPDEST POP SWAP1 POP PUSH2 0xB5A SWAP2 SWAP1 PUSH2 0xB5E JUMP JUMPDEST POP SWAP1 JUMP JUMPDEST JUMPDEST DUP1 DUP3 GT ISZERO PUSH2 0xB77 JUMPI PUSH1 0x0 DUP2 PUSH1 0x0 SWAP1 SSTORE POP PUSH1 0x1 ADD PUSH2 0xB5F JUMP JUMPDEST POP SWAP1 JUMP JUMPDEST PUSH1 0x0 PUSH1 0x40 MLOAD SWAP1 POP SWAP1 JUMP JUMPDEST PUSH1 0x0 DUP1 REVERT JUMPDEST PUSH1 0x0 DUP1 REVERT JUMPDEST PUSH1 0x0 DUP2 SWAP1 POP SWAP2 SWAP1 POP JUMP JUMPDEST PUSH2 0xBA2 DUP2 PUSH2 0xB8F JUMP JUMPDEST DUP2 EQ PUSH2 0xBAD JUMPI PUSH1 0x0 DUP1 REVERT JUMPDEST POP JUMP JUMPDEST PUSH1 0x0 DUP2 CALLDATALOAD SWAP1 POP PUSH2 0xBBF DUP2 PUSH2 0xB99 JUMP JUMPDEST SWAP3 SWAP2 POP POP JUMP JUMPDEST PUSH1 0x0 PUSH1 0x20 DUP3 DUP5 SUB SLT ISZERO PUSH2 0xBDB JUMPI PUSH2 0xBDA PUSH2 0xB85 JUMP JUMPDEST JUMPDEST PUSH1 0x0 PUSH2 0xBE9 DUP5 DUP3 DUP6 ADD PUSH2 0xBB0 JUMP JUMPDEST SWAP2 POP POP SWAP3 SWAP2 POP POP JUMP JUMPDEST PUSH1 0x0 DUP2 MLOAD SWAP1 POP SWAP2 SWAP1 POP JUMP JUMPDEST PUSH1 0x0 DUP3 DUP3 MSTORE PUSH1 0x20 DUP3 ADD SWAP1 POP SWAP3 SWAP2 POP POP JUMP JUMPDEST PUSH1 0x0 JUMPDEST DUP4 DUP2 LT ISZERO PUSH2 0xC2C JUMPI DUP1 DUP3 ADD MLOAD DUP2 DUP5 ADD MSTORE PUSH1 0x20 DUP2 ADD SWAP1 POP PUSH2 0xC11 JUMP JUMPDEST DUP4 DUP2 GT ISZERO PUSH2 0xC3B JUMPI PUSH1 0x0 DUP5 DUP5 ADD MSTORE JUMPDEST POP POP POP POP JUMP JUMPDEST PUSH1 0x0 PUSH1 0x1F NOT PUSH1 0x1F DUP4 ADD AND SWAP1 POP SWAP2 SWAP1 POP JUMP JUMPDEST PUSH1 0x0 PUSH2 0xC5D DUP3 PUSH2 0xBF2 JUMP JUMPDEST PUSH2 0xC67 DUP2 DUP6 PUSH2 0xBFD JUMP JUMPDEST SWAP4 POP PUSH2 0xC77 DUP2 DUP6 PUSH1 0x20 DUP7 ADD PUSH2 0xC0E JUMP JUMPDEST PUSH2 0xC80 DUP2 PUSH2 0xC41 JUMP JUMPDEST DUP5 ADD SWAP2 POP POP SWAP3 SWAP2 POP POP JUMP JUMPDEST PUSH1 0x0 PUSH20 0xFFFFFFFFFFFFFFFFFFFFFFFFFFFFFFFFFFFFFFFF DUP3 AND SWAP1 POP SWAP2 SWAP1 POP JUMP JUMPDEST PUSH1 0x0 PUSH2 0xCB6 DUP3 PUSH2 0xC8B JUMP JUMPDEST SWAP1 POP SWAP2 SWAP1 POP JUMP JUMPDEST PUSH2 0xCC6 DUP2 PUSH2 0xCAB JUMP JUMPDEST DUP3 MSTORE POP POP JUMP JUMPDEST PUSH2 0xCD5 DUP2 PUSH2 0xB8F JUMP JUMPDEST DUP3 MSTORE POP POP JUMP JUMPDEST PUSH1 0x0 PUSH1 0xA0 DUP3 ADD SWAP1 POP DUP2 DUP2 SUB PUSH1 0x0 DUP4 ADD MSTORE PUSH2 0xCF5 DUP2 DUP9 PUSH2 0xC52 JUMP JUMPDEST SWAP1 POP DUP2 DUP2 SUB PUSH1 0x20 DUP4 ADD MSTORE PUSH2 0xD09 DUP2 DUP8 PUSH2 0xC52 JUMP JUMPDEST SWAP1 POP DUP2 DUP2 SUB PUSH1 0x40 DUP4 ADD MSTORE PUSH2 0xD1D DUP2 DUP7 PUSH2 0xC52 JUMP JUMPDEST SWAP1 POP PUSH2 0xD2C PUSH1 0x60 DUP4 ADD DUP6 PUSH2 0xCBD JUMP JUMPDEST PUSH2 0xD39 PUSH1 0x80 DUP4 ADD DUP5 PUSH2 0xCCC JUMP JUMPDEST SWAP7 SWAP6 POP POP POP POP POP POP JUMP JUMPDEST PUSH1 0x0 DUP1 REVERT JUMPDEST PUSH1 0x0 DUP1 REVERT JUMPDEST PUSH32 0x4E487B7100000000000000000000000000000000000000000000000000000000 PUSH1 0x0 MSTORE PUSH1 0x41 PUSH1 0x4 MSTORE PUSH1 0x24 PUSH1 0x0 REVERT JUMPDEST PUSH2 0xD85 DUP3 PUSH2 0xC41 JUMP JUMPDEST DUP2 ADD DUP2 DUP2 LT PUSH8 0xFFFFFFFFFFFFFFFF DUP3 GT OR ISZERO PUSH2 0xDA4 JUMPI PUSH2 0xDA3 PUSH2 0xD4D JUMP JUMPDEST JUMPDEST DUP1 PUSH1 0x40 MSTORE POP POP POP JUMP JUMPDEST PUSH1 0x0 PUSH2 0xDB7 PUSH2 0xB7B JUMP JUMPDEST SWAP1 POP PUSH2 0xDC3 DUP3 DUP3 PUSH2 0xD7C JUMP JUMPDEST SWAP2 SWAP1 POP JUMP JUMPDEST PUSH1 0x0 PUSH8 0xFFFFFFFFFFFFFFFF DUP3 GT ISZERO PUSH2 0xDE3 JUMPI PUSH2 0xDE2 PUSH2 0xD4D JUMP JUMPDEST JUMPDEST PUSH2 0xDEC DUP3 PUSH2 0xC41 JUMP JUMPDEST SWAP1 POP PUSH1 0x20 DUP2 ADD SWAP1 POP SWAP2 SWAP1 POP JUMP JUMPDEST DUP3 DUP2 DUP4 CALLDATACOPY PUSH1 0x0 DUP4 DUP4 ADD MSTORE POP POP POP JUMP JUMPDEST PUSH1 0x0 PUSH2 0xE1B PUSH2 0xE16 DUP5 PUSH2 0xDC8 JUMP JUMPDEST PUSH2 0xDAD JUMP JUMPDEST SWAP1 POP DUP3 DUP2 MSTORE PUSH1 0x20 DUP2 ADD DUP5 DUP5 DUP5 ADD GT ISZERO PUSH2 0xE37 JUMPI PUSH2 0xE36 PUSH2 0xD48 JUMP JUMPDEST JUMPDEST PUSH2 0xE42 DUP5 DUP3 DUP6 PUSH2 0xDF9 JUMP JUMPDEST POP SWAP4 SWAP3 POP POP POP JUMP JUMPDEST PUSH1 0x0 DUP3 PUSH1 0x1F DUP4 ADD SLT PUSH2 0xE5F JUMPI PUSH2 0xE5E PUSH2 0xD43 JUMP JUMPDEST JUMPDEST DUP2 CALLDATALOAD PUSH2 0xE6F DUP5 DUP3 PUSH1 0x20 DUP7 ADD PUSH2 0xE08 JUMP JUMPDEST SWAP2 POP POP SWAP3 SWAP2 POP POP JUMP JUMPDEST PUSH1 0x0 DUP1 PUSH1 0x0 PUSH1 0x60 DUP5 DUP7 SUB SLT ISZERO PUSH2 0xE91 JUMPI PUSH2 0xE90 PUSH2 0xB85 JUMP JUMPDEST JUMPDEST PUSH1 0x0 DUP5 ADD CALLDATALOAD PUSH8 0xFFFFFFFFFFFFFFFF DUP2 GT ISZERO PUSH2 0xEAF JUMPI PUSH2 0xEAE PUSH2 0xB8A JUMP JUMPDEST JUMPDEST PUSH2 0xEBB DUP7 DUP3 DUP8 ADD PUSH2 0xE4A JUMP JUMPDEST SWAP4 POP POP PUSH1 0x20 DUP5 ADD CALLDATALOAD PUSH8 0xFFFFFFFFFFFFFFFF DUP2 GT ISZERO PUSH2 0xEDC JUMPI PUSH2 0xEDB PUSH2 0xB8A JUMP JUMPDEST JUMPDEST PUSH2 0xEE8 DUP7 DUP3 DUP8 ADD PUSH2 0xE4A JUMP JUMPDEST SWAP3 POP POP PUSH1 0x40 DUP5 ADD CALLDATALOAD PUSH8 0xFFFFFFFFFFFFFFFF DUP2 GT ISZERO PUSH2 0xF09 JUMPI PUSH2 0xF08 PUSH2 0xB8A JUMP JUMPDEST JUMPDEST PUSH2 0xF15 DUP7 DUP3 DUP8 ADD PUSH2 0xE4A JUMP JUMPDEST SWAP2 POP POP SWAP3 POP SWAP3 POP SWAP3 JUMP JUMPDEST PUSH1 0x0 PUSH1 0x20 DUP3 ADD SWAP1 POP PUSH2 0xF34 PUSH1 0x0 DUP4 ADD DUP5 PUSH2 0xCBD JUMP JUMPDEST SWAP3 SWAP2 POP POP JUMP JUMPDEST PUSH1 0x0 PUSH1 0x20 DUP3 ADD SWAP1 POP PUSH2 0xF4F PUSH1 0x0 DUP4 ADD DUP5 PUSH2 0xCCC JUMP JUMPDEST SWAP3 SWAP2 POP POP JUMP JUMPDEST PUSH1 0x0 DUP1 PUSH1 0x0 DUP1 PUSH1 0x80 DUP6 DUP8 SUB SLT ISZERO PUSH2 0xF6F JUMPI PUSH2 0xF6E PUSH2 0xB85 JUMP JUMPDEST JUMPDEST PUSH1 0x0 PUSH2 0xF7D DUP8 DUP3 DUP9 ADD PUSH2 0xBB0 JUMP JUMPDEST SWAP5 POP POP PUSH1 0x20 DUP6 ADD CALLDATALOAD PUSH8 0xFFFFFFFFFFFFFFFF DUP2 GT ISZERO PUSH2 0xF9E JUMPI PUSH2 0xF9D PUSH2 0xB8A JUMP JUMPDEST JUMPDEST PUSH2 0xFAA DUP8 DUP3 DUP9 ADD PUSH2 0xE4A JUMP JUMPDEST SWAP4 POP POP PUSH1 0x40 DUP6 ADD CALLDATALOAD PUSH8 0xFFFFFFFFFFFFFFFF DUP2 GT ISZERO PUSH2 0xFCB JUMPI PUSH2 0xFCA PUSH2 0xB8A JUMP JUMPDEST JUMPDEST PUSH2 0xFD7 DUP8 DUP3 DUP9 ADD PUSH2 0xE4A JUMP JUMPDEST SWAP3 POP POP PUSH1 0x60 DUP6 ADD CALLDATALOAD PUSH8 0xFFFFFFFFFFFFFFFF DUP2 GT ISZERO PUSH2 0xFF8 JUMPI PUSH2 0xFF7 PUSH2 0xB8A JUMP JUMPDEST JUMPDEST PUSH2 0x1004 DUP8 DUP3 DUP9 ADD PUSH2 0xE4A JUMP JUMPDEST SWAP2 POP POP SWAP3 SWAP6 SWAP2 SWAP5 POP SWAP3 POP JUMP JUMPDEST PUSH1 0x0 DUP2 ISZERO ISZERO SWAP1 POP SWAP2 SWAP1 POP JUMP JUMPDEST PUSH2 0x1025 DUP2 PUSH2 0x1010 JUMP JUMPDEST DUP3 MSTORE POP POP JUMP JUMPDEST PUSH1 0x0 PUSH1 0x20 DUP3 ADD SWAP1 POP PUSH2 0x1040 PUSH1 0x0 DUP4 ADD DUP5 PUSH2 0x101C JUMP JUMPDEST SWAP3 SWAP2 POP POP JUMP JUMPDEST PUSH32 0x496E646578206F7574206F6620626F756E647300000000000000000000000000 PUSH1 0x0 DUP3 ADD MSTORE POP JUMP JUMPDEST PUSH1 0x0 PUSH2 0x107C PUSH1 0x13 DUP4 PUSH2 0xBFD JUMP JUMPDEST SWAP2 POP PUSH2 0x1087 DUP3 PUSH2 0x1046 JUMP JUMPDEST PUSH1 0x20 DUP3 ADD SWAP1 POP SWAP2 SWAP1 POP JUMP JUMPDEST PUSH1 0x0 PUSH1 0x20 DUP3 ADD SWAP1 POP DUP2 DUP2 SUB PUSH1 0x0 DUP4 ADD MSTORE PUSH2 0x10AB DUP2 PUSH2 0x106F JUMP JUMPDEST SWAP1 POP SWAP2 SWAP1 POP JUMP JUMPDEST PUSH32 0x4E487B7100000000000000000000000000000000000000000000000000000000 PUSH1 0x0 MSTORE PUSH1 0x32 PUSH1 0x4 MSTORE PUSH1 0x24 PUSH1 0x0 REVERT JUMPDEST PUSH32 0x4E487B7100000000000000000000000000000000000000000000000000000000 PUSH1 0x0 MSTORE PUSH1 0x22 PUSH1 0x4 MSTORE PUSH1 0x24 PUSH1 0x0 REVERT JUMPDEST PUSH1 0x0 PUSH1 0x2 DUP3 DIV SWAP1 POP PUSH1 0x1 DUP3 AND DUP1 PUSH2 0x1128 JUMPI PUSH1 0x7F DUP3 AND SWAP2 POP JUMPDEST PUSH1 0x20 DUP3 LT DUP2 EQ ISZERO PUSH2 0x113C JUMPI PUSH2 0x113B PUSH2 0x10E1 JUMP JUMPDEST JUMPDEST POP SWAP2 SWAP1 POP JUMP JUMPDEST PUSH32 0x4F6E6C79206F776E65722063616E2063616C6C20746869732066756E6374696F PUSH1 0x0 DUP3 ADD MSTORE PUSH32 0x6E00000000000000000000000000000000000000000000000000000000000000 PUSH1 0x20 DUP3 ADD MSTORE POP JUMP JUMPDEST PUSH1 0x0 PUSH2 0x119E PUSH1 0x21 DUP4 PUSH2 0xBFD JUMP JUMPDEST SWAP2 POP PUSH2 0x11A9 DUP3 PUSH2 0x1142 JUMP JUMPDEST PUSH1 0x40 DUP3 ADD SWAP1 POP SWAP2 SWAP1 POP JUMP JUMPDEST PUSH1 0x0 PUSH1 0x20 DUP3 ADD SWAP1 POP DUP2 DUP2 SUB PUSH1 0x0 DUP4 ADD MSTORE PUSH2 0x11CD DUP2 PUSH2 0x1191 JUMP JUMPDEST SWAP1 POP SWAP2 SWAP1 POP JUMP INVALID LOG2 PUSH5 0x6970667358 0x22 SLT KECCAK256 RETURNDATASIZE PUSH3 0x538EEE PUSH29 0x9E9479B8FAD1262AB5ECDB507EE9A1FF6468ABF52D5CB19379C364736F PUSH13 0x634300080C0033000000000000 "
	},
	"abi": [
		{
			"inputs": [
				{
					"internalType": "string",
					"name": "_name",
					"type": "string"
				},
				{
					"internalType": "string",
					"name": "_timestamp",
					"type": "string"
				},
				{
					"internalType": "string",
					"name": "_hash",
					"type": "string"
				}
			],
			"name": "addRecord",
			"outputs": [],
			"stateMutability": "nonpayable",
			"type": "function"
		},
		{
			"inputs": [],
			"stateMutability": "nonpayable",
			"type": "constructor"
		},
		{
			"inputs": [
				{
					"internalType": "uint256",
					"name": "index",
					"type": "uint256"
				}
			],
			"name": "getRecord",
			"outputs": [
				{
					"internalType": "string",
					"name": "",
					"type": "string"
				},
				{
					"internalType": "string",
					"name": "",
					"type": "string"
				},
				{
					"internalType": "string",
					"name": "",
					"type": "string"
				},
				{
					"internalType": "address",
					"name": "",
					"type": "address"
				},
				{
					"internalType": "uint256",
					"name": "",
					"type": "uint256"
				}
			],
			"stateMutability": "view",
			"type": "function"
		},
		{
			"inputs": [],
			"name": "getRecordCount",
			"outputs": [
				{
					"internalType": "uint256",
					"name": "",
					"type": "uint256"
				}
			],
			"stateMutability": "view",
			"type": "function"
		},
		{
			"inputs": [],
			"name": "owner",
			"outputs": [
				{
					"internalType": "address",
					"name": "",
					"type": "address"
				}
			],
			"stateMutability": "view",
			"type": "function"
		},
		{
			"inputs": [
				{
					"internalType": "uint256",
					"name": "",
					"type": "uint256"
				}
			],
			"name": "records",
			"outputs": [
				{
					"internalType": "string",
					"name": "name",
					"type": "string"
				},
				{
					"internalType": "string",
					"name": "timestamp",
					"type": "string"
				},
				{
					"internalType": "string",
					"name": "hash",
					"type": "string"
				},
				{
					"internalType": "address",
					"name": "recordedBy",
					"type": "address"
				},
				{
					"internalType": "uint256",
					"name": "blockNumber",
					"type": "uint256"
				}
			],
			"stateMutability": "view",
			"type": "function"
		},
		{
			"inputs": [
				{
					"internalType": "uint256",
					"name": "index",
					"type": "uint256"
				},
				{
					"internalType": "string",
					"name": "_name",
					"type": "string"
				},
				{
					"internalType": "string",
					"name": "_timestamp",
					"type": "string"
				},
				{
					"internalType": "string",
					"name": "_hash",
					"type": "string"
				}
			],
			"name": "verifyRecord",
			"outputs": [
				{
					"internalType": "bool",
					"name": "",
					"type": "bool"
				}
			],
			"stateMutability": "view",
			"type": "function"
		}
	],
	"storageLayout": {
		"storage": [
			{
				"astId": 16,
				"contract": "fg.sol:Attendance",
				"label": "records",
				"offset": 0,
				"slot": "0",
				"type": "t_array(t_struct(Record)12_storage)dyn_storage"
			},
			{
				"astId": 18,
				"contract": "fg.sol:Attendance",
				"label": "owner",
				"offset": 0,
				"slot": "1",
				"type": "t_address"
			}
		],
		"types": {
			"t_address": {
				"encoding": "inplace",
				"label": "address",
				"numberOfBytes": "20"
			},
			"t_array(t_struct(Record)12_storage)dyn_storage": {
				"base": "t_struct(Record)12_storage",
				"encoding": "dynamic_array",
				"label": "struct Attendance.Record[]",
				"numberOfBytes": "32"
			},
			"t_string_storage": {
				"encoding": "bytes",
				"label": "string",
				"numberOfBytes": "32"
			},
			"t_struct(Record)12_storage": {
				"encoding": "inplace",
				"label": "struct Attendance.Record",
				"members": [
					{
						"astId": 3,
						"contract": "fg.sol:Attendance",
						"label": "name",
						"offset": 0,
						"slot": "0",
						"type": "t_string_storage"
					},
					{
						"astId": 5,
						"contract": "fg.sol:Attendance",
						"label": "timestamp",
						"offset": 0,
						"slot": "1",
						"type": "t_string_storage"
					},
					{
						"astId": 7,
						"contract": "fg.sol:Attendance",
						"label": "hash",
						"offset": 0,
						"slot": "2",
						"type": "t_string_storage"
					},
					{
						"astId": 9,
						"contract": "fg.sol:Attendance",
						"label": "recordedBy",
						"offset": 0,
						"slot": "3",
						"type": "t_address"
					},
					{
						"astId": 11,
						"contract": "fg.sol:Attendance",
						"label": "blockNumber",
						"offset": 0,
						"slot": "4",
						"type": "t_uint256"
					}
				],
				"numberOfBytes": "160"
			},
			"t_uint256": {
				"encoding": "inplace",
				"label": "uint256",
				"numberOfBytes": "32"
			}
		}
	},
	"web3Deploy": "var attendanceContract = new web3.eth.Contract([{\"inputs\":[],\"stateMutability\":\"nonpayable\",\"type\":\"constructor\"},{\"inputs\":[{\"internalType\":\"string\",\"name\":\"_name\",\"type\":\"string\"},{\"internalType\":\"string\",\"name\":\"_timestamp\",\"type\":\"string\"},{\"internalType\":\"string\",\"name\":\"_hash\",\"type\":\"string\"}],\"name\":\"addRecord\",\"outputs\":[],\"stateMutability\":\"nonpayable\",\"type\":\"function\"},{\"inputs\":[{\"internalType\":\"uint256\",\"name\":\"index\",\"type\":\"uint256\"}],\"name\":\"getRecord\",\"outputs\":[{\"internalType\":\"string\",\"name\":\"\",\"type\":\"string\"},{\"internalType\":\"string\",\"name\":\"\",\"type\":\"string\"},{\"internalType\":\"string\",\"name\":\"\",\"type\":\"string\"},{\"internalType\":\"address\",\"name\":\"\",\"type\":\"address\"},{\"internalType\":\"uint256\",\"name\":\"\",\"type\":\"uint256\"}],\"stateMutability\":\"view\",\"type\":\"function\"},{\"inputs\":[],\"name\":\"getRecordCount\",\"outputs\":[{\"internalType\":\"uint256\",\"name\":\"\",\"type\":\"uint256\"}],\"stateMutability\":\"view\",\"type\":\"function\"},{\"inputs\":[],\"name\":\"owner\",\"outputs\":[{\"internalType\":\"address\",\"name\":\"\",\"type\":\"address\"}],\"stateMutability\":\"view\",\"type\":\"function\"},{\"inputs\":[{\"internalType\":\"uint256\",\"name\":\"\",\"type\":\"uint256\"}],\"name\":\"records\",\"outputs\":[{\"internalType\":\"string\",\"name\":\"name\",\"type\":\"string\"},{\"internalType\":\"string\",\"name\":\"timestamp\",\"type\":\"string\"},{\"internalType\":\"string\",\"name\":\"hash\",\"type\":\"string\"},{\"internalType\":\"address\",\"name\":\"recordedBy\",\"type\":\"address\"},{\"internalType\":\"uint256\",\"name\":\"blockNumber\",\"type\":\"uint256\"}],\"stateMutability\":\"view\",\"type\":\"function\"},{\"inputs\":[{\"internalType\":\"uint256\",\"name\":\"index\",\"type\":\"uint256\"},{\"internalType\":\"string\",\"name\":\"_name\",\"type\":\"string\"},{\"internalType\":\"string\",\"name\":\"_timestamp\",\"type\":\"string\"},{\"internalType\":\"string\",\"name\":\"_hash\",\"type\":\"string\"}],\"name\":\"verifyRecord\",\"outputs\":[{\"internalType\":\"bool\",\"name\":\"\",\"type\":\"bool\"}],\"stateMutability\":\"view\",\"type\":\"function\"}]);\nvar attendance = attendanceContract.deploy({\n     data: '0x608060405234801561001057600080fd5b5033600160006101000a81548173ffffffffffffffffffffffffffffffffffffffff021916908373ffffffffffffffffffffffffffffffffffffffff16021790555061120a806100616000396000f3fe608060405234801561001057600080fd5b50600436106100625760003560e01c806303e9e60914610067578063344610671461009b5780633f723c62146100cf5780638da5cb5b146100eb578063ca267f2814610109578063f6c61f4514610127575b600080fd5b610081600480360381019061007c9190610bc5565b610157565b604051610092959493929190610cdb565b60405180910390f35b6100b560048036038101906100b09190610bc5565b610419565b6040516100c6959493929190610cdb565b60405180910390f35b6100e960048036038101906100e49190610e78565b610617565b005b6100f36107be565b6040516101009190610f1f565b60405180910390f35b6101116107e4565b60405161011e9190610f3a565b60405180910390f35b610141600480360381019061013c9190610f55565b6107f0565b60405161014e919061102b565b60405180910390f35b606080606060008060008054905086106101a6576040517f08c379a000000000000000000000000000000000000000000000000000000000815260040161019d90611092565b60405180910390fd5b60008087815481106101bb576101ba6110b2565b5b90600052602060002090600502016040518060a00160405290816000820180546101e490611110565b80601f016020809104026020016040519081016040528092919081815260200182805461021090611110565b801561025d5780601f106102325761010080835404028352916020019161025d565b820191906000526020600020905b81548152906001019060200180831161024057829003601f168201915b5050505050815260200160018201805461027690611110565b80601f01602080910402602001604051908101604052809291908181526020018280546102a290611110565b80156102ef5780601f106102c4576101008083540402835291602001916102ef565b820191906000526020600020905b8154815290600101906020018083116102d257829003601f168201915b5050505050815260200160028201805461030890611110565b80601f016020809104026020016040519081016040528092919081815260200182805461033490611110565b80156103815780601f1061035657610100808354040283529160200191610381565b820191906000526020600020905b81548152906001019060200180831161036457829003601f168201915b505050505081526020016003820160009054906101000a900473ffffffffffffffffffffffffffffffffffffffff1673ffffffffffffffffffffffffffffffffffffffff1673ffffffffffffffffffffffffffffffffffffffff168152602001600482015481525050905080600001518160200151826040015183606001518460800151955095509550955095505091939590929450565b6000818154811061042957600080fd5b906000526020600020906005020160009150905080600001805461044c90611110565b80601f016020809104026020016040519081016040528092919081815260200182805461047890611110565b80156104c55780601f1061049a576101008083540402835291602001916104c5565b820191906000526020600020905b8154815290600101906020018083116104a857829003601f168201915b5050505050908060010180546104da90611110565b80601f016020809104026020016040519081016040528092919081815260200182805461050690611110565b80156105535780601f1061052857610100808354040283529160200191610553565b820191906000526020600020905b81548152906001019060200180831161053657829003601f168201915b50505050509080600201805461056890611110565b80601f016020809104026020016040519081016040528092919081815260200182805461059490611110565b80156105e15780601f106105b6576101008083540402835291602001916105e1565b820191906000526020600020905b8154815290600101906020018083116105c457829003601f168201915b5050505050908060030160009054906101000a900473ffffffffffffffffffffffffffffffffffffffff16908060040154905085565b600160009054906101000a900473ffffffffffffffffffffffffffffffffffffffff1673ffffffffffffffffffffffffffffffffffffffff163373ffffffffffffffffffffffffffffffffffffffff16146106a7576040517f08c379a000000000000000000000000000000000000000000000000000000000815260040161069e906111b4565b60405180910390fd5b60006040518060a001604052808581526020018481526020018381526020013373ffffffffffffffffffffffffffffffffffffffff168152602001438152509080600181540180825580915050600190039060005260206000209060050201600090919091909150600082015181600001908051906020019061072b929190610ad8565b506020820151816001019080519060200190610748929190610ad8565b506040820151816002019080519060200190610765929190610ad8565b5060608201518160030160006101000a81548173ffffffffffffffffffffffffffffffffffffffff021916908373ffffffffffffffffffffffffffffffffffffffff160217905550608082015181600401555050505050565b600160009054906101000a900473ffffffffffffffffffffffffffffffffffffffff1681565b60008080549050905090565b600080805490508510610838576040517f08c379a000000000000000000000000000000000000000000000000000000000815260040161082f90611092565b60405180910390fd5b600080868154811061084d5761084c6110b2565b5b90600052602060002090600502016040518060a001604052908160008201805461087690611110565b80601f01602080910402602001604051908101604052809291908181526020018280546108a290611110565b80156108ef5780601f106108c4576101008083540402835291602001916108ef565b820191906000526020600020905b8154815290600101906020018083116108d257829003601f168201915b5050505050815260200160018201805461090890611110565b80601f016020809104026020016040519081016040528092919081815260200182805461093490611110565b80156109815780601f1061095657610100808354040283529160200191610981565b820191906000526020600020905b81548152906001019060200180831161096457829003601f168201915b5050505050815260200160028201805461099a90611110565b80601f01602080910402602001604051908101604052809291908181526020018280546109c690611110565b8015610a135780601f106109e857610100808354040283529160200191610a13565b820191906000526020600020905b8154815290600101906020018083116109f657829003601f168201915b505050505081526020016003820160009054906101000a900473ffffffffffffffffffffffffffffffffffffffff1673ffffffffffffffffffffffffffffffffffffffff1673ffffffffffffffffffffffffffffffffffffffff16815260200160048201548152505090508480519060200120816000015180519060200120148015610ab057508380519060200120816020015180519060200120145b8015610acd57508280519060200120816040015180519060200120145b915050949350505050565b828054610ae490611110565b90600052602060002090601f016020900481019282610b065760008555610b4d565b82601f10610b1f57805160ff1916838001178555610b4d565b82800160010185558215610b4d579182015b82811115610b4c578251825591602001919060010190610b31565b5b509050610b5a9190610b5e565b5090565b5b80821115610b77576000816000905550600101610b5f565b5090565b6000604051905090565b600080fd5b600080fd5b6000819050919050565b610ba281610b8f565b8114610bad57600080fd5b50565b600081359050610bbf81610b99565b92915050565b600060208284031215610bdb57610bda610b85565b5b6000610be984828501610bb0565b91505092915050565b600081519050919050565b600082825260208201905092915050565b60005b83811015610c2c578082015181840152602081019050610c11565b83811115610c3b576000848401525b50505050565b6000601f19601f8301169050919050565b6000610c5d82610bf2565b610c678185610bfd565b9350610c77818560208601610c0e565b610c8081610c41565b840191505092915050565b600073ffffffffffffffffffffffffffffffffffffffff82169050919050565b6000610cb682610c8b565b9050919050565b610cc681610cab565b82525050565b610cd581610b8f565b82525050565b600060a0820190508181036000830152610cf58188610c52565b90508181036020830152610d098187610c52565b90508181036040830152610d1d8186610c52565b9050610d2c6060830185610cbd565b610d396080830184610ccc565b9695505050505050565b600080fd5b600080fd5b7f4e487b7100000000000000000000000000000000000000000000000000000000600052604160045260246000fd5b610d8582610c41565b810181811067ffffffffffffffff82111715610da457610da3610d4d565b5b80604052505050565b6000610db7610b7b565b9050610dc38282610d7c565b919050565b600067ffffffffffffffff821115610de357610de2610d4d565b5b610dec82610c41565b9050602081019050919050565b82818337600083830152505050565b6000610e1b610e1684610dc8565b610dad565b905082815260208101848484011115610e3757610e36610d48565b5b610e42848285610df9565b509392505050565b600082601f830112610e5f57610e5e610d43565b5b8135610e6f848260208601610e08565b91505092915050565b600080600060608486031215610e9157610e90610b85565b5b600084013567ffffffffffffffff811115610eaf57610eae610b8a565b5b610ebb86828701610e4a565b935050602084013567ffffffffffffffff811115610edc57610edb610b8a565b5b610ee886828701610e4a565b925050604084013567ffffffffffffffff811115610f0957610f08610b8a565b5b610f1586828701610e4a565b9150509250925092565b6000602082019050610f346000830184610cbd565b92915050565b6000602082019050610f4f6000830184610ccc565b92915050565b60008060008060808587031215610f6f57610f6e610b85565b5b6000610f7d87828801610bb0565b945050602085013567ffffffffffffffff811115610f9e57610f9d610b8a565b5b610faa87828801610e4a565b935050604085013567ffffffffffffffff811115610fcb57610fca610b8a565b5b610fd787828801610e4a565b925050606085013567ffffffffffffffff811115610ff857610ff7610b8a565b5b61100487828801610e4a565b91505092959194509250565b60008115159050919050565b61102581611010565b82525050565b6000602082019050611040600083018461101c565b92915050565b7f496e646578206f7574206f6620626f756e647300000000000000000000000000600082015250565b600061107c601383610bfd565b915061108782611046565b602082019050919050565b600060208201905081810360008301526110ab8161106f565b9050919050565b7f4e487b7100000000000000000000000000000000000000000000000000000000600052603260045260246000fd5b7f4e487b7100000000000000000000000000000000000000000000000000000000600052602260045260246000fd5b6000600282049050600182168061112857607f821691505b6020821081141561113c5761113b6110e1565b5b50919050565b7f4f6e6c79206f776e65722063616e2063616c6c20746869732066756e6374696f60008201527f6e00000000000000000000000000000000000000000000000000000000000000602082015250565b600061119e602183610bfd565b91506111a982611142565b604082019050919050565b600060208201905081810360008301526111cd81611191565b905091905056fea26469706673582212203d62538eee7c9e9479b8fad1262ab5ecdb507ee9a1ff6468abf52d5cb19379c364736f6c634300080c0033', \n     arguments: [\n     ]\n}).send({\n     from: web3.eth.accounts[0], \n     gas: '4700000'\n   }, function (e, contract){\n    console.log(e, contract);\n    if (typeof contract.address !== 'undefined') {\n         console.log('Contract mined! address: ' + contract.address + ' transactionHash: ' + contract.transactionHash);\n    }\n })",
	"functionHashes": {
		"34461067": "records(uint256)",
		"3f723c62": "addRecord(string,string,string)",
		"03e9e609": "getRecord(uint256)",
		"ca267f28": "getRecordCount()",
		"8da5cb5b": "owner()",
		"f6c61f45": "verifyRecord(uint256,string,string,string)"
	},
	"gasEstimates": {
		"Creation": {
			"codeDepositCost": "923600",
			"executionCost": "25228",
			"totalCost": "948828"
		},
		"External": {
			"addRecord(string,string,string)": "infinite",
			"getRecord(uint256)": "infinite",
			"getRecordCount()": "2511",
			"owner()": "2558",
			"records(uint256)": "infinite",
			"verifyRecord(uint256,string,string,string)": "infinite"
		}
	},
	"devdoc": {
		"kind": "dev",
		"methods": {},
		"version": 1
	},
	"userdoc": {
		"kind": "user",
		"methods": {},
		"version": 1
	},
	"Runtime Bytecode": {
		"immutableReferences": {},
		"linkReferences": {},
		"object": "608060405234801561001057600080fd5b50600436106100625760003560e01c806303e9e60914610067578063344610671461009b5780633f723c62146100cf5780638da5cb5b146100eb578063ca267f2814610109578063f6c61f4514610127575b600080fd5b610081600480360381019061007c9190610bc5565b610157565b604051610092959493929190610cdb565b60405180910390f35b6100b560048036038101906100b09190610bc5565b610419565b6040516100c6959493929190610cdb565b60405180910390f35b6100e960048036038101906100e49190610e78565b610617565b005b6100f36107be565b6040516101009190610f1f565b60405180910390f35b6101116107e4565b60405161011e9190610f3a565b60405180910390f35b610141600480360381019061013c9190610f55565b6107f0565b60405161014e919061102b565b60405180910390f35b606080606060008060008054905086106101a6576040517f08c379a000000000000000000000000000000000000000000000000000000000815260040161019d90611092565b60405180910390fd5b60008087815481106101bb576101ba6110b2565b5b90600052602060002090600502016040518060a00160405290816000820180546101e490611110565b80601f016020809104026020016040519081016040528092919081815260200182805461021090611110565b801561025d5780601f106102325761010080835404028352916020019161025d565b820191906000526020600020905b81548152906001019060200180831161024057829003601f168201915b5050505050815260200160018201805461027690611110565b80601f01602080910402602001604051908101604052809291908181526020018280546102a290611110565b80156102ef5780601f106102c4576101008083540402835291602001916102ef565b820191906000526020600020905b8154815290600101906020018083116102d257829003601f168201915b5050505050815260200160028201805461030890611110565b80601f016020809104026020016040519081016040528092919081815260200182805461033490611110565b80156103815780601f1061035657610100808354040283529160200191610381565b820191906000526020600020905b81548152906001019060200180831161036457829003601f168201915b505050505081526020016003820160009054906101000a900473ffffffffffffffffffffffffffffffffffffffff1673ffffffffffffffffffffffffffffffffffffffff1673ffffffffffffffffffffffffffffffffffffffff168152602001600482015481525050905080600001518160200151826040015183606001518460800151955095509550955095505091939590929450565b6000818154811061042957600080fd5b906000526020600020906005020160009150905080600001805461044c90611110565b80601f016020809104026020016040519081016040528092919081815260200182805461047890611110565b80156104c55780601f1061049a576101008083540402835291602001916104c5565b820191906000526020600020905b8154815290600101906020018083116104a857829003601f168201915b5050505050908060010180546104da90611110565b80601f016020809104026020016040519081016040528092919081815260200182805461050690611110565b80156105535780601f1061052857610100808354040283529160200191610553565b820191906000526020600020905b81548152906001019060200180831161053657829003601f168201915b50505050509080600201805461056890611110565b80601f016020809104026020016040519081016040528092919081815260200182805461059490611110565b80156105e15780601f106105b6576101008083540402835291602001916105e1565b820191906000526020600020905b8154815290600101906020018083116105c457829003601f168201915b5050505050908060030160009054906101000a900473ffffffffffffffffffffffffffffffffffffffff16908060040154905085565b600160009054906101000a900473ffffffffffffffffffffffffffffffffffffffff1673ffffffffffffffffffffffffffffffffffffffff163373ffffffffffffffffffffffffffffffffffffffff16146106a7576040517f08c379a000000000000000000000000000000000000000000000000000000000815260040161069e906111b4565b60405180910390fd5b60006040518060a001604052808581526020018481526020018381526020013373ffffffffffffffffffffffffffffffffffffffff168152602001438152509080600181540180825580915050600190039060005260206000209060050201600090919091909150600082015181600001908051906020019061072b929190610ad8565b506020820151816001019080519060200190610748929190610ad8565b506040820151816002019080519060200190610765929190610ad8565b5060608201518160030160006101000a81548173ffffffffffffffffffffffffffffffffffffffff021916908373ffffffffffffffffffffffffffffffffffffffff160217905550608082015181600401555050505050565b600160009054906101000a900473ffffffffffffffffffffffffffffffffffffffff1681565b60008080549050905090565b600080805490508510610838576040517f08c379a000000000000000000000000000000000000000000000000000000000815260040161082f90611092565b60405180910390fd5b600080868154811061084d5761084c6110b2565b5b90600052602060002090600502016040518060a001604052908160008201805461087690611110565b80601f01602080910402602001604051908101604052809291908181526020018280546108a290611110565b80156108ef5780601f106108c4576101008083540402835291602001916108ef565b820191906000526020600020905b8154815290600101906020018083116108d257829003601f168201915b5050505050815260200160018201805461090890611110565b80601f016020809104026020016040519081016040528092919081815260200182805461093490611110565b80156109815780601f1061095657610100808354040283529160200191610981565b820191906000526020600020905b81548152906001019060200180831161096457829003601f168201915b5050505050815260200160028201805461099a90611110565b80601f01602080910402602001604051908101604052809291908181526020018280546109c690611110565b8015610a135780601f106109e857610100808354040283529160200191610a13565b820191906000526020600020905b8154815290600101906020018083116109f657829003601f168201915b505050505081526020016003820160009054906101000a900473ffffffffffffffffffffffffffffffffffffffff1673ffffffffffffffffffffffffffffffffffffffff1673ffffffffffffffffffffffffffffffffffffffff16815260200160048201548152505090508480519060200120816000015180519060200120148015610ab057508380519060200120816020015180519060200120145b8015610acd57508280519060200120816040015180519060200120145b915050949350505050565b828054610ae490611110565b90600052602060002090601f016020900481019282610b065760008555610b4d565b82601f10610b1f57805160ff1916838001178555610b4d565b82800160010185558215610b4d579182015b82811115610b4c578251825591602001919060010190610b31565b5b509050610b5a9190610b5e565b5090565b5b80821115610b77576000816000905550600101610b5f565b5090565b6000604051905090565b600080fd5b600080fd5b6000819050919050565b610ba281610b8f565b8114610bad57600080fd5b50565b600081359050610bbf81610b99565b92915050565b600060208284031215610bdb57610bda610b85565b5b6000610be984828501610bb0565b91505092915050565b600081519050919050565b600082825260208201905092915050565b60005b83811015610c2c578082015181840152602081019050610c11565b83811115610c3b576000848401525b50505050565b6000601f19601f8301169050919050565b6000610c5d82610bf2565b610c678185610bfd565b9350610c77818560208601610c0e565b610c8081610c41565b840191505092915050565b600073ffffffffffffffffffffffffffffffffffffffff82169050919050565b6000610cb682610c8b565b9050919050565b610cc681610cab565b82525050565b610cd581610b8f565b82525050565b600060a0820190508181036000830152610cf58188610c52565b90508181036020830152610d098187610c52565b90508181036040830152610d1d8186610c52565b9050610d2c6060830185610cbd565b610d396080830184610ccc565b9695505050505050565b600080fd5b600080fd5b7f4e487b7100000000000000000000000000000000000000000000000000000000600052604160045260246000fd5b610d8582610c41565b810181811067ffffffffffffffff82111715610da457610da3610d4d565b5b80604052505050565b6000610db7610b7b565b9050610dc38282610d7c565b919050565b600067ffffffffffffffff821115610de357610de2610d4d565b5b610dec82610c41565b9050602081019050919050565b82818337600083830152505050565b6000610e1b610e1684610dc8565b610dad565b905082815260208101848484011115610e3757610e36610d48565b5b610e42848285610df9565b509392505050565b600082601f830112610e5f57610e5e610d43565b5b8135610e6f848260208601610e08565b91505092915050565b600080600060608486031215610e9157610e90610b85565b5b600084013567ffffffffffffffff811115610eaf57610eae610b8a565b5b610ebb86828701610e4a565b935050602084013567ffffffffffffffff811115610edc57610edb610b8a565b5b610ee886828701610e4a565b925050604084013567ffffffffffffffff811115610f0957610f08610b8a565b5b610f1586828701610e4a565b9150509250925092565b6000602082019050610f346000830184610cbd565b92915050565b6000602082019050610f4f6000830184610ccc565b92915050565b60008060008060808587031215610f6f57610f6e610b85565b5b6000610f7d87828801610bb0565b945050602085013567ffffffffffffffff811115610f9e57610f9d610b8a565b5b610faa87828801610e4a565b935050604085013567ffffffffffffffff811115610fcb57610fca610b8a565b5b610fd787828801610e4a565b925050606085013567ffffffffffffffff811115610ff857610ff7610b8a565b5b61100487828801610e4a565b91505092959194509250565b60008115159050919050565b61102581611010565b82525050565b6000602082019050611040600083018461101c565b92915050565b7f496e646578206f7574206f6620626f756e647300000000000000000000000000600082015250565b600061107c601383610bfd565b915061108782611046565b602082019050919050565b600060208201905081810360008301526110ab8161106f565b9050919050565b7f4e487b7100000000000000000000000000000000000000000000000000000000600052603260045260246000fd5b7f4e487b7100000000000000000000000000000000000000000000000000000000600052602260045260246000fd5b6000600282049050600182168061112857607f821691505b6020821081141561113c5761113b6110e1565b5b50919050565b7f4f6e6c79206f776e65722063616e2063616c6c20746869732066756e6374696f60008201527f6e00000000000000000000000000000000000000000000000000000000000000602082015250565b600061119e602183610bfd565b91506111a982611142565b604082019050919050565b600060208201905081810360008301526111cd81611191565b905091905056fea26469706673582212203d62538eee7c9e9479b8fad1262ab5ecdb507ee9a1ff6468abf52d5cb19379c364736f6c634300080c0033",
		"opcodes": "PUSH1 0x80 PUSH1 0x40 MSTORE CALLVALUE DUP1 ISZERO PUSH2 0x10 JUMPI PUSH1 0x0 DUP1 REVERT JUMPDEST POP PUSH1 0x4 CALLDATASIZE LT PUSH2 0x62 JUMPI PUSH1 0x0 CALLDATALOAD PUSH1 0xE0 SHR DUP1 PUSH4 0x3E9E609 EQ PUSH2 0x67 JUMPI DUP1 PUSH4 0x34461067 EQ PUSH2 0x9B JUMPI DUP1 PUSH4 0x3F723C62 EQ PUSH2 0xCF JUMPI DUP1 PUSH4 0x8DA5CB5B EQ PUSH2 0xEB JUMPI DUP1 PUSH4 0xCA267F28 EQ PUSH2 0x109 JUMPI DUP1 PUSH4 0xF6C61F45 EQ PUSH2 0x127 JUMPI JUMPDEST PUSH1 0x0 DUP1 REVERT JUMPDEST PUSH2 0x81 PUSH1 0x4 DUP1 CALLDATASIZE SUB DUP2 ADD SWAP1 PUSH2 0x7C SWAP2 SWAP1 PUSH2 0xBC5 JUMP JUMPDEST PUSH2 0x157 JUMP JUMPDEST PUSH1 0x40 MLOAD PUSH2 0x92 SWAP6 SWAP5 SWAP4 SWAP3 SWAP2 SWAP1 PUSH2 0xCDB JUMP JUMPDEST PUSH1 0x40 MLOAD DUP1 SWAP2 SUB SWAP1 RETURN JUMPDEST PUSH2 0xB5 PUSH1 0x4 DUP1 CALLDATASIZE SUB DUP2 ADD SWAP1 PUSH2 0xB0 SWAP2 SWAP1 PUSH2 0xBC5 JUMP JUMPDEST PUSH2 0x419 JUMP JUMPDEST PUSH1 0x40 MLOAD PUSH2 0xC6 SWAP6 SWAP5 SWAP4 SWAP3 SWAP2 SWAP1 PUSH2 0xCDB JUMP JUMPDEST PUSH1 0x40 MLOAD DUP1 SWAP2 SUB SWAP1 RETURN JUMPDEST PUSH2 0xE9 PUSH1 0x4 DUP1 CALLDATASIZE SUB DUP2 ADD SWAP1 PUSH2 0xE4 SWAP2 SWAP1 PUSH2 0xE78 JUMP JUMPDEST PUSH2 0x617 JUMP JUMPDEST STOP JUMPDEST PUSH2 0xF3 PUSH2 0x7BE JUMP JUMPDEST PUSH1 0x40 MLOAD PUSH2 0x100 SWAP2 SWAP1 PUSH2 0xF1F JUMP JUMPDEST PUSH1 0x40 MLOAD DUP1 SWAP2 SUB SWAP1 RETURN JUMPDEST PUSH2 0x111 PUSH2 0x7E4 JUMP JUMPDEST PUSH1 0x40 MLOAD PUSH2 0x11E SWAP2 SWAP1 PUSH2 0xF3A JUMP JUMPDEST PUSH1 0x40 MLOAD DUP1 SWAP2 SUB SWAP1 RETURN JUMPDEST PUSH2 0x141 PUSH1 0x4 DUP1 CALLDATASIZE SUB DUP2 ADD SWAP1 PUSH2 0x13C SWAP2 SWAP1 PUSH2 0xF55 JUMP JUMPDEST PUSH2 0x7F0 JUMP JUMPDEST PUSH1 0x40 MLOAD PUSH2 0x14E SWAP2 SWAP1 PUSH2 0x102B JUMP JUMPDEST PUSH1 0x40 MLOAD DUP1 SWAP2 SUB SWAP1 RETURN JUMPDEST PUSH1 0x60 DUP1 PUSH1 0x60 PUSH1 0x0 DUP1 PUSH1 0x0 DUP1 SLOAD SWAP1 POP DUP7 LT PUSH2 0x1A6 JUMPI PUSH1 0x40 MLOAD PUSH32 0x8C379A000000000000000000000000000000000000000000000000000000000 DUP2 MSTORE PUSH1 0x4 ADD PUSH2 0x19D SWAP1 PUSH2 0x1092 JUMP JUMPDEST PUSH1 0x40 MLOAD DUP1 SWAP2 SUB SWAP1 REVERT JUMPDEST PUSH1 0x0 DUP1 DUP8 DUP2 SLOAD DUP2 LT PUSH2 0x1BB JUMPI PUSH2 0x1BA PUSH2 0x10B2 JUMP JUMPDEST JUMPDEST SWAP1 PUSH1 0x0 MSTORE PUSH1 0x20 PUSH1 0x0 KECCAK256 SWAP1 PUSH1 0x5 MUL ADD PUSH1 0x40 MLOAD DUP1 PUSH1 0xA0 ADD PUSH1 0x40 MSTORE SWAP1 DUP2 PUSH1 0x0 DUP3 ADD DUP1 SLOAD PUSH2 0x1E4 SWAP1 PUSH2 0x1110 JUMP JUMPDEST DUP1 PUSH1 0x1F ADD PUSH1 0x20 DUP1 SWAP2 DIV MUL PUSH1 0x20 ADD PUSH1 0x40 MLOAD SWAP1 DUP2 ADD PUSH1 0x40 MSTORE DUP1 SWAP3 SWAP2 SWAP1 DUP2 DUP2 MSTORE PUSH1 0x20 ADD DUP3 DUP1 SLOAD PUSH2 0x210 SWAP1 PUSH2 0x1110 JUMP JUMPDEST DUP1 ISZERO PUSH2 0x25D JUMPI DUP1 PUSH1 0x1F LT PUSH2 0x232 JUMPI PUSH2 0x100 DUP1 DUP4 SLOAD DIV MUL DUP4 MSTORE SWAP2 PUSH1 0x20 ADD SWAP2 PUSH2 0x25D JUMP JUMPDEST DUP3 ADD SWAP2 SWAP1 PUSH1 0x0 MSTORE PUSH1 0x20 PUSH1 0x0 KECCAK256 SWAP1 JUMPDEST DUP2 SLOAD DUP2 MSTORE SWAP1 PUSH1 0x1 ADD SWAP1 PUSH1 0x20 ADD DUP1 DUP4 GT PUSH2 0x240 JUMPI DUP3 SWAP1 SUB PUSH1 0x1F AND DUP3 ADD SWAP2 JUMPDEST POP POP POP POP POP DUP2 MSTORE PUSH1 0x20 ADD PUSH1 0x1 DUP3 ADD DUP1 SLOAD PUSH2 0x276 SWAP1 PUSH2 0x1110 JUMP JUMPDEST DUP1 PUSH1 0x1F ADD PUSH1 0x20 DUP1 SWAP2 DIV MUL PUSH1 0x20 ADD PUSH1 0x40 MLOAD SWAP1 DUP2 ADD PUSH1 0x40 MSTORE DUP1 SWAP3 SWAP2 SWAP1 DUP2 DUP2 MSTORE PUSH1 0x20 ADD DUP3 DUP1 SLOAD PUSH2 0x2A2 SWAP1 PUSH2 0x1110 JUMP JUMPDEST DUP1 ISZERO PUSH2 0x2EF JUMPI DUP1 PUSH1 0x1F LT PUSH2 0x2C4 JUMPI PUSH2 0x100 DUP1 DUP4 SLOAD DIV MUL DUP4 MSTORE SWAP2 PUSH1 0x20 ADD SWAP2 PUSH2 0x2EF JUMP JUMPDEST DUP3 ADD SWAP2 SWAP1 PUSH1 0x0 MSTORE PUSH1 0x20 PUSH1 0x0 KECCAK256 SWAP1 JUMPDEST DUP2 SLOAD DUP2 MSTORE SWAP1 PUSH1 0x1 ADD SWAP1 PUSH1 0x20 ADD DUP1 DUP4 GT PUSH2 0x2D2 JUMPI DUP3 SWAP1 SUB PUSH1 0x1F AND DUP3 ADD SWAP2 JUMPDEST POP POP POP POP POP DUP2 MSTORE PUSH1 0x20 ADD PUSH1 0x2 DUP3 ADD DUP1 SLOAD PUSH2 0x308 SWAP1 PUSH2 0x1110 JUMP JUMPDEST DUP1 PUSH1 0x1F ADD PUSH1 0x20 DUP1 SWAP2 DIV MUL PUSH1 0x20 ADD PUSH1 0x40 MLOAD SWAP1 DUP2 ADD PUSH1 0x40 MSTORE DUP1 SWAP3 SWAP2 SWAP1 DUP2 DUP2 MSTORE PUSH1 0x20 ADD DUP3 DUP1 SLOAD PUSH2 0x334 SWAP1 PUSH2 0x1110 JUMP JUMPDEST DUP1 ISZERO PUSH2 0x381 JUMPI DUP1 PUSH1 0x1F LT PUSH2 0x356 JUMPI PUSH2 0x100 DUP1 DUP4 SLOAD DIV MUL DUP4 MSTORE SWAP2 PUSH1 0x20 ADD SWAP2 PUSH2 0x381 JUMP JUMPDEST DUP3 ADD SWAP2 SWAP1 PUSH1 0x0 MSTORE PUSH1 0x20 PUSH1 0x0 KECCAK256 SWAP1 JUMPDEST DUP2 SLOAD DUP2 MSTORE SWAP1 PUSH1 0x1 ADD SWAP1 PUSH1 0x20 ADD DUP1 DUP4 GT PUSH2 0x364 JUMPI DUP3 SWAP1 SUB PUSH1 0x1F AND DUP3 ADD SWAP2 JUMPDEST POP POP POP POP POP DUP2 MSTORE PUSH1 0x20 ADD PUSH1 0x3 DUP3 ADD PUSH1 0x0 SWAP1 SLOAD SWAP1 PUSH2 0x100 EXP SWAP1 DIV PUSH20 0xFFFFFFFFFFFFFFFFFFFFFFFFFFFFFFFFFFFFFFFF AND PUSH20 0xFFFFFFFFFFFFFFFFFFFFFFFFFFFFFFFFFFFFFFFF AND PUSH20 0xFFFFFFFFFFFFFFFFFFFFFFFFFFFFFFFFFFFFFFFF AND DUP2 MSTORE PUSH1 0x20 ADD PUSH1 0x4 DUP3 ADD SLOAD DUP2 MSTORE POP POP SWAP1 POP DUP1 PUSH1 0x0 ADD MLOAD DUP2 PUSH1 0x20 ADD MLOAD DUP3 PUSH1 0x40 ADD MLOAD DUP4 PUSH1 0x60 ADD MLOAD DUP5 PUSH1 0x80 ADD MLOAD SWAP6 POP SWAP6 POP SWAP6 POP SWAP6 POP SWAP6 POP POP SWAP2 SWAP4 SWAP6 SWAP1 SWAP3 SWAP5 POP JUMP JUMPDEST PUSH1 0x0 DUP2 DUP2 SLOAD DUP2 LT PUSH2 0x429 JUMPI PUSH1 0x0 DUP1 REVERT JUMPDEST SWAP1 PUSH1 0x0 MSTORE PUSH1 0x20 PUSH1 0x0 KECCAK256 SWAP1 PUSH1 0x5 MUL ADD PUSH1 0x0 SWAP2 POP SWAP1 POP DUP1 PUSH1 0x0 ADD DUP1 SLOAD PUSH2 0x44C SWAP1 PUSH2 0x1110 JUMP JUMPDEST DUP1 PUSH1 0x1F ADD PUSH1 0x20 DUP1 SWAP2 DIV MUL PUSH1 0x20 ADD PUSH1 0x40 MLOAD SWAP1 DUP2 ADD PUSH1 0x40 MSTORE DUP1 SWAP3 SWAP2 SWAP1 DUP2 DUP2 MSTORE PUSH1 0x20 ADD DUP3 DUP1 SLOAD PUSH2 0x478 SWAP1 PUSH2 0x1110 JUMP JUMPDEST DUP1 ISZERO PUSH2 0x4C5 JUMPI DUP1 PUSH1 0x1F LT PUSH2 0x49A JUMPI PUSH2 0x100 DUP1 DUP4 SLOAD DIV MUL DUP4 MSTORE SWAP2 PUSH1 0x20 ADD SWAP2 PUSH2 0x4C5 JUMP JUMPDEST DUP3 ADD SWAP2 SWAP1 PUSH1 0x0 MSTORE PUSH1 0x20 PUSH1 0x0 KECCAK256 SWAP1 JUMPDEST DUP2 SLOAD DUP2 MSTORE SWAP1 PUSH1 0x1 ADD SWAP1 PUSH1 0x20 ADD DUP1 DUP4 GT PUSH2 0x4A8 JUMPI DUP3 SWAP1 SUB PUSH1 0x1F AND DUP3 ADD SWAP2 JUMPDEST POP POP POP POP POP SWAP1 DUP1 PUSH1 0x1 ADD DUP1 SLOAD PUSH2 0x4DA SWAP1 PUSH2 0x1110 JUMP JUMPDEST DUP1 PUSH1 0x1F ADD PUSH1 0x20 DUP1 SWAP2 DIV MUL PUSH1 0x20 ADD PUSH1 0x40 MLOAD SWAP1 DUP2 ADD PUSH1 0x40 MSTORE DUP1 SWAP3 SWAP2 SWAP1 DUP2 DUP2 MSTORE PUSH1 0x20 ADD DUP3 DUP1 SLOAD PUSH2 0x506 SWAP1 PUSH2 0x1110 JUMP JUMPDEST DUP1 ISZERO PUSH2 0x553 JUMPI DUP1 PUSH1 0x1F LT PUSH2 0x528 JUMPI PUSH2 0x100 DUP1 DUP4 SLOAD DIV MUL DUP4 MSTORE SWAP2 PUSH1 0x20 ADD SWAP2 PUSH2 0x553 JUMP JUMPDEST DUP3 ADD SWAP2 SWAP1 PUSH1 0x0 MSTORE PUSH1 0x20 PUSH1 0x0 KECCAK256 SWAP1 JUMPDEST DUP2 SLOAD DUP2 MSTORE SWAP1 PUSH1 0x1 ADD SWAP1 PUSH1 0x20 ADD DUP1 DUP4 GT PUSH2 0x536 JUMPI DUP3 SWAP1 SUB PUSH1 0x1F AND DUP3 ADD SWAP2 JUMPDEST POP POP POP POP POP SWAP1 DUP1 PUSH1 0x2 ADD DUP1 SLOAD PUSH2 0x568 SWAP1 PUSH2 0x1110 JUMP JUMPDEST DUP1 PUSH1 0x1F ADD PUSH1 0x20 DUP1 SWAP2 DIV MUL PUSH1 0x20 ADD PUSH1 0x40 MLOAD SWAP1 DUP2 ADD PUSH1 0x40 MSTORE DUP1 SWAP3 SWAP2 SWAP1 DUP2 DUP2 MSTORE PUSH1 0x20 ADD DUP3 DUP1 SLOAD PUSH2 0x594 SWAP1 PUSH2 0x1110 JUMP JUMPDEST DUP1 ISZERO PUSH2 0x5E1 JUMPI DUP1 PUSH1 0x1F LT PUSH2 0x5B6 JUMPI PUSH2 0x100 DUP1 DUP4 SLOAD DIV MUL DUP4 MSTORE SWAP2 PUSH1 0x20 ADD SWAP2 PUSH2 0x5E1 JUMP JUMPDEST DUP3 ADD SWAP2 SWAP1 PUSH1 0x0 MSTORE PUSH1 0x20 PUSH1 0x0 KECCAK256 SWAP1 JUMPDEST DUP2 SLOAD DUP2 MSTORE SWAP1 PUSH1 0x1 ADD SWAP1 PUSH1 0x20 ADD DUP1 DUP4 GT PUSH2 0x5C4 JUMPI DUP3 SWAP1 SUB PUSH1 0x1F AND DUP3 ADD SWAP2 JUMPDEST POP POP POP POP POP SWAP1 DUP1 PUSH1 0x3 ADD PUSH1 0x0 SWAP1 SLOAD SWAP1 PUSH2 0x100 EXP SWAP1 DIV PUSH20 0xFFFFFFFFFFFFFFFFFFFFFFFFFFFFFFFFFFFFFFFF AND SWAP1 DUP1 PUSH1 0x4 ADD SLOAD SWAP1 POP DUP6 JUMP JUMPDEST PUSH1 0x1 PUSH1 0x0 SWAP1 SLOAD SWAP1 PUSH2 0x100 EXP SWAP1 DIV PUSH20 0xFFFFFFFFFFFFFFFFFFFFFFFFFFFFFFFFFFFFFFFF AND PUSH20 0xFFFFFFFFFFFFFFFFFFFFFFFFFFFFFFFFFFFFFFFF AND CALLER PUSH20 0xFFFFFFFFFFFFFFFFFFFFFFFFFFFFFFFFFFFFFFFF AND EQ PUSH2 0x6A7 JUMPI PUSH1 0x40 MLOAD PUSH32 0x8C379A000000000000000000000000000000000000000000000000000000000 DUP2 MSTORE PUSH1 0x4 ADD PUSH2 0x69E SWAP1 PUSH2 0x11B4 JUMP JUMPDEST PUSH1 0x40 MLOAD DUP1 SWAP2 SUB SWAP1 REVERT JUMPDEST PUSH1 0x0 PUSH1 0x40 MLOAD DUP1 PUSH1 0xA0 ADD PUSH1 0x40 MSTORE DUP1 DUP6 DUP2 MSTORE PUSH1 0x20 ADD DUP5 DUP2 MSTORE PUSH1 0x20 ADD DUP4 DUP2 MSTORE PUSH1 0x20 ADD CALLER PUSH20 0xFFFFFFFFFFFFFFFFFFFFFFFFFFFFFFFFFFFFFFFF AND DUP2 MSTORE PUSH1 0x20 ADD NUMBER DUP2 MSTORE POP SWAP1 DUP1 PUSH1 0x1 DUP2 SLOAD ADD DUP1 DUP3 SSTORE DUP1 SWAP2 POP POP PUSH1 0x1 SWAP1 SUB SWAP1 PUSH1 0x0 MSTORE PUSH1 0x20 PUSH1 0x0 KECCAK256 SWAP1 PUSH1 0x5 MUL ADD PUSH1 0x0 SWAP1 SWAP2 SWAP1 SWAP2 SWAP1 SWAP2 POP PUSH1 0x0 DUP3 ADD MLOAD DUP2 PUSH1 0x0 ADD SWAP1 DUP1 MLOAD SWAP1 PUSH1 0x20 ADD SWAP1 PUSH2 0x72B SWAP3 SWAP2 SWAP1 PUSH2 0xAD8 JUMP JUMPDEST POP PUSH1 0x20 DUP3 ADD MLOAD DUP2 PUSH1 0x1 ADD SWAP1 DUP1 MLOAD SWAP1 PUSH1 0x20 ADD SWAP1 PUSH2 0x748 SWAP3 SWAP2 SWAP1 PUSH2 0xAD8 JUMP JUMPDEST POP PUSH1 0x40 DUP3 ADD MLOAD DUP2 PUSH1 0x2 ADD SWAP1 DUP1 MLOAD SWAP1 PUSH1 0x20 ADD SWAP1 PUSH2 0x765 SWAP3 SWAP2 SWAP1 PUSH2 0xAD8 JUMP JUMPDEST POP PUSH1 0x60 DUP3 ADD MLOAD DUP2 PUSH1 0x3 ADD PUSH1 0x0 PUSH2 0x100 EXP DUP2 SLOAD DUP2 PUSH20 0xFFFFFFFFFFFFFFFFFFFFFFFFFFFFFFFFFFFFFFFF MUL NOT AND SWAP1 DUP4 PUSH20 0xFFFFFFFFFFFFFFFFFFFFFFFFFFFFFFFFFFFFFFFF AND MUL OR SWAP1 SSTORE POP PUSH1 0x80 DUP3 ADD MLOAD DUP2 PUSH1 0x4 ADD SSTORE POP POP POP POP POP JUMP JUMPDEST PUSH1 0x1 PUSH1 0x0 SWAP1 SLOAD SWAP1 PUSH2 0x100 EXP SWAP1 DIV PUSH20 0xFFFFFFFFFFFFFFFFFFFFFFFFFFFFFFFFFFFFFFFF AND DUP2 JUMP JUMPDEST PUSH1 0x0 DUP1 DUP1 SLOAD SWAP1 POP SWAP1 POP SWAP1 JUMP JUMPDEST PUSH1 0x0 DUP1 DUP1 SLOAD SWAP1 POP DUP6 LT PUSH2 0x838 JUMPI PUSH1 0x40 MLOAD PUSH32 0x8C379A000000000000000000000000000000000000000000000000000000000 DUP2 MSTORE PUSH1 0x4 ADD PUSH2 0x82F SWAP1 PUSH2 0x1092 JUMP JUMPDEST PUSH1 0x40 MLOAD DUP1 SWAP2 SUB SWAP1 REVERT JUMPDEST PUSH1 0x0 DUP1 DUP7 DUP2 SLOAD DUP2 LT PUSH2 0x84D JUMPI PUSH2 0x84C PUSH2 0x10B2 JUMP JUMPDEST JUMPDEST SWAP1 PUSH1 0x0 MSTORE PUSH1 0x20 PUSH1 0x0 KECCAK256 SWAP1 PUSH1 0x5 MUL ADD PUSH1 0x40 MLOAD DUP1 PUSH1 0xA0 ADD PUSH1 0x40 MSTORE SWAP1 DUP2 PUSH1 0x0 DUP3 ADD DUP1 SLOAD PUSH2 0x876 SWAP1 PUSH2 0x1110 JUMP JUMPDEST DUP1 PUSH1 0x1F ADD PUSH1 0x20 DUP1 SWAP2 DIV MUL PUSH1 0x20 ADD PUSH1 0x40 MLOAD SWAP1 DUP2 ADD PUSH1 0x40 MSTORE DUP1 SWAP3 SWAP2 SWAP1 DUP2 DUP2 MSTORE PUSH1 0x20 ADD DUP3 DUP1 SLOAD PUSH2 0x8A2 SWAP1 PUSH2 0x1110 JUMP JUMPDEST DUP1 ISZERO PUSH2 0x8EF JUMPI DUP1 PUSH1 0x1F LT PUSH2 0x8C4 JUMPI PUSH2 0x100 DUP1 DUP4 SLOAD DIV MUL DUP4 MSTORE SWAP2 PUSH1 0x20 ADD SWAP2 PUSH2 0x8EF JUMP JUMPDEST DUP3 ADD SWAP2 SWAP1 PUSH1 0x0 MSTORE PUSH1 0x20 PUSH1 0x0 KECCAK256 SWAP1 JUMPDEST DUP2 SLOAD DUP2 MSTORE SWAP1 PUSH1 0x1 ADD SWAP1 PUSH1 0x20 ADD DUP1 DUP4 GT PUSH2 0x8D2 JUMPI DUP3 SWAP1 SUB PUSH1 0x1F AND DUP3 ADD SWAP2 JUMPDEST POP POP POP POP POP DUP2 MSTORE PUSH1 0x20 ADD PUSH1 0x1 DUP3 ADD DUP1 SLOAD PUSH2 0x908 SWAP1 PUSH2 0x1110 JUMP JUMPDEST DUP1 PUSH1 0x1F ADD PUSH1 0x20 DUP1 SWAP2 DIV MUL PUSH1 0x20 ADD PUSH1 0x40 MLOAD SWAP1 DUP2 ADD PUSH1 0x40 MSTORE DUP1 SWAP3 SWAP2 SWAP1 DUP2 DUP2 MSTORE PUSH1 0x20 ADD DUP3 DUP1 SLOAD PUSH2 0x934 SWAP1 PUSH2 0x1110 JUMP JUMPDEST DUP1 ISZERO PUSH2 0x981 JUMPI DUP1 PUSH1 0x1F LT PUSH2 0x956 JUMPI PUSH2 0x100 DUP1 DUP4 SLOAD DIV MUL DUP4 MSTORE SWAP2 PUSH1 0x20 ADD SWAP2 PUSH2 0x981 JUMP JUMPDEST DUP3 ADD SWAP2 SWAP1 PUSH1 0x0 MSTORE PUSH1 0x20 PUSH1 0x0 KECCAK256 SWAP1 JUMPDEST DUP2 SLOAD DUP2 MSTORE SWAP1 PUSH1 0x1 ADD SWAP1 PUSH1 0x20 ADD DUP1 DUP4 GT PUSH2 0x964 JUMPI DUP3 SWAP1 SUB PUSH1 0x1F AND DUP3 ADD SWAP2 JUMPDEST POP POP POP POP POP DUP2 MSTORE PUSH1 0x20 ADD PUSH1 0x2 DUP3 ADD DUP1 SLOAD PUSH2 0x99A SWAP1 PUSH2 0x1110 JUMP JUMPDEST DUP1 PUSH1 0x1F ADD PUSH1 0x20 DUP1 SWAP2 DIV MUL PUSH1 0x20 ADD PUSH1 0x40 MLOAD SWAP1 DUP2 ADD PUSH1 0x40 MSTORE DUP1 SWAP3 SWAP2 SWAP1 DUP2 DUP2 MSTORE PUSH1 0x20 ADD DUP3 DUP1 SLOAD PUSH2 0x9C6 SWAP1 PUSH2 0x1110 JUMP JUMPDEST DUP1 ISZERO PUSH2 0xA13 JUMPI DUP1 PUSH1 0x1F LT PUSH2 0x9E8 JUMPI PUSH2 0x100 DUP1 DUP4 SLOAD DIV MUL DUP4 MSTORE SWAP2 PUSH1 0x20 ADD SWAP2 PUSH2 0xA13 JUMP JUMPDEST DUP3 ADD SWAP2 SWAP1 PUSH1 0x0 MSTORE PUSH1 0x20 PUSH1 0x0 KECCAK256 SWAP1 JUMPDEST DUP2 SLOAD DUP2 MSTORE SWAP1 PUSH1 0x1 ADD SWAP1 PUSH1 0x20 ADD DUP1 DUP4 GT PUSH2 0x9F6 JUMPI DUP3 SWAP1 SUB PUSH1 0x1F AND DUP3 ADD SWAP2 JUMPDEST POP POP POP POP POP DUP2 MSTORE PUSH1 0x20 ADD PUSH1 0x3 DUP3 ADD PUSH1 0x0 SWAP1 SLOAD SWAP1 PUSH2 0x100 EXP SWAP1 DIV PUSH20 0xFFFFFFFFFFFFFFFFFFFFFFFFFFFFFFFFFFFFFFFF AND PUSH20 0xFFFFFFFFFFFFFFFFFFFFFFFFFFFFFFFFFFFFFFFF AND PUSH20 0xFFFFFFFFFFFFFFFFFFFFFFFFFFFFFFFFFFFFFFFF AND DUP2 MSTORE PUSH1 0x20 ADD PUSH1 0x4 DUP3 ADD SLOAD DUP2 MSTORE POP POP SWAP1 POP DUP5 DUP1 MLOAD SWAP1 PUSH1 0x20 ADD KECCAK256 DUP2 PUSH1 0x0 ADD MLOAD DUP1 MLOAD SWAP1 PUSH1 0x20 ADD KECCAK256 EQ DUP1 ISZERO PUSH2 0xAB0 JUMPI POP DUP4 DUP1 MLOAD SWAP1 PUSH1 0x20 ADD KECCAK256 DUP2 PUSH1 0x20 ADD MLOAD DUP1 MLOAD SWAP1 PUSH1 0x20 ADD KECCAK256 EQ JUMPDEST DUP1 ISZERO PUSH2 0xACD JUMPI POP DUP3 DUP1 MLOAD SWAP1 PUSH1 0x20 ADD KECCAK256 DUP2 PUSH1 0x40 ADD MLOAD DUP1 MLOAD SWAP1 PUSH1 0x20 ADD KECCAK256 EQ JUMPDEST SWAP2 POP POP SWAP5 SWAP4 POP POP POP POP JUMP JUMPDEST DUP3 DUP1 SLOAD PUSH2 0xAE4 SWAP1 PUSH2 0x1110 JUMP JUMPDEST SWAP1 PUSH1 0x0 MSTORE PUSH1 0x20 PUSH1 0x0 KECCAK256 SWAP1 PUSH1 0x1F ADD PUSH1 0x20 SWAP1 DIV DUP2 ADD SWAP3 DUP3 PUSH2 0xB06 JUMPI PUSH1 0x0 DUP6 SSTORE PUSH2 0xB4D JUMP JUMPDEST DUP3 PUSH1 0x1F LT PUSH2 0xB1F JUMPI DUP1 MLOAD PUSH1 0xFF NOT AND DUP4 DUP1 ADD OR DUP6 SSTORE PUSH2 0xB4D JUMP JUMPDEST DUP3 DUP1 ADD PUSH1 0x1 ADD DUP6 SSTORE DUP3 ISZERO PUSH2 0xB4D JUMPI SWAP2 DUP3 ADD JUMPDEST DUP3 DUP2 GT ISZERO PUSH2 0xB4C JUMPI DUP3 MLOAD DUP3 SSTORE SWAP2 PUSH1 0x20 ADD SWAP2 SWAP1 PUSH1 0x1 ADD SWAP1 PUSH2 0xB31 JUMP JUMPDEST JUMPDEST POP SWAP1 POP PUSH2 0xB5A SWAP2 SWAP1 PUSH2 0xB5E JUMP JUMPDEST POP SWAP1 JUMP JUMPDEST JUMPDEST DUP1 DUP3 GT ISZERO PUSH2 0xB77 JUMPI PUSH1 0x0 DUP2 PUSH1 0x0 SWAP1 SSTORE POP PUSH1 0x1 ADD PUSH2 0xB5F JUMP JUMPDEST POP SWAP1 JUMP JUMPDEST PUSH1 0x0 PUSH1 0x40 MLOAD SWAP1 POP SWAP1 JUMP JUMPDEST PUSH1 0x0 DUP1 REVERT JUMPDEST PUSH1 0x0 DUP1 REVERT JUMPDEST PUSH1 0x0 DUP2 SWAP1 POP SWAP2 SWAP1 POP JUMP JUMPDEST PUSH2 0xBA2 DUP2 PUSH2 0xB8F JUMP JUMPDEST DUP2 EQ PUSH2 0xBAD JUMPI PUSH1 0x0 DUP1 REVERT JUMPDEST POP JUMP JUMPDEST PUSH1 0x0 DUP2 CALLDATALOAD SWAP1 POP PUSH2 0xBBF DUP2 PUSH2 0xB99 JUMP JUMPDEST SWAP3 SWAP2 POP POP JUMP JUMPDEST PUSH1 0x0 PUSH1 0x20 DUP3 DUP5 SUB SLT ISZERO PUSH2 0xBDB JUMPI PUSH2 0xBDA PUSH2 0xB85 JUMP JUMPDEST JUMPDEST PUSH1 0x0 PUSH2 0xBE9 DUP5 DUP3 DUP6 ADD PUSH2 0xBB0 JUMP JUMPDEST SWAP2 POP POP SWAP3 SWAP2 POP POP JUMP JUMPDEST PUSH1 0x0 DUP2 MLOAD SWAP1 POP SWAP2 SWAP1 POP JUMP JUMPDEST PUSH1 0x0 DUP3 DUP3 MSTORE PUSH1 0x20 DUP3 ADD SWAP1 POP SWAP3 SWAP2 POP POP JUMP JUMPDEST PUSH1 0x0 JUMPDEST DUP4 DUP2 LT ISZERO PUSH2 0xC2C JUMPI DUP1 DUP3 ADD MLOAD DUP2 DUP5 ADD MSTORE PUSH1 0x20 DUP2 ADD SWAP1 POP PUSH2 0xC11 JUMP JUMPDEST DUP4 DUP2 GT ISZERO PUSH2 0xC3B JUMPI PUSH1 0x0 DUP5 DUP5 ADD MSTORE JUMPDEST POP POP POP POP JUMP JUMPDEST PUSH1 0x0 PUSH1 0x1F NOT PUSH1 0x1F DUP4 ADD AND SWAP1 POP SWAP2 SWAP1 POP JUMP JUMPDEST PUSH1 0x0 PUSH2 0xC5D DUP3 PUSH2 0xBF2 JUMP JUMPDEST PUSH2 0xC67 DUP2 DUP6 PUSH2 0xBFD JUMP JUMPDEST SWAP4 POP PUSH2 0xC77 DUP2 DUP6 PUSH1 0x20 DUP7 ADD PUSH2 0xC0E JUMP JUMPDEST PUSH2 0xC80 DUP2 PUSH2 0xC41 JUMP JUMPDEST DUP5 ADD SWAP2 POP POP SWAP3 SWAP2 POP POP JUMP JUMPDEST PUSH1 0x0 PUSH20 0xFFFFFFFFFFFFFFFFFFFFFFFFFFFFFFFFFFFFFFFF DUP3 AND SWAP1 POP SWAP2 SWAP1 POP JUMP JUMPDEST PUSH1 0x0 PUSH2 0xCB6 DUP3 PUSH2 0xC8B JUMP JUMPDEST SWAP1 POP SWAP2 SWAP1 POP JUMP JUMPDEST PUSH2 0xCC6 DUP2 PUSH2 0xCAB JUMP JUMPDEST DUP3 MSTORE POP POP JUMP JUMPDEST PUSH2 0xCD5 DUP2 PUSH2 0xB8F JUMP JUMPDEST DUP3 MSTORE POP POP JUMP JUMPDEST PUSH1 0x0 PUSH1 0xA0 DUP3 ADD SWAP1 POP DUP2 DUP2 SUB PUSH1 0x0 DUP4 ADD MSTORE PUSH2 0xCF5 DUP2 DUP9 PUSH2 0xC52 JUMP JUMPDEST SWAP1 POP DUP2 DUP2 SUB PUSH1 0x20 DUP4 ADD MSTORE PUSH2 0xD09 DUP2 DUP8 PUSH2 0xC52 JUMP JUMPDEST SWAP1 POP DUP2 DUP2 SUB PUSH1 0x40 DUP4 ADD MSTORE PUSH2 0xD1D DUP2 DUP7 PUSH2 0xC52 JUMP JUMPDEST SWAP1 POP PUSH2 0xD2C PUSH1 0x60 DUP4 ADD DUP6 PUSH2 0xCBD JUMP JUMPDEST PUSH2 0xD39 PUSH1 0x80 DUP4 ADD DUP5 PUSH2 0xCCC JUMP JUMPDEST SWAP7 SWAP6 POP POP POP POP POP POP JUMP JUMPDEST PUSH1 0x0 DUP1 REVERT JUMPDEST PUSH1 0x0 DUP1 REVERT JUMPDEST PUSH32 0x4E487B7100000000000000000000000000000000000000000000000000000000 PUSH1 0x0 MSTORE PUSH1 0x41 PUSH1 0x4 MSTORE PUSH1 0x24 PUSH1 0x0 REVERT JUMPDEST PUSH2 0xD85 DUP3 PUSH2 0xC41 JUMP JUMPDEST DUP2 ADD DUP2 DUP2 LT PUSH8 0xFFFFFFFFFFFFFFFF DUP3 GT OR ISZERO PUSH2 0xDA4 JUMPI PUSH2 0xDA3 PUSH2 0xD4D JUMP JUMPDEST JUMPDEST DUP1 PUSH1 0x40 MSTORE POP POP POP JUMP JUMPDEST PUSH1 0x0 PUSH2 0xDB7 PUSH2 0xB7B JUMP JUMPDEST SWAP1 POP PUSH2 0xDC3 DUP3 DUP3 PUSH2 0xD7C JUMP JUMPDEST SWAP2 SWAP1 POP JUMP JUMPDEST PUSH1 0x0 PUSH8 0xFFFFFFFFFFFFFFFF DUP3 GT ISZERO PUSH2 0xDE3 JUMPI PUSH2 0xDE2 PUSH2 0xD4D JUMP JUMPDEST JUMPDEST PUSH2 0xDEC DUP3 PUSH2 0xC41 JUMP JUMPDEST SWAP1 POP PUSH1 0x20 DUP2 ADD SWAP1 POP SWAP2 SWAP1 POP JUMP JUMPDEST DUP3 DUP2 DUP4 CALLDATACOPY PUSH1 0x0 DUP4 DUP4 ADD MSTORE POP POP POP JUMP JUMPDEST PUSH1 0x0 PUSH2 0xE1B PUSH2 0xE16 DUP5 PUSH2 0xDC8 JUMP JUMPDEST PUSH2 0xDAD JUMP JUMPDEST SWAP1 POP DUP3 DUP2 MSTORE PUSH1 0x20 DUP2 ADD DUP5 DUP5 DUP5 ADD GT ISZERO PUSH2 0xE37 JUMPI PUSH2 0xE36 PUSH2 0xD48 JUMP JUMPDEST JUMPDEST PUSH2 0xE42 DUP5 DUP3 DUP6 PUSH2 0xDF9 JUMP JUMPDEST POP SWAP4 SWAP3 POP POP POP JUMP JUMPDEST PUSH1 0x0 DUP3 PUSH1 0x1F DUP4 ADD SLT PUSH2 0xE5F JUMPI PUSH2 0xE5E PUSH2 0xD43 JUMP JUMPDEST JUMPDEST DUP2 CALLDATALOAD PUSH2 0xE6F DUP5 DUP3 PUSH1 0x20 DUP7 ADD PUSH2 0xE08 JUMP JUMPDEST SWAP2 POP POP SWAP3 SWAP2 POP POP JUMP JUMPDEST PUSH1 0x0 DUP1 PUSH1 0x0 PUSH1 0x60 DUP5 DUP7 SUB SLT ISZERO PUSH2 0xE91 JUMPI PUSH2 0xE90 PUSH2 0xB85 JUMP JUMPDEST JUMPDEST PUSH1 0x0 DUP5 ADD CALLDATALOAD PUSH8 0xFFFFFFFFFFFFFFFF DUP2 GT ISZERO PUSH2 0xEAF JUMPI PUSH2 0xEAE PUSH2 0xB8A JUMP JUMPDEST JUMPDEST PUSH2 0xEBB DUP7 DUP3 DUP8 ADD PUSH2 0xE4A JUMP JUMPDEST SWAP4 POP POP PUSH1 0x20 DUP5 ADD CALLDATALOAD PUSH8 0xFFFFFFFFFFFFFFFF DUP2 GT ISZERO PUSH2 0xEDC JUMPI PUSH2 0xEDB PUSH2 0xB8A JUMP JUMPDEST JUMPDEST PUSH2 0xEE8 DUP7 DUP3 DUP8 ADD PUSH2 0xE4A JUMP JUMPDEST SWAP3 POP POP PUSH1 0x40 DUP5 ADD CALLDATALOAD PUSH8 0xFFFFFFFFFFFFFFFF DUP2 GT ISZERO PUSH2 0xF09 JUMPI PUSH2 0xF08 PUSH2 0xB8A JUMP JUMPDEST JUMPDEST PUSH2 0xF15 DUP7 DUP3 DUP8 ADD PUSH2 0xE4A JUMP JUMPDEST SWAP2 POP POP SWAP3 POP SWAP3 POP SWAP3 JUMP JUMPDEST PUSH1 0x0 PUSH1 0x20 DUP3 ADD SWAP1 POP PUSH2 0xF34 PUSH1 0x0 DUP4 ADD DUP5 PUSH2 0xCBD JUMP JUMPDEST SWAP3 SWAP2 POP POP JUMP JUMPDEST PUSH1 0x0 PUSH1 0x20 DUP3 ADD SWAP1 POP PUSH2 0xF4F PUSH1 0x0 DUP4 ADD DUP5 PUSH2 0xCCC JUMP JUMPDEST SWAP3 SWAP2 POP POP JUMP JUMPDEST PUSH1 0x0 DUP1 PUSH1 0x0 DUP1 PUSH1 0x80 DUP6 DUP8 SUB SLT ISZERO PUSH2 0xF6F JUMPI PUSH2 0xF6E PUSH2 0xB85 JUMP JUMPDEST JUMPDEST PUSH1 0x0 PUSH2 0xF7D DUP8 DUP3 DUP9 ADD PUSH2 0xBB0 JUMP JUMPDEST SWAP5 POP POP PUSH1 0x20 DUP6 ADD CALLDATALOAD PUSH8 0xFFFFFFFFFFFFFFFF DUP2 GT ISZERO PUSH2 0xF9E JUMPI PUSH2 0xF9D PUSH2 0xB8A JUMP JUMPDEST JUMPDEST PUSH2 0xFAA DUP8 DUP3 DUP9 ADD PUSH2 0xE4A JUMP JUMPDEST SWAP4 POP POP PUSH1 0x40 DUP6 ADD CALLDATALOAD PUSH8 0xFFFFFFFFFFFFFFFF DUP2 GT ISZERO PUSH2 0xFCB JUMPI PUSH2 0xFCA PUSH2 0xB8A JUMP JUMPDEST JUMPDEST PUSH2 0xFD7 DUP8 DUP3 DUP9 ADD PUSH2 0xE4A JUMP JUMPDEST SWAP3 POP POP PUSH1 0x60 DUP6 ADD CALLDATALOAD PUSH8 0xFFFFFFFFFFFFFFFF DUP2 GT ISZERO PUSH2 0xFF8 JUMPI PUSH2 0xFF7 PUSH2 0xB8A JUMP JUMPDEST JUMPDEST PUSH2 0x1004 DUP8 DUP3 DUP9 ADD PUSH2 0xE4A JUMP JUMPDEST SWAP2 POP POP SWAP3 SWAP6 SWAP2 SWAP5 POP SWAP3 POP JUMP JUMPDEST PUSH1 0x0 DUP2 ISZERO ISZERO SWAP1 POP SWAP2 SWAP1 POP JUMP JUMPDEST PUSH2 0x1025 DUP2 PUSH2 0x1010 JUMP JUMPDEST DUP3 MSTORE POP POP JUMP JUMPDEST PUSH1 0x0 PUSH1 0x20 DUP3 ADD SWAP1 POP PUSH2 0x1040 PUSH1 0x0 DUP4 ADD DUP5 PUSH2 0x101C JUMP JUMPDEST SWAP3 SWAP2 POP POP JUMP JUMPDEST PUSH32 0x496E646578206F7574206F6620626F756E647300000000000000000000000000 PUSH1 0x0 DUP3 ADD MSTORE POP JUMP JUMPDEST PUSH1 0x0 PUSH2 0x107C PUSH1 0x13 DUP4 PUSH2 0xBFD JUMP JUMPDEST SWAP2 POP PUSH2 0x1087 DUP3 PUSH2 0x1046 JUMP JUMPDEST PUSH1 0x20 DUP3 ADD SWAP1 POP SWAP2 SWAP1 POP JUMP JUMPDEST PUSH1 0x0 PUSH1 0x20 DUP3 ADD SWAP1 POP DUP2 DUP2 SUB PUSH1 0x0 DUP4 ADD MSTORE PUSH2 0x10AB DUP2 PUSH2 0x106F JUMP JUMPDEST SWAP1 POP SWAP2 SWAP1 POP JUMP JUMPDEST PUSH32 0x4E487B7100000000000000000000000000000000000000000000000000000000 PUSH1 0x0 MSTORE PUSH1 0x32 PUSH1 0x4 MSTORE PUSH1 0x24 PUSH1 0x0 REVERT JUMPDEST PUSH32 0x4E487B7100000000000000000000000000000000000000000000000000000000 PUSH1 0x0 MSTORE PUSH1 0x22 PUSH1 0x4 MSTORE PUSH1 0x24 PUSH1 0x0 REVERT JUMPDEST PUSH1 0x0 PUSH1 0x2 DUP3 DIV SWAP1 POP PUSH1 0x1 DUP3 AND DUP1 PUSH2 0x1128 JUMPI PUSH1 0x7F DUP3 AND SWAP2 POP JUMPDEST PUSH1 0x20 DUP3 LT DUP2 EQ ISZERO PUSH2 0x113C JUMPI PUSH2 0x113B PUSH2 0x10E1 JUMP JUMPDEST JUMPDEST POP SWAP2 SWAP1 POP JUMP JUMPDEST PUSH32 0x4F6E6C79206F776E65722063616E2063616C6C20746869732066756E6374696F PUSH1 0x0 DUP3 ADD MSTORE PUSH32 0x6E00000000000000000000000000000000000000000000000000000000000000 PUSH1 0x20 DUP3 ADD MSTORE POP JUMP JUMPDEST PUSH1 0x0 PUSH2 0x119E PUSH1 0x21 DUP4 PUSH2 0xBFD JUMP JUMPDEST SWAP2 POP PUSH2 0x11A9 DUP3 PUSH2 0x1142 JUMP JUMPDEST PUSH1 0x40 DUP3 ADD SWAP1 POP SWAP2 SWAP1 POP JUMP JUMPDEST PUSH1 0x0 PUSH1 0x20 DUP3 ADD SWAP1 POP DUP2 DUP2 SUB PUSH1 0x0 DUP4 ADD MSTORE PUSH2 0x11CD DUP2 PUSH2 0x1191 JUMP JUMPDEST SWAP1 POP SWAP2 SWAP1 POP JUMP INVALID LOG2 PUSH5 0x6970667358 0x22 SLT KECCAK256 RETURNDATASIZE PUSH3 0x538EEE PUSH29 0x9E9479B8FAD1262AB5ECDB507EE9A1FF6468ABF52D5CB19379C364736F PUSH13 0x634300080C0033000000000000 "
	},
	"Assembly": ".code\n  PUSH 80\t\t\tcontract Attendance {\\r\\n    s...\n  PUSH 40\t\t\tcontract Attendance {\\r\\n    s...\n  MSTORE \t\t\tcontract Attendance {\\r\\n    s...\n  CALLVALUE \t\t\tconstructor() {\\r\\n        own...\n  DUP1 \t\t\tconstructor() {\\r\\n        own...\n  ISZERO \t\t\tconstructor() {\\r\\n        own...\n  PUSH [tag] 1\t\t\tconstructor() {\\r\\n        own...\n  JUMPI \t\t\tconstructor() {\\r\\n        own...\n  PUSH 0\t\t\tconstructor() {\\r\\n        own...\n  DUP1 \t\t\tconstructor() {\\r\\n        own...\n  REVERT \t\t\tconstructor() {\\r\\n        own...\ntag 1\t\t\tconstructor() {\\r\\n        own...\n  JUMPDEST \t\t\tconstructor() {\\r\\n        own...\n  POP \t\t\tconstructor() {\\r\\n        own...\n  CALLER \t\t\tmsg.sender\n  PUSH 1\t\t\towner\n  PUSH 0\t\t\towner\n  PUSH 100\t\t\towner = msg.sender\n  EXP \t\t\towner = msg.sender\n  DUP2 \t\t\towner = msg.sender\n  SLOAD \t\t\towner = msg.sender\n  DUP2 \t\t\towner = msg.sender\n  PUSH FFFFFFFFFFFFFFFFFFFFFFFFFFFFFFFFFFFFFFFF\t\t\towner = msg.sender\n  MUL \t\t\towner = msg.sender\n  NOT \t\t\towner = msg.sender\n  AND \t\t\towner = msg.sender\n  SWAP1 \t\t\towner = msg.sender\n  DUP4 \t\t\towner = msg.sender\n  PUSH FFFFFFFFFFFFFFFFFFFFFFFFFFFFFFFFFFFFFFFF\t\t\towner = msg.sender\n  AND \t\t\towner = msg.sender\n  MUL \t\t\towner = msg.sender\n  OR \t\t\towner = msg.sender\n  SWAP1 \t\t\towner = msg.sender\n  SSTORE \t\t\towner = msg.sender\n  POP \t\t\towner = msg.sender\n  PUSH #[$] 0000000000000000000000000000000000000000000000000000000000000000\t\t\tcontract Attendance {\\r\\n    s...\n  DUP1 \t\t\tcontract Attendance {\\r\\n    s...\n  PUSH [$] 0000000000000000000000000000000000000000000000000000000000000000\t\t\tcontract Attendance {\\r\\n    s...\n  PUSH 0\t\t\tcontract Attendance {\\r\\n    s...\n  CODECOPY \t\t\tcontract Attendance {\\r\\n    s...\n  PUSH 0\t\t\tcontract Attendance {\\r\\n    s...\n  RETURN \t\t\tcontract Attendance {\\r\\n    s...\n.data\n  0:\n    .code\n      PUSH 80\t\t\tcontract Attendance {\\r\\n    s...\n      PUSH 40\t\t\tcontract Attendance {\\r\\n    s...\n      MSTORE \t\t\tcontract Attendance {\\r\\n    s...\n      CALLVALUE \t\t\tcontract Attendance {\\r\\n    s...\n      DUP1 \t\t\tcontract Attendance {\\r\\n    s...\n      ISZERO \t\t\tcontract Attendance {\\r\\n    s...\n      PUSH [tag] 1\t\t\tcontract Attendance {\\r\\n    s...\n      JUMPI \t\t\tcontract Attendance {\\r\\n    s...\n      PUSH 0\t\t\tcontract Attendance {\\r\\n    s...\n      DUP1 \t\t\tcontract Attendance {\\r\\n    s...\n      REVERT \t\t\tcontract Attendance {\\r\\n    s...\n    tag 1\t\t\tcontract Attendance {\\r\\n    s...\n      JUMPDEST \t\t\tcontract Attendance {\\r\\n    s...\n      POP \t\t\tcontract Attendance {\\r\\n    s...\n      PUSH 4\t\t\tcontract Attendance {\\r\\n    s...\n      CALLDATASIZE \t\t\tcontract Attendance {\\r\\n    s...\n      LT \t\t\tcontract Attendance {\\r\\n    s...\n      PUSH [tag] 2\t\t\tcontract Attendance {\\r\\n    s...\n      JUMPI \t\t\tcontract Attendance {\\r\\n    s...\n      PUSH 0\t\t\tcontract Attendance {\\r\\n    s...\n      CALLDATALOAD \t\t\tcontract Attendance {\\r\\n    s...\n      PUSH E0\t\t\tcontract Attendance {\\r\\n    s...\n      SHR \t\t\tcontract Attendance {\\r\\n    s...\n      DUP1 \t\t\tcontract Attendance {\\r\\n    s...\n      PUSH 3E9E609\t\t\tcontract Attendance {\\r\\n    s...\n      EQ \t\t\tcontract Attendance {\\r\\n    s...\n      PUSH [tag] 3\t\t\tcontract Attendance {\\r\\n    s...\n      JUMPI \t\t\tcontract Attendance {\\r\\n    s...\n      DUP1 \t\t\tcontract Attendance {\\r\\n    s...\n      PUSH 34461067\t\t\tcontract Attendance {\\r\\n    s...\n      EQ \t\t\tcontract Attendance {\\r\\n    s...\n      PUSH [tag] 4\t\t\tcontract Attendance {\\r\\n    s...\n      JUMPI \t\t\tcontract Attendance {\\r\\n    s...\n      DUP1 \t\t\tcontract Attendance {\\r\\n    s...\n      PUSH 3F723C62\t\t\tcontract Attendance {\\r\\n    s...\n      EQ \t\t\tcontract Attendance {\\r\\n    s...\n      PUSH [tag] 5\t\t\tcontract Attendance {\\r\\n    s...\n      JUMPI \t\t\tcontract Attendance {\\r\\n    s...\n      DUP1 \t\t\tcontract Attendance {\\r\\n    s...\n      PUSH 8DA5CB5B\t\t\tcontract Attendance {\\r\\n    s...\n      EQ \t\t\tcontract Attendance {\\r\\n    s...\n      PUSH [tag] 6\t\t\tcontract Attendance {\\r\\n    s...\n      JUMPI \t\t\tcontract Attendance {\\r\\n    s...\n      DUP1 \t\t\tcontract Attendance {\\r\\n    s...\n      PUSH CA267F28\t\t\tcontract Attendance {\\r\\n    s...\n      EQ \t\t\tcontract Attendance {\\r\\n    s...\n      PUSH [tag] 7\t\t\tcontract Attendance {\\r\\n    s...\n      JUMPI \t\t\tcontract Attendance {\\r\\n    s...\n      DUP1 \t\t\tcontract Attendance {\\r\\n    s...\n      PUSH F6C61F45\t\t\tcontract Attendance {\\r\\n    s...\n      EQ \t\t\tcontract Attendance {\\r\\n    s...\n      PUSH [tag] 8\t\t\tcontract Attendance {\\r\\n    s...\n      JUMPI \t\t\tcontract Attendance {\\r\\n    s...\n    tag 2\t\t\tcontract Attendance {\\r\\n    s...\n      JUMPDEST \t\t\tcontract Attendance {\\r\\n    s...\n      PUSH 0\t\t\tcontract Attendance {\\r\\n    s...\n      DUP1 \t\t\tcontract Attendance {\\r\\n    s...\n      REVERT \t\t\tcontract Attendance {\\r\\n    s...\n    tag 3\t\t\tfunction getRecord(uint256 ind...\n      JUMPDEST \t\t\tfunction getRecord(uint256 ind...\n      PUSH [tag] 9\t\t\tfunction getRecord(uint256 ind...\n      PUSH 4\t\t\tfunction getRecord(uint256 ind...\n      DUP1 \t\t\tfunction getRecord(uint256 ind...\n      CALLDATASIZE \t\t\tfunction getRecord(uint256 ind...\n      SUB \t\t\tfunction getRecord(uint256 ind...\n      DUP2 \t\t\tfunction getRecord(uint256 ind...\n      ADD \t\t\tfunction getRecord(uint256 ind...\n      SWAP1 \t\t\tfunction getRecord(uint256 ind...\n      PUSH [tag] 10\t\t\tfunction getRecord(uint256 ind...\n      SWAP2 \t\t\tfunction getRecord(uint256 ind...\n      SWAP1 \t\t\tfunction getRecord(uint256 ind...\n      PUSH [tag] 11\t\t\tfunction getRecord(uint256 ind...\n      JUMP [in]\t\t\tfunction getRecord(uint256 ind...\n    tag 10\t\t\tfunction getRecord(uint256 ind...\n      JUMPDEST \t\t\tfunction getRecord(uint256 ind...\n      PUSH [tag] 12\t\t\tfunction getRecord(uint256 ind...\n      JUMP [in]\t\t\tfunction getRecord(uint256 ind...\n    tag 9\t\t\tfunction getRecord(uint256 ind...\n      JUMPDEST \t\t\tfunction getRecord(uint256 ind...\n      PUSH 40\t\t\tfunction getRecord(uint256 ind...\n      MLOAD \t\t\tfunction getRecord(uint256 ind...\n      PUSH [tag] 13\t\t\tfunction getRecord(uint256 ind...\n      SWAP6 \t\t\tfunction getRecord(uint256 ind...\n      SWAP5 \t\t\tfunction getRecord(uint256 ind...\n      SWAP4 \t\t\tfunction getRecord(uint256 ind...\n      SWAP3 \t\t\tfunction getRecord(uint256 ind...\n      SWAP2 \t\t\tfunction getRecord(uint256 ind...\n      SWAP1 \t\t\tfunction getRecord(uint256 ind...\n      PUSH [tag] 14\t\t\tfunction getRecord(uint256 ind...\n      JUMP [in]\t\t\tfunction getRecord(uint256 ind...\n    tag 13\t\t\tfunction getRecord(uint256 ind...\n      JUMPDEST \t\t\tfunction getRecord(uint256 ind...\n      PUSH 40\t\t\tfunction getRecord(uint256 ind...\n      MLOAD \t\t\tfunction getRecord(uint256 ind...\n      DUP1 \t\t\tfunction getRecord(uint256 ind...\n      SWAP2 \t\t\tfunction getRecord(uint256 ind...\n      SUB \t\t\tfunction getRecord(uint256 ind...\n      SWAP1 \t\t\tfunction getRecord(uint256 ind...\n      RETURN \t\t\tfunction getRecord(uint256 ind...\n    tag 4\t\t\tRecord[] public records\n      JUMPDEST \t\t\tRecord[] public records\n      PUSH [tag] 15\t\t\tRecord[] public records\n      PUSH 4\t\t\tRecord[] public records\n      DUP1 \t\t\tRecord[] public records\n      CALLDATASIZE \t\t\tRecord[] public records\n      SUB \t\t\tRecord[] public records\n      DUP2 \t\t\tRecord[] public records\n      ADD \t\t\tRecord[] public records\n      SWAP1 \t\t\tRecord[] public records\n      PUSH [tag] 16\t\t\tRecord[] public records\n      SWAP2 \t\t\tRecord[] public records\n      SWAP1 \t\t\tRecord[] public records\n      PUSH [tag] 11\t\t\tRecord[] public records\n      JUMP [in]\t\t\tRecord[] public records\n    tag 16\t\t\tRecord[] public records\n      JUMPDEST \t\t\tRecord[] public records\n      PUSH [tag] 17\t\t\tRecord[] public records\n      JUMP [in]\t\t\tRecord[] public records\n    tag 15\t\t\tRecord[] public records\n      JUMPDEST \t\t\tRecord[] public records\n      PUSH 40\t\t\tRecord[] public records\n      MLOAD \t\t\tRecord[] public records\n      PUSH [tag] 18\t\t\tRecord[] public records\n      SWAP6 \t\t\tRecord[] public records\n      SWAP5 \t\t\tRecord[] public records\n      SWAP4 \t\t\tRecord[] public records\n      SWAP3 \t\t\tRecord[] public records\n      SWAP2 \t\t\tRecord[] public records\n      SWAP1 \t\t\tRecord[] public records\n      PUSH [tag] 14\t\t\tRecord[] public records\n      JUMP [in]\t\t\tRecord[] public records\n    tag 18\t\t\tRecord[] public records\n      JUMPDEST \t\t\tRecord[] public records\n      PUSH 40\t\t\tRecord[] public records\n      MLOAD \t\t\tRecord[] public records\n      DUP1 \t\t\tRecord[] public records\n      SWAP2 \t\t\tRecord[] public records\n      SUB \t\t\tRecord[] public records\n      SWAP1 \t\t\tRecord[] public records\n      RETURN \t\t\tRecord[] public records\n    tag 5\t\t\tfunction addRecord(\\r\\n       ...\n      JUMPDEST \t\t\tfunction addRecord(\\r\\n       ...\n      PUSH [tag] 19\t\t\tfunction addRecord(\\r\\n       ...\n      PUSH 4\t\t\tfunction addRecord(\\r\\n       ...\n      DUP1 \t\t\tfunction addRecord(\\r\\n       ...\n      CALLDATASIZE \t\t\tfunction addRecord(\\r\\n       ...\n      SUB \t\t\tfunction addRecord(\\r\\n       ...\n      DUP2 \t\t\tfunction addRecord(\\r\\n       ...\n      ADD \t\t\tfunction addRecord(\\r\\n       ...\n      SWAP1 \t\t\tfunction addRecord(\\r\\n       ...\n      PUSH [tag] 20\t\t\tfunction addRecord(\\r\\n       ...\n      SWAP2 \t\t\tfunction addRecord(\\r\\n       ...\n      SWAP1 \t\t\tfunction addRecord(\\r\\n       ...\n      PUSH [tag] 21\t\t\tfunction addRecord(\\r\\n       ...\n      JUMP [in]\t\t\tfunction addRecord(\\r\\n       ...\n    tag 20\t\t\tfunction addRecord(\\r\\n       ...\n      JUMPDEST \t\t\tfunction addRecord(\\r\\n       ...\n      PUSH [tag] 22\t\t\tfunction addRecord(\\r\\n       ...\n      JUMP [in]\t\t\tfunction addRecord(\\r\\n       ...\n    tag 19\t\t\tfunction addRecord(\\r\\n       ...\n      JUMPDEST \t\t\tfunction addRecord(\\r\\n       ...\n      STOP \t\t\tfunction addRecord(\\r\\n       ...\n    tag 6\t\t\taddress public owner\n      JUMPDEST \t\t\taddress public owner\n      PUSH [tag] 23\t\t\taddress public owner\n      PUSH [tag] 24\t\t\taddress public owner\n      JUMP [in]\t\t\taddress public owner\n    tag 23\t\t\taddress public owner\n      JUMPDEST \t\t\taddress public owner\n      PUSH 40\t\t\taddress public owner\n      MLOAD \t\t\taddress public owner\n      PUSH [tag] 25\t\t\taddress public owner\n      SWAP2 \t\t\taddress public owner\n      SWAP1 \t\t\taddress public owner\n      PUSH [tag] 26\t\t\taddress public owner\n      JUMP [in]\t\t\taddress public owner\n    tag 25\t\t\taddress public owner\n      JUMPDEST \t\t\taddress public owner\n      PUSH 40\t\t\taddress public owner\n      MLOAD \t\t\taddress public owner\n      DUP1 \t\t\taddress public owner\n      SWAP2 \t\t\taddress public owner\n      SUB \t\t\taddress public owner\n      SWAP1 \t\t\taddress public owner\n      RETURN \t\t\taddress public owner\n    tag 7\t\t\tfunction getRecordCount() publ...\n      JUMPDEST \t\t\tfunction getRecordCount() publ...\n      PUSH [tag] 27\t\t\tfunction getRecordCount() publ...\n      PUSH [tag] 28\t\t\tfunction getRecordCount() publ...\n      JUMP [in]\t\t\tfunction getRecordCount() publ...\n    tag 27\t\t\tfunction getRecordCount() publ...\n      JUMPDEST \t\t\tfunction getRecordCount() publ...\n      PUSH 40\t\t\tfunction getRecordCount() publ...\n      MLOAD \t\t\tfunction getRecordCount() publ...\n      PUSH [tag] 29\t\t\tfunction getRecordCount() publ...\n      SWAP2 \t\t\tfunction getRecordCount() publ...\n      SWAP1 \t\t\tfunction getRecordCount() publ...\n      PUSH [tag] 30\t\t\tfunction getRecordCount() publ...\n      JUMP [in]\t\t\tfunction getRecordCount() publ...\n    tag 29\t\t\tfunction getRecordCount() publ...\n      JUMPDEST \t\t\tfunction getRecordCount() publ...\n      PUSH 40\t\t\tfunction getRecordCount() publ...\n      MLOAD \t\t\tfunction getRecordCount() publ...\n      DUP1 \t\t\tfunction getRecordCount() publ...\n      SWAP2 \t\t\tfunction getRecordCount() publ...\n      SUB \t\t\tfunction getRecordCount() publ...\n      SWAP1 \t\t\tfunction getRecordCount() publ...\n      RETURN \t\t\tfunction getRecordCount() publ...\n    tag 8\t\t\tfunction verifyRecord(\\r\\n    ...\n      JUMPDEST \t\t\tfunction verifyRecord(\\r\\n    ...\n      PUSH [tag] 31\t\t\tfunction verifyRecord(\\r\\n    ...\n      PUSH 4\t\t\tfunction verifyRecord(\\r\\n    ...\n      DUP1 \t\t\tfunction verifyRecord(\\r\\n    ...\n      CALLDATASIZE \t\t\tfunction verifyRecord(\\r\\n    ...\n      SUB \t\t\tfunction verifyRecord(\\r\\n    ...\n      DUP2 \t\t\tfunction verifyRecord(\\r\\n    ...\n      ADD \t\t\tfunction verifyRecord(\\r\\n    ...\n      SWAP1 \t\t\tfunction verifyRecord(\\r\\n    ...\n      PUSH [tag] 32\t\t\tfunction verifyRecord(\\r\\n    ...\n      SWAP2 \t\t\tfunction verifyRecord(\\r\\n    ...\n      SWAP1 \t\t\tfunction verifyRecord(\\r\\n    ...\n      PUSH [tag] 33\t\t\tfunction verifyRecord(\\r\\n    ...\n      JUMP [in]\t\t\tfunction verifyRecord(\\r\\n    ...\n    tag 32\t\t\tfunction verifyRecord(\\r\\n    ...\n      JUMPDEST \t\t\tfunction verifyRecord(\\r\\n    ...\n      PUSH [tag] 34\t\t\tfunction verifyRecord(\\r\\n    ...\n      JUMP [in]\t\t\tfunction verifyRecord(\\r\\n    ...\n    tag 31\t\t\tfunction verifyRecord(\\r\\n    ...\n      JUMPDEST \t\t\tfunction verifyRecord(\\r\\n    ...\n      PUSH 40\t\t\tfunction verifyRecord(\\r\\n    ...\n      MLOAD \t\t\tfunction verifyRecord(\\r\\n    ...\n      PUSH [tag] 35\t\t\tfunction verifyRecord(\\r\\n    ...\n      SWAP2 \t\t\tfunction verifyRecord(\\r\\n    ...\n      SWAP1 \t\t\tfunction verifyRecord(\\r\\n    ...\n      PUSH [tag] 36\t\t\tfunction verifyRecord(\\r\\n    ...\n      JUMP [in]\t\t\tfunction verifyRecord(\\r\\n    ...\n    tag 35\t\t\tfunction verifyRecord(\\r\\n    ...\n      JUMPDEST \t\t\tfunction verifyRecord(\\r\\n    ...\n      PUSH 40\t\t\tfunction verifyRecord(\\r\\n    ...\n      MLOAD \t\t\tfunction verifyRecord(\\r\\n    ...\n      DUP1 \t\t\tfunction verifyRecord(\\r\\n    ...\n      SWAP2 \t\t\tfunction verifyRecord(\\r\\n    ...\n      SUB \t\t\tfunction verifyRecord(\\r\\n    ...\n      SWAP1 \t\t\tfunction verifyRecord(\\r\\n    ...\n      RETURN \t\t\tfunction verifyRecord(\\r\\n    ...\n    tag 12\t\t\tfunction getRecord(uint256 ind...\n      JUMPDEST \t\t\tfunction getRecord(uint256 ind...\n      PUSH 60\t\t\tstring memory\n      DUP1 \t\t\tstring memory\n      PUSH 60\t\t\tstring memory\n      PUSH 0\t\t\taddress\n      DUP1 \t\t\tuint256\n      PUSH 0\t\t\trecords\n      DUP1 \t\t\trecords.length\n      SLOAD \t\t\trecords.length\n      SWAP1 \t\t\trecords.length\n      POP \t\t\trecords.length\n      DUP7 \t\t\tindex\n      LT \t\t\tindex < records.length\n      PUSH [tag] 38\t\t\trequire(index < records.length...\n      JUMPI \t\t\trequire(index < records.length...\n      PUSH 40\t\t\trequire(index < records.length...\n      MLOAD \t\t\trequire(index < records.length...\n      PUSH 8C379A000000000000000000000000000000000000000000000000000000000\t\t\trequire(index < records.length...\n      DUP2 \t\t\trequire(index < records.length...\n      MSTORE \t\t\trequire(index < records.length...\n      PUSH 4\t\t\trequire(index < records.length...\n      ADD \t\t\trequire(index < records.length...\n      PUSH [tag] 39\t\t\trequire(index < records.length...\n      SWAP1 \t\t\trequire(index < records.length...\n      PUSH [tag] 40\t\t\trequire(index < records.length...\n      JUMP [in]\t\t\trequire(index < records.length...\n    tag 39\t\t\trequire(index < records.length...\n      JUMPDEST \t\t\trequire(index < records.length...\n      PUSH 40\t\t\trequire(index < records.length...\n      MLOAD \t\t\trequire(index < records.length...\n      DUP1 \t\t\trequire(index < records.length...\n      SWAP2 \t\t\trequire(index < records.length...\n      SUB \t\t\trequire(index < records.length...\n      SWAP1 \t\t\trequire(index < records.length...\n      REVERT \t\t\trequire(index < records.length...\n    tag 38\t\t\trequire(index < records.length...\n      JUMPDEST \t\t\trequire(index < records.length...\n      PUSH 0\t\t\tRecord memory record\n      DUP1 \t\t\trecords\n      DUP8 \t\t\tindex\n      DUP2 \t\t\trecords[index]\n      SLOAD \t\t\trecords[index]\n      DUP2 \t\t\trecords[index]\n      LT \t\t\trecords[index]\n      PUSH [tag] 41\t\t\trecords[index]\n      JUMPI \t\t\trecords[index]\n      PUSH [tag] 42\t\t\trecords[index]\n      PUSH [tag] 43\t\t\trecords[index]\n      JUMP [in]\t\t\trecords[index]\n    tag 42\t\t\trecords[index]\n      JUMPDEST \t\t\trecords[index]\n    tag 41\t\t\trecords[index]\n      JUMPDEST \t\t\trecords[index]\n      SWAP1 \t\t\trecords[index]\n      PUSH 0\t\t\trecords[index]\n      MSTORE \t\t\trecords[index]\n      PUSH 20\t\t\trecords[index]\n      PUSH 0\t\t\trecords[index]\n      KECCAK256 \t\t\trecords[index]\n      SWAP1 \t\t\trecords[index]\n      PUSH 5\t\t\trecords[index]\n      MUL \t\t\trecords[index]\n      ADD \t\t\trecords[index]\n      PUSH 40\t\t\tRecord memory record = records...\n      MLOAD \t\t\tRecord memory record = records...\n      DUP1 \t\t\tRecord memory record = records...\n      PUSH A0\t\t\tRecord memory record = records...\n      ADD \t\t\tRecord memory record = records...\n      PUSH 40\t\t\tRecord memory record = records...\n      MSTORE \t\t\tRecord memory record = records...\n      SWAP1 \t\t\tRecord memory record = records...\n      DUP2 \t\t\tRecord memory record = records...\n      PUSH 0\t\t\tRecord memory record = records...\n      DUP3 \t\t\tRecord memory record = records...\n      ADD \t\t\tRecord memory record = records...\n      DUP1 \t\t\tRecord memory record = records...\n      SLOAD \t\t\tRecord memory record = records...\n      PUSH [tag] 45\t\t\tRecord memory record = records...\n      SWAP1 \t\t\tRecord memory record = records...\n      PUSH [tag] 46\t\t\tRecord memory record = records...\n      JUMP [in]\t\t\tRecord memory record = records...\n    tag 45\t\t\tRecord memory record = records...\n      JUMPDEST \t\t\tRecord memory record = records...\n      DUP1 \t\t\tRecord memory record = records...\n      PUSH 1F\t\t\tRecord memory record = records...\n      ADD \t\t\tRecord memory record = records...\n      PUSH 20\t\t\tRecord memory record = records...\n      DUP1 \t\t\tRecord memory record = records...\n      SWAP2 \t\t\tRecord memory record = records...\n      DIV \t\t\tRecord memory record = records...\n      MUL \t\t\tRecord memory record = records...\n      PUSH 20\t\t\tRecord memory record = records...\n      ADD \t\t\tRecord memory record = records...\n      PUSH 40\t\t\tRecord memory record = records...\n      MLOAD \t\t\tRecord memory record = records...\n      SWAP1 \t\t\tRecord memory record = records...\n      DUP2 \t\t\tRecord memory record = records...\n      ADD \t\t\tRecord memory record = records...\n      PUSH 40\t\t\tRecord memory record = records...\n      MSTORE \t\t\tRecord memory record = records...\n      DUP1 \t\t\tRecord memory record = records...\n      SWAP3 \t\t\tRecord memory record = records...\n      SWAP2 \t\t\tRecord memory record = records...\n      SWAP1 \t\t\tRecord memory record = records...\n      DUP2 \t\t\tRecord memory record = records...\n      DUP2 \t\t\tRecord memory record = records...\n      MSTORE \t\t\tRecord memory record = records...\n      PUSH 20\t\t\tRecord memory record = records...\n      ADD \t\t\tRecord memory record = records...\n      DUP3 \t\t\tRecord memory record = records...\n      DUP1 \t\t\tRecord memory record = records...\n      SLOAD \t\t\tRecord memory record = records...\n      PUSH [tag] 47\t\t\tRecord memory record = records...\n      SWAP1 \t\t\tRecord memory record = records...\n      PUSH [tag] 46\t\t\tRecord memory record = records...\n      JUMP [in]\t\t\tRecord memory record = records...\n    tag 47\t\t\tRecord memory record = records...\n      JUMPDEST \t\t\tRecord memory record = records...\n      DUP1 \t\t\tRecord memory record = records...\n      ISZERO \t\t\tRecord memory record = records...\n      PUSH [tag] 48\t\t\tRecord memory record = records...\n      JUMPI \t\t\tRecord memory record = records...\n      DUP1 \t\t\tRecord memory record = records...\n      PUSH 1F\t\t\tRecord memory record = records...\n      LT \t\t\tRecord memory record = records...\n      PUSH [tag] 49\t\t\tRecord memory record = records...\n      JUMPI \t\t\tRecord memory record = records...\n      PUSH 100\t\t\tRecord memory record = records...\n      DUP1 \t\t\tRecord memory record = records...\n      DUP4 \t\t\tRecord memory record = records...\n      SLOAD \t\t\tRecord memory record = records...\n      DIV \t\t\tRecord memory record = records...\n      MUL \t\t\tRecord memory record = records...\n      DUP4 \t\t\tRecord memory record = records...\n      MSTORE \t\t\tRecord memory record = records...\n      SWAP2 \t\t\tRecord memory record = records...\n      PUSH 20\t\t\tRecord memory record = records...\n      ADD \t\t\tRecord memory record = records...\n      SWAP2 \t\t\tRecord memory record = records...\n      PUSH [tag] 48\t\t\tRecord memory record = records...\n      JUMP \t\t\tRecord memory record = records...\n    tag 49\t\t\tRecord memory record = records...\n      JUMPDEST \t\t\tRecord memory record = records...\n      DUP3 \t\t\tRecord memory record = records...\n      ADD \t\t\tRecord memory record = records...\n      SWAP2 \t\t\tRecord memory record = records...\n      SWAP1 \t\t\tRecord memory record = records...\n      PUSH 0\t\t\tRecord memory record = records...\n      MSTORE \t\t\tRecord memory record = records...\n      PUSH 20\t\t\tRecord memory record = records...\n      PUSH 0\t\t\tRecord memory record = records...\n      KECCAK256 \t\t\tRecord memory record = records...\n      SWAP1 \t\t\tRecord memory record = records...\n    tag 50\t\t\tRecord memory record = records...\n      JUMPDEST \t\t\tRecord memory record = records...\n      DUP2 \t\t\tRecord memory record = records...\n      SLOAD \t\t\tRecord memory record = records...\n      DUP2 \t\t\tRecord memory record = records...\n      MSTORE \t\t\tRecord memory record = records...\n      SWAP1 \t\t\tRecord memory record = records...\n      PUSH 1\t\t\tRecord memory record = records...\n      ADD \t\t\tRecord memory record = records...\n      SWAP1 \t\t\tRecord memory record = records...\n      PUSH 20\t\t\tRecord memory record = records...\n      ADD \t\t\tRecord memory record = records...\n      DUP1 \t\t\tRecord memory record = records...\n      DUP4 \t\t\tRecord memory record = records...\n      GT \t\t\tRecord memory record = records...\n      PUSH [tag] 50\t\t\tRecord memory record = records...\n      JUMPI \t\t\tRecord memory record = records...\n      DUP3 \t\t\tRecord memory record = records...\n      SWAP1 \t\t\tRecord memory record = records...\n      SUB \t\t\tRecord memory record = records...\n      PUSH 1F\t\t\tRecord memory record = records...\n      AND \t\t\tRecord memory record = records...\n      DUP3 \t\t\tRecord memory record = records...\n      ADD \t\t\tRecord memory record = records...\n      SWAP2 \t\t\tRecord memory record = records...\n    tag 48\t\t\tRecord memory record = records...\n      JUMPDEST \t\t\tRecord memory record = records...\n      POP \t\t\tRecord memory record = records...\n      POP \t\t\tRecord memory record = records...\n      POP \t\t\tRecord memory record = records...\n      POP \t\t\tRecord memory record = records...\n      POP \t\t\tRecord memory record = records...\n      DUP2 \t\t\tRecord memory record = records...\n      MSTORE \t\t\tRecord memory record = records...\n      PUSH 20\t\t\tRecord memory record = records...\n      ADD \t\t\tRecord memory record = records...\n      PUSH 1\t\t\tRecord memory record = records...\n      DUP3 \t\t\tRecord memory record = records...\n      ADD \t\t\tRecord memory record = records...\n      DUP1 \t\t\tRecord memory record = records...\n      SLOAD \t\t\tRecord memory record = records...\n      PUSH [tag] 51\t\t\tRecord memory record = records...\n      SWAP1 \t\t\tRecord memory record = records...\n      PUSH [tag] 46\t\t\tRecord memory record = records...\n      JUMP [in]\t\t\tRecord memory record = records...\n    tag 51\t\t\tRecord memory record = records...\n      JUMPDEST \t\t\tRecord memory record = records...\n      DUP1 \t\t\tRecord memory record = records...\n      PUSH 1F\t\t\tRecord memory record = records...\n      ADD \t\t\tRecord memory record = records...\n      PUSH 20\t\t\tRecord memory record = records...\n      DUP1 \t\t\tRecord memory record = records...\n      SWAP2 \t\t\tRecord memory record = records...\n      DIV \t\t\tRecord memory record = records...\n      MUL \t\t\tRecord memory record = records...\n      PUSH 20\t\t\tRecord memory record = records...\n      ADD \t\t\tRecord memory record = records...\n      PUSH 40\t\t\tRecord memory record = records...\n      MLOAD \t\t\tRecord memory record = records...\n      SWAP1 \t\t\tRecord memory record = records...\n      DUP2 \t\t\tRecord memory record = records...\n      ADD \t\t\tRecord memory record = records...\n      PUSH 40\t\t\tRecord memory record = records...\n      MSTORE \t\t\tRecord memory record = records...\n      DUP1 \t\t\tRecord memory record = records...\n      SWAP3 \t\t\tRecord memory record = records...\n      SWAP2 \t\t\tRecord memory record = records...\n      SWAP1 \t\t\tRecord memory record = records...\n      DUP2 \t\t\tRecord memory record = records...\n      DUP2 \t\t\tRecord memory record = records...\n      MSTORE \t\t\tRecord memory record = records...\n      PUSH 20\t\t\tRecord memory record = records...\n      ADD \t\t\tRecord memory record = records...\n      DUP3 \t\t\tRecord memory record = records...\n      DUP1 \t\t\tRecord memory record = records...\n      SLOAD \t\t\tRecord memory record = records...\n      PUSH [tag] 52\t\t\tRecord memory record = records...\n      SWAP1 \t\t\tRecord memory record = records...\n      PUSH [tag] 46\t\t\tRecord memory record = records...\n      JUMP [in]\t\t\tRecord memory record = records...\n    tag 52\t\t\tRecord memory record = records...\n      JUMPDEST \t\t\tRecord memory record = records...\n      DUP1 \t\t\tRecord memory record = records...\n      ISZERO \t\t\tRecord memory record = records...\n      PUSH [tag] 53\t\t\tRecord memory record = records...\n      JUMPI \t\t\tRecord memory record = records...\n      DUP1 \t\t\tRecord memory record = records...\n      PUSH 1F\t\t\tRecord memory record = records...\n      LT \t\t\tRecord memory record = records...\n      PUSH [tag] 54\t\t\tRecord memory record = records...\n      JUMPI \t\t\tRecord memory record = records...\n      PUSH 100\t\t\tRecord memory record = records...\n      DUP1 \t\t\tRecord memory record = records...\n      DUP4 \t\t\tRecord memory record = records...\n      SLOAD \t\t\tRecord memory record = records...\n      DIV \t\t\tRecord memory record = records...\n      MUL \t\t\tRecord memory record = records...\n      DUP4 \t\t\tRecord memory record = records...\n      MSTORE \t\t\tRecord memory record = records...\n      SWAP2 \t\t\tRecord memory record = records...\n      PUSH 20\t\t\tRecord memory record = records...\n      ADD \t\t\tRecord memory record = records...\n      SWAP2 \t\t\tRecord memory record = records...\n      PUSH [tag] 53\t\t\tRecord memory record = records...\n      JUMP \t\t\tRecord memory record = records...\n    tag 54\t\t\tRecord memory record = records...\n      JUMPDEST \t\t\tRecord memory record = records...\n      DUP3 \t\t\tRecord memory record = records...\n      ADD \t\t\tRecord memory record = records...\n      SWAP2 \t\t\tRecord memory record = records...\n      SWAP1 \t\t\tRecord memory record = records...\n      PUSH 0\t\t\tRecord memory record = records...\n      MSTORE \t\t\tRecord memory record = records...\n      PUSH 20\t\t\tRecord memory record = records...\n      PUSH 0\t\t\tRecord memory record = records...\n      KECCAK256 \t\t\tRecord memory record = records...\n      SWAP1 \t\t\tRecord memory record = records...\n    tag 55\t\t\tRecord memory record = records...\n      JUMPDEST \t\t\tRecord memory record = records...\n      DUP2 \t\t\tRecord memory record = records...\n      SLOAD \t\t\tRecord memory record = records...\n      DUP2 \t\t\tRecord memory record = records...\n      MSTORE \t\t\tRecord memory record = records...\n      SWAP1 \t\t\tRecord memory record = records...\n      PUSH 1\t\t\tRecord memory record = records...\n      ADD \t\t\tRecord memory record = records...\n      SWAP1 \t\t\tRecord memory record = records...\n      PUSH 20\t\t\tRecord memory record = records...\n      ADD \t\t\tRecord memory record = records...\n      DUP1 \t\t\tRecord memory record = records...\n      DUP4 \t\t\tRecord memory record = records...\n      GT \t\t\tRecord memory record = records...\n      PUSH [tag] 55\t\t\tRecord memory record = records...\n      JUMPI \t\t\tRecord memory record = records...\n      DUP3 \t\t\tRecord memory record = records...\n      SWAP1 \t\t\tRecord memory record = records...\n      SUB \t\t\tRecord memory record = records...\n      PUSH 1F\t\t\tRecord memory record = records...\n      AND \t\t\tRecord memory record = records...\n      DUP3 \t\t\tRecord memory record = records...\n      ADD \t\t\tRecord memory record = records...\n      SWAP2 \t\t\tRecord memory record = records...\n    tag 53\t\t\tRecord memory record = records...\n      JUMPDEST \t\t\tRecord memory record = records...\n      POP \t\t\tRecord memory record = records...\n      POP \t\t\tRecord memory record = records...\n      POP \t\t\tRecord memory record = records...\n      POP \t\t\tRecord memory record = records...\n      POP \t\t\tRecord memory record = records...\n      DUP2 \t\t\tRecord memory record = records...\n      MSTORE \t\t\tRecord memory record = records...\n      PUSH 20\t\t\tRecord memory record = records...\n      ADD \t\t\tRecord memory record = records...\n      PUSH 2\t\t\tRecord memory record = records...\n      DUP3 \t\t\tRecord memory record = records...\n      ADD \t\t\tRecord memory record = records...\n      DUP1 \t\t\tRecord memory record = records...\n      SLOAD \t\t\tRecord memory record = records...\n      PUSH [tag] 56\t\t\tRecord memory record = records...\n      SWAP1 \t\t\tRecord memory record = records...\n      PUSH [tag] 46\t\t\tRecord memory record = records...\n      JUMP [in]\t\t\tRecord memory record = records...\n    tag 56\t\t\tRecord memory record = records...\n      JUMPDEST \t\t\tRecord memory record = records...\n      DUP1 \t\t\tRecord memory record = records...\n      PUSH 1F\t\t\tRecord memory record = records...\n      ADD \t\t\tRecord memory record = records...\n      PUSH 20\t\t\tRecord memory record = records...\n      DUP1 \t\t\tRecord memory record = records...\n      SWAP2 \t\t\tRecord memory record = records...\n      DIV \t\t\tRecord memory record = records...\n      MUL \t\t\tRecord memory record = records...\n      PUSH 20\t\t\tRecord memory record = records...\n      ADD \t\t\tRecord memory record = records...\n      PUSH 40\t\t\tRecord memory record = records...\n      MLOAD \t\t\tRecord memory record = records...\n      SWAP1 \t\t\tRecord memory record = records...\n      DUP2 \t\t\tRecord memory record = records...\n      ADD \t\t\tRecord memory record = records...\n      PUSH 40\t\t\tRecord memory record = records...\n      MSTORE \t\t\tRecord memory record = records...\n      DUP1 \t\t\tRecord memory record = records...\n      SWAP3 \t\t\tRecord memory record = records...\n      SWAP2 \t\t\tRecord memory record = records...\n      SWAP1 \t\t\tRecord memory record = records...\n      DUP2 \t\t\tRecord memory record = records...\n      DUP2 \t\t\tRecord memory record = records...\n      MSTORE \t\t\tRecord memory record = records...\n      PUSH 20\t\t\tRecord memory record = records...\n      ADD \t\t\tRecord memory record = records...\n      DUP3 \t\t\tRecord memory record = records...\n      DUP1 \t\t\tRecord memory record = records...\n      SLOAD \t\t\tRecord memory record = records...\n      PUSH [tag] 57\t\t\tRecord memory record = records...\n      SWAP1 \t\t\tRecord memory record = records...\n      PUSH [tag] 46\t\t\tRecord memory record = records...\n      JUMP [in]\t\t\tRecord memory record = records...\n    tag 57\t\t\tRecord memory record = records...\n      JUMPDEST \t\t\tRecord memory record = records...\n      DUP1 \t\t\tRecord memory record = records...\n      ISZERO \t\t\tRecord memory record = records...\n      PUSH [tag] 58\t\t\tRecord memory record = records...\n      JUMPI \t\t\tRecord memory record = records...\n      DUP1 \t\t\tRecord memory record = records...\n      PUSH 1F\t\t\tRecord memory record = records...\n      LT \t\t\tRecord memory record = records...\n      PUSH [tag] 59\t\t\tRecord memory record = records...\n      JUMPI \t\t\tRecord memory record = records...\n      PUSH 100\t\t\tRecord memory record = records...\n      DUP1 \t\t\tRecord memory record = records...\n      DUP4 \t\t\tRecord memory record = records...\n      SLOAD \t\t\tRecord memory record = records...\n      DIV \t\t\tRecord memory record = records...\n      MUL \t\t\tRecord memory record = records...\n      DUP4 \t\t\tRecord memory record = records...\n      MSTORE \t\t\tRecord memory record = records...\n      SWAP2 \t\t\tRecord memory record = records...\n      PUSH 20\t\t\tRecord memory record = records...\n      ADD \t\t\tRecord memory record = records...\n      SWAP2 \t\t\tRecord memory record = records...\n      PUSH [tag] 58\t\t\tRecord memory record = records...\n      JUMP \t\t\tRecord memory record = records...\n    tag 59\t\t\tRecord memory record = records...\n      JUMPDEST \t\t\tRecord memory record = records...\n      DUP3 \t\t\tRecord memory record = records...\n      ADD \t\t\tRecord memory record = records...\n      SWAP2 \t\t\tRecord memory record = records...\n      SWAP1 \t\t\tRecord memory record = records...\n      PUSH 0\t\t\tRecord memory record = records...\n      MSTORE \t\t\tRecord memory record = records...\n      PUSH 20\t\t\tRecord memory record = records...\n      PUSH 0\t\t\tRecord memory record = records...\n      KECCAK256 \t\t\tRecord memory record = records...\n      SWAP1 \t\t\tRecord memory record = records...\n    tag 60\t\t\tRecord memory record = records...\n      JUMPDEST \t\t\tRecord memory record = records...\n      DUP2 \t\t\tRecord memory record = records...\n      SLOAD \t\t\tRecord memory record = records...\n      DUP2 \t\t\tRecord memory record = records...\n      MSTORE \t\t\tRecord memory record = records...\n      SWAP1 \t\t\tRecord memory record = records...\n      PUSH 1\t\t\tRecord memory record = records...\n      ADD \t\t\tRecord memory record = records...\n      SWAP1 \t\t\tRecord memory record = records...\n      PUSH 20\t\t\tRecord memory record = records...\n      ADD \t\t\tRecord memory record = records...\n      DUP1 \t\t\tRecord memory record = records...\n      DUP4 \t\t\tRecord memory record = records...\n      GT \t\t\tRecord memory record = records...\n      PUSH [tag] 60\t\t\tRecord memory record = records...\n      JUMPI \t\t\tRecord memory record = records...\n      DUP3 \t\t\tRecord memory record = records...\n      SWAP1 \t\t\tRecord memory record = records...\n      SUB \t\t\tRecord memory record = records...\n      PUSH 1F\t\t\tRecord memory record = records...\n      AND \t\t\tRecord memory record = records...\n      DUP3 \t\t\tRecord memory record = records...\n      ADD \t\t\tRecord memory record = records...\n      SWAP2 \t\t\tRecord memory record = records...\n    tag 58\t\t\tRecord memory record = records...\n      JUMPDEST \t\t\tRecord memory record = records...\n      POP \t\t\tRecord memory record = records...\n      POP \t\t\tRecord memory record = records...\n      POP \t\t\tRecord memory record = records...\n      POP \t\t\tRecord memory record = records...\n      POP \t\t\tRecord memory record = records...\n      DUP2 \t\t\tRecord memory record = records...\n      MSTORE \t\t\tRecord memory record = records...\n      PUSH 20\t\t\tRecord memory record = records...\n      ADD \t\t\tRecord memory record = records...\n      PUSH 3\t\t\tRecord memory record = records...\n      DUP3 \t\t\tRecord memory record = records...\n      ADD \t\t\tRecord memory record = records...\n      PUSH 0\t\t\tRecord memory record = records...\n      SWAP1 \t\t\tRecord memory record = records...\n      SLOAD \t\t\tRecord memory record = records...\n      SWAP1 \t\t\tRecord memory record = records...\n      PUSH 100\t\t\tRecord memory record = records...\n      EXP \t\t\tRecord memory record = records...\n      SWAP1 \t\t\tRecord memory record = records...\n      DIV \t\t\tRecord memory record = records...\n      PUSH FFFFFFFFFFFFFFFFFFFFFFFFFFFFFFFFFFFFFFFF\t\t\tRecord memory record = records...\n      AND \t\t\tRecord memory record = records...\n      PUSH FFFFFFFFFFFFFFFFFFFFFFFFFFFFFFFFFFFFFFFF\t\t\tRecord memory record = records...\n      AND \t\t\tRecord memory record = records...\n      PUSH FFFFFFFFFFFFFFFFFFFFFFFFFFFFFFFFFFFFFFFF\t\t\tRecord memory record = records...\n      AND \t\t\tRecord memory record = records...\n      DUP2 \t\t\tRecord memory record = records...\n      MSTORE \t\t\tRecord memory record = records...\n      PUSH 20\t\t\tRecord memory record = records...\n      ADD \t\t\tRecord memory record = records...\n      PUSH 4\t\t\tRecord memory record = records...\n      DUP3 \t\t\tRecord memory record = records...\n      ADD \t\t\tRecord memory record = records...\n      SLOAD \t\t\tRecord memory record = records...\n      DUP2 \t\t\tRecord memory record = records...\n      MSTORE \t\t\tRecord memory record = records...\n      POP \t\t\tRecord memory record = records...\n      POP \t\t\tRecord memory record = records...\n      SWAP1 \t\t\tRecord memory record = records...\n      POP \t\t\tRecord memory record = records...\n      DUP1 \t\t\trecord\n      PUSH 0\t\t\trecord.name\n      ADD \t\t\trecord.name\n      MLOAD \t\t\trecord.name\n      DUP2 \t\t\trecord\n      PUSH 20\t\t\trecord.timestamp\n      ADD \t\t\trecord.timestamp\n      MLOAD \t\t\trecord.timestamp\n      DUP3 \t\t\trecord\n      PUSH 40\t\t\trecord.hash\n      ADD \t\t\trecord.hash\n      MLOAD \t\t\trecord.hash\n      DUP4 \t\t\trecord\n      PUSH 60\t\t\trecord.recordedBy\n      ADD \t\t\trecord.recordedBy\n      MLOAD \t\t\trecord.recordedBy\n      DUP5 \t\t\trecord\n      PUSH 80\t\t\trecord.blockNumber\n      ADD \t\t\trecord.blockNumber\n      MLOAD \t\t\trecord.blockNumber\n      SWAP6 \t\t\treturn (\\r\\n            record...\n      POP \t\t\treturn (\\r\\n            record...\n      SWAP6 \t\t\treturn (\\r\\n            record...\n      POP \t\t\treturn (\\r\\n            record...\n      SWAP6 \t\t\treturn (\\r\\n            record...\n      POP \t\t\treturn (\\r\\n            record...\n      SWAP6 \t\t\treturn (\\r\\n            record...\n      POP \t\t\treturn (\\r\\n            record...\n      SWAP6 \t\t\treturn (\\r\\n            record...\n      POP \t\t\treturn (\\r\\n            record...\n      POP \t\t\treturn (\\r\\n            record...\n      SWAP2 \t\t\tfunction getRecord(uint256 ind...\n      SWAP4 \t\t\tfunction getRecord(uint256 ind...\n      SWAP6 \t\t\tfunction getRecord(uint256 ind...\n      SWAP1 \t\t\tfunction getRecord(uint256 ind...\n      SWAP3 \t\t\tfunction getRecord(uint256 ind...\n      SWAP5 \t\t\tfunction getRecord(uint256 ind...\n      POP \t\t\tfunction getRecord(uint256 ind...\n      JUMP [out]\t\t\tfunction getRecord(uint256 ind...\n    tag 17\t\t\tRecord[] public records\n      JUMPDEST \t\t\tRecord[] public records\n      PUSH 0\t\t\tRecord[] public records\n      DUP2 \t\t\tRecord[] public records\n      DUP2 \t\t\tRecord[] public records\n      SLOAD \t\t\tRecord[] public records\n      DUP2 \t\t\tRecord[] public records\n      LT \t\t\tRecord[] public records\n      PUSH [tag] 61\t\t\tRecord[] public records\n      JUMPI \t\t\tRecord[] public records\n      PUSH 0\t\t\tRecord[] public records\n      DUP1 \t\t\tRecord[] public records\n      REVERT \t\t\tRecord[] public records\n    tag 61\t\t\tRecord[] public records\n      JUMPDEST \t\t\tRecord[] public records\n      SWAP1 \t\t\tRecord[] public records\n      PUSH 0\t\t\tRecord[] public records\n      MSTORE \t\t\tRecord[] public records\n      PUSH 20\t\t\tRecord[] public records\n      PUSH 0\t\t\tRecord[] public records\n      KECCAK256 \t\t\tRecord[] public records\n      SWAP1 \t\t\tRecord[] public records\n      PUSH 5\t\t\tRecord[] public records\n      MUL \t\t\tRecord[] public records\n      ADD \t\t\tRecord[] public records\n      PUSH 0\t\t\tRecord[] public records\n      SWAP2 \t\t\tRecord[] public records\n      POP \t\t\tRecord[] public records\n      SWAP1 \t\t\tRecord[] public records\n      POP \t\t\tRecord[] public records\n      DUP1 \t\t\tRecord[] public records\n      PUSH 0\t\t\tRecord[] public records\n      ADD \t\t\tRecord[] public records\n      DUP1 \t\t\tRecord[] public records\n      SLOAD \t\t\tRecord[] public records\n      PUSH [tag] 63\t\t\tRecord[] public records\n      SWAP1 \t\t\tRecord[] public records\n      PUSH [tag] 46\t\t\tRecord[] public records\n      JUMP [in]\t\t\tRecord[] public records\n    tag 63\t\t\tRecord[] public records\n      JUMPDEST \t\t\tRecord[] public records\n      DUP1 \t\t\tRecord[] public records\n      PUSH 1F\t\t\tRecord[] public records\n      ADD \t\t\tRecord[] public records\n      PUSH 20\t\t\tRecord[] public records\n      DUP1 \t\t\tRecord[] public records\n      SWAP2 \t\t\tRecord[] public records\n      DIV \t\t\tRecord[] public records\n      MUL \t\t\tRecord[] public records\n      PUSH 20\t\t\tRecord[] public records\n      ADD \t\t\tRecord[] public records\n      PUSH 40\t\t\tRecord[] public records\n      MLOAD \t\t\tRecord[] public records\n      SWAP1 \t\t\tRecord[] public records\n      DUP2 \t\t\tRecord[] public records\n      ADD \t\t\tRecord[] public records\n      PUSH 40\t\t\tRecord[] public records\n      MSTORE \t\t\tRecord[] public records\n      DUP1 \t\t\tRecord[] public records\n      SWAP3 \t\t\tRecord[] public records\n      SWAP2 \t\t\tRecord[] public records\n      SWAP1 \t\t\tRecord[] public records\n      DUP2 \t\t\tRecord[] public records\n      DUP2 \t\t\tRecord[] public records\n      MSTORE \t\t\tRecord[] public records\n      PUSH 20\t\t\tRecord[] public records\n      ADD \t\t\tRecord[] public records\n      DUP3 \t\t\tRecord[] public records\n      DUP1 \t\t\tRecord[] public records\n      SLOAD \t\t\tRecord[] public records\n      PUSH [tag] 64\t\t\tRecord[] public records\n      SWAP1 \t\t\tRecord[] public records\n      PUSH [tag] 46\t\t\tRecord[] public records\n      JUMP [in]\t\t\tRecord[] public records\n    tag 64\t\t\tRecord[] public records\n      JUMPDEST \t\t\tRecord[] public records\n      DUP1 \t\t\tRecord[] public records\n      ISZERO \t\t\tRecord[] public records\n      PUSH [tag] 65\t\t\tRecord[] public records\n      JUMPI \t\t\tRecord[] public records\n      DUP1 \t\t\tRecord[] public records\n      PUSH 1F\t\t\tRecord[] public records\n      LT \t\t\tRecord[] public records\n      PUSH [tag] 66\t\t\tRecord[] public records\n      JUMPI \t\t\tRecord[] public records\n      PUSH 100\t\t\tRecord[] public records\n      DUP1 \t\t\tRecord[] public records\n      DUP4 \t\t\tRecord[] public records\n      SLOAD \t\t\tRecord[] public records\n      DIV \t\t\tRecord[] public records\n      MUL \t\t\tRecord[] public records\n      DUP4 \t\t\tRecord[] public records\n      MSTORE \t\t\tRecord[] public records\n      SWAP2 \t\t\tRecord[] public records\n      PUSH 20\t\t\tRecord[] public records\n      ADD \t\t\tRecord[] public records\n      SWAP2 \t\t\tRecord[] public records\n      PUSH [tag] 65\t\t\tRecord[] public records\n      JUMP \t\t\tRecord[] public records\n    tag 66\t\t\tRecord[] public records\n      JUMPDEST \t\t\tRecord[] public records\n      DUP3 \t\t\tRecord[] public records\n      ADD \t\t\tRecord[] public records\n      SWAP2 \t\t\tRecord[] public records\n      SWAP1 \t\t\tRecord[] public records\n      PUSH 0\t\t\tRecord[] public records\n      MSTORE \t\t\tRecord[] public records\n      PUSH 20\t\t\tRecord[] public records\n      PUSH 0\t\t\tRecord[] public records\n      KECCAK256 \t\t\tRecord[] public records\n      SWAP1 \t\t\tRecord[] public records\n    tag 67\t\t\tRecord[] public records\n      JUMPDEST \t\t\tRecord[] public records\n      DUP2 \t\t\tRecord[] public records\n      SLOAD \t\t\tRecord[] public records\n      DUP2 \t\t\tRecord[] public records\n      MSTORE \t\t\tRecord[] public records\n      SWAP1 \t\t\tRecord[] public records\n      PUSH 1\t\t\tRecord[] public records\n      ADD \t\t\tRecord[] public records\n      SWAP1 \t\t\tRecord[] public records\n      PUSH 20\t\t\tRecord[] public records\n      ADD \t\t\tRecord[] public records\n      DUP1 \t\t\tRecord[] public records\n      DUP4 \t\t\tRecord[] public records\n      GT \t\t\tRecord[] public records\n      PUSH [tag] 67\t\t\tRecord[] public records\n      JUMPI \t\t\tRecord[] public records\n      DUP3 \t\t\tRecord[] public records\n      SWAP1 \t\t\tRecord[] public records\n      SUB \t\t\tRecord[] public records\n      PUSH 1F\t\t\tRecord[] public records\n      AND \t\t\tRecord[] public records\n      DUP3 \t\t\tRecord[] public records\n      ADD \t\t\tRecord[] public records\n      SWAP2 \t\t\tRecord[] public records\n    tag 65\t\t\tRecord[] public records\n      JUMPDEST \t\t\tRecord[] public records\n      POP \t\t\tRecord[] public records\n      POP \t\t\tRecord[] public records\n      POP \t\t\tRecord[] public records\n      POP \t\t\tRecord[] public records\n      POP \t\t\tRecord[] public records\n      SWAP1 \t\t\tRecord[] public records\n      DUP1 \t\t\tRecord[] public records\n      PUSH 1\t\t\tRecord[] public records\n      ADD \t\t\tRecord[] public records\n      DUP1 \t\t\tRecord[] public records\n      SLOAD \t\t\tRecord[] public records\n      PUSH [tag] 68\t\t\tRecord[] public records\n      SWAP1 \t\t\tRecord[] public records\n      PUSH [tag] 46\t\t\tRecord[] public records\n      JUMP [in]\t\t\tRecord[] public records\n    tag 68\t\t\tRecord[] public records\n      JUMPDEST \t\t\tRecord[] public records\n      DUP1 \t\t\tRecord[] public records\n      PUSH 1F\t\t\tRecord[] public records\n      ADD \t\t\tRecord[] public records\n      PUSH 20\t\t\tRecord[] public records\n      DUP1 \t\t\tRecord[] public records\n      SWAP2 \t\t\tRecord[] public records\n      DIV \t\t\tRecord[] public records\n      MUL \t\t\tRecord[] public records\n      PUSH 20\t\t\tRecord[] public records\n      ADD \t\t\tRecord[] public records\n      PUSH 40\t\t\tRecord[] public records\n      MLOAD \t\t\tRecord[] public records\n      SWAP1 \t\t\tRecord[] public records\n      DUP2 \t\t\tRecord[] public records\n      ADD \t\t\tRecord[] public records\n      PUSH 40\t\t\tRecord[] public records\n      MSTORE \t\t\tRecord[] public records\n      DUP1 \t\t\tRecord[] public records\n      SWAP3 \t\t\tRecord[] public records\n      SWAP2 \t\t\tRecord[] public records\n      SWAP1 \t\t\tRecord[] public records\n      DUP2 \t\t\tRecord[] public records\n      DUP2 \t\t\tRecord[] public records\n      MSTORE \t\t\tRecord[] public records\n      PUSH 20\t\t\tRecord[] public records\n      ADD \t\t\tRecord[] public records\n      DUP3 \t\t\tRecord[] public records\n      DUP1 \t\t\tRecord[] public records\n      SLOAD \t\t\tRecord[] public records\n      PUSH [tag] 69\t\t\tRecord[] public records\n      SWAP1 \t\t\tRecord[] public records\n      PUSH [tag] 46\t\t\tRecord[] public records\n      JUMP [in]\t\t\tRecord[] public records\n    tag 69\t\t\tRecord[] public records\n      JUMPDEST \t\t\tRecord[] public records\n      DUP1 \t\t\tRecord[] public records\n      ISZERO \t\t\tRecord[] public records\n      PUSH [tag] 70\t\t\tRecord[] public records\n      JUMPI \t\t\tRecord[] public records\n      DUP1 \t\t\tRecord[] public records\n      PUSH 1F\t\t\tRecord[] public records\n      LT \t\t\tRecord[] public records\n      PUSH [tag] 71\t\t\tRecord[] public records\n      JUMPI \t\t\tRecord[] public records\n      PUSH 100\t\t\tRecord[] public records\n      DUP1 \t\t\tRecord[] public records\n      DUP4 \t\t\tRecord[] public records\n      SLOAD \t\t\tRecord[] public records\n      DIV \t\t\tRecord[] public records\n      MUL \t\t\tRecord[] public records\n      DUP4 \t\t\tRecord[] public records\n      MSTORE \t\t\tRecord[] public records\n      SWAP2 \t\t\tRecord[] public records\n      PUSH 20\t\t\tRecord[] public records\n      ADD \t\t\tRecord[] public records\n      SWAP2 \t\t\tRecord[] public records\n      PUSH [tag] 70\t\t\tRecord[] public records\n      JUMP \t\t\tRecord[] public records\n    tag 71\t\t\tRecord[] public records\n      JUMPDEST \t\t\tRecord[] public records\n      DUP3 \t\t\tRecord[] public records\n      ADD \t\t\tRecord[] public records\n      SWAP2 \t\t\tRecord[] public records\n      SWAP1 \t\t\tRecord[] public records\n      PUSH 0\t\t\tRecord[] public records\n      MSTORE \t\t\tRecord[] public records\n      PUSH 20\t\t\tRecord[] public records\n      PUSH 0\t\t\tRecord[] public records\n      KECCAK256 \t\t\tRecord[] public records\n      SWAP1 \t\t\tRecord[] public records\n    tag 72\t\t\tRecord[] public records\n      JUMPDEST \t\t\tRecord[] public records\n      DUP2 \t\t\tRecord[] public records\n      SLOAD \t\t\tRecord[] public records\n      DUP2 \t\t\tRecord[] public records\n      MSTORE \t\t\tRecord[] public records\n      SWAP1 \t\t\tRecord[] public records\n      PUSH 1\t\t\tRecord[] public records\n      ADD \t\t\tRecord[] public records\n      SWAP1 \t\t\tRecord[] public records\n      PUSH 20\t\t\tRecord[] public records\n      ADD \t\t\tRecord[] public records\n      DUP1 \t\t\tRecord[] public records\n      DUP4 \t\t\tRecord[] public records\n      GT \t\t\tRecord[] public records\n      PUSH [tag] 72\t\t\tRecord[] public records\n      JUMPI \t\t\tRecord[] public records\n      DUP3 \t\t\tRecord[] public records\n      SWAP1 \t\t\tRecord[] public records\n      SUB \t\t\tRecord[] public records\n      PUSH 1F\t\t\tRecord[] public records\n      AND \t\t\tRecord[] public records\n      DUP3 \t\t\tRecord[] public records\n      ADD \t\t\tRecord[] public records\n      SWAP2 \t\t\tRecord[] public records\n    tag 70\t\t\tRecord[] public records\n      JUMPDEST \t\t\tRecord[] public records\n      POP \t\t\tRecord[] public records\n      POP \t\t\tRecord[] public records\n      POP \t\t\tRecord[] public records\n      POP \t\t\tRecord[] public records\n      POP \t\t\tRecord[] public records\n      SWAP1 \t\t\tRecord[] public records\n      DUP1 \t\t\tRecord[] public records\n      PUSH 2\t\t\tRecord[] public records\n      ADD \t\t\tRecord[] public records\n      DUP1 \t\t\tRecord[] public records\n      SLOAD \t\t\tRecord[] public records\n      PUSH [tag] 73\t\t\tRecord[] public records\n      SWAP1 \t\t\tRecord[] public records\n      PUSH [tag] 46\t\t\tRecord[] public records\n      JUMP [in]\t\t\tRecord[] public records\n    tag 73\t\t\tRecord[] public records\n      JUMPDEST \t\t\tRecord[] public records\n      DUP1 \t\t\tRecord[] public records\n      PUSH 1F\t\t\tRecord[] public records\n      ADD \t\t\tRecord[] public records\n      PUSH 20\t\t\tRecord[] public records\n      DUP1 \t\t\tRecord[] public records\n      SWAP2 \t\t\tRecord[] public records\n      DIV \t\t\tRecord[] public records\n      MUL \t\t\tRecord[] public records\n      PUSH 20\t\t\tRecord[] public records\n      ADD \t\t\tRecord[] public records\n      PUSH 40\t\t\tRecord[] public records\n      MLOAD \t\t\tRecord[] public records\n      SWAP1 \t\t\tRecord[] public records\n      DUP2 \t\t\tRecord[] public records\n      ADD \t\t\tRecord[] public records\n      PUSH 40\t\t\tRecord[] public records\n      MSTORE \t\t\tRecord[] public records\n      DUP1 \t\t\tRecord[] public records\n      SWAP3 \t\t\tRecord[] public records\n      SWAP2 \t\t\tRecord[] public records\n      SWAP1 \t\t\tRecord[] public records\n      DUP2 \t\t\tRecord[] public records\n      DUP2 \t\t\tRecord[] public records\n      MSTORE \t\t\tRecord[] public records\n      PUSH 20\t\t\tRecord[] public records\n      ADD \t\t\tRecord[] public records\n      DUP3 \t\t\tRecord[] public records\n      DUP1 \t\t\tRecord[] public records\n      SLOAD \t\t\tRecord[] public records\n      PUSH [tag] 74\t\t\tRecord[] public records\n      SWAP1 \t\t\tRecord[] public records\n      PUSH [tag] 46\t\t\tRecord[] public records\n      JUMP [in]\t\t\tRecord[] public records\n    tag 74\t\t\tRecord[] public records\n      JUMPDEST \t\t\tRecord[] public records\n      DUP1 \t\t\tRecord[] public records\n      ISZERO \t\t\tRecord[] public records\n      PUSH [tag] 75\t\t\tRecord[] public records\n      JUMPI \t\t\tRecord[] public records\n      DUP1 \t\t\tRecord[] public records\n      PUSH 1F\t\t\tRecord[] public records\n      LT \t\t\tRecord[] public records\n      PUSH [tag] 76\t\t\tRecord[] public records\n      JUMPI \t\t\tRecord[] public records\n      PUSH 100\t\t\tRecord[] public records\n      DUP1 \t\t\tRecord[] public records\n      DUP4 \t\t\tRecord[] public records\n      SLOAD \t\t\tRecord[] public records\n      DIV \t\t\tRecord[] public records\n      MUL \t\t\tRecord[] public records\n      DUP4 \t\t\tRecord[] public records\n      MSTORE \t\t\tRecord[] public records\n      SWAP2 \t\t\tRecord[] public records\n      PUSH 20\t\t\tRecord[] public records\n      ADD \t\t\tRecord[] public records\n      SWAP2 \t\t\tRecord[] public records\n      PUSH [tag] 75\t\t\tRecord[] public records\n      JUMP \t\t\tRecord[] public records\n    tag 76\t\t\tRecord[] public records\n      JUMPDEST \t\t\tRecord[] public records\n      DUP3 \t\t\tRecord[] public records\n      ADD \t\t\tRecord[] public records\n      SWAP2 \t\t\tRecord[] public records\n      SWAP1 \t\t\tRecord[] public records\n      PUSH 0\t\t\tRecord[] public records\n      MSTORE \t\t\tRecord[] public records\n      PUSH 20\t\t\tRecord[] public records\n      PUSH 0\t\t\tRecord[] public records\n      KECCAK256 \t\t\tRecord[] public records\n      SWAP1 \t\t\tRecord[] public records\n    tag 77\t\t\tRecord[] public records\n      JUMPDEST \t\t\tRecord[] public records\n      DUP2 \t\t\tRecord[] public records\n      SLOAD \t\t\tRecord[] public records\n      DUP2 \t\t\tRecord[] public records\n      MSTORE \t\t\tRecord[] public records\n      SWAP1 \t\t\tRecord[] public records\n      PUSH 1\t\t\tRecord[] public records\n      ADD \t\t\tRecord[] public records\n      SWAP1 \t\t\tRecord[] public records\n      PUSH 20\t\t\tRecord[] public records\n      ADD \t\t\tRecord[] public records\n      DUP1 \t\t\tRecord[] public records\n      DUP4 \t\t\tRecord[] public records\n      GT \t\t\tRecord[] public records\n      PUSH [tag] 77\t\t\tRecord[] public records\n      JUMPI \t\t\tRecord[] public records\n      DUP3 \t\t\tRecord[] public records\n      SWAP1 \t\t\tRecord[] public records\n      SUB \t\t\tRecord[] public records\n      PUSH 1F\t\t\tRecord[] public records\n      AND \t\t\tRecord[] public records\n      DUP3 \t\t\tRecord[] public records\n      ADD \t\t\tRecord[] public records\n      SWAP2 \t\t\tRecord[] public records\n    tag 75\t\t\tRecord[] public records\n      JUMPDEST \t\t\tRecord[] public records\n      POP \t\t\tRecord[] public records\n      POP \t\t\tRecord[] public records\n      POP \t\t\tRecord[] public records\n      POP \t\t\tRecord[] public records\n      POP \t\t\tRecord[] public records\n      SWAP1 \t\t\tRecord[] public records\n      DUP1 \t\t\tRecord[] public records\n      PUSH 3\t\t\tRecord[] public records\n      ADD \t\t\tRecord[] public records\n      PUSH 0\t\t\tRecord[] public records\n      SWAP1 \t\t\tRecord[] public records\n      SLOAD \t\t\tRecord[] public records\n      SWAP1 \t\t\tRecord[] public records\n      PUSH 100\t\t\tRecord[] public records\n      EXP \t\t\tRecord[] public records\n      SWAP1 \t\t\tRecord[] public records\n      DIV \t\t\tRecord[] public records\n      PUSH FFFFFFFFFFFFFFFFFFFFFFFFFFFFFFFFFFFFFFFF\t\t\tRecord[] public records\n      AND \t\t\tRecord[] public records\n      SWAP1 \t\t\tRecord[] public records\n      DUP1 \t\t\tRecord[] public records\n      PUSH 4\t\t\tRecord[] public records\n      ADD \t\t\tRecord[] public records\n      SLOAD \t\t\tRecord[] public records\n      SWAP1 \t\t\tRecord[] public records\n      POP \t\t\tRecord[] public records\n      DUP6 \t\t\tRecord[] public records\n      JUMP [out]\t\t\tRecord[] public records\n    tag 22\t\t\tfunction addRecord(\\r\\n       ...\n      JUMPDEST \t\t\tfunction addRecord(\\r\\n       ...\n      PUSH 1\t\t\towner\n      PUSH 0\t\t\towner\n      SWAP1 \t\t\towner\n      SLOAD \t\t\towner\n      SWAP1 \t\t\towner\n      PUSH 100\t\t\towner\n      EXP \t\t\towner\n      SWAP1 \t\t\towner\n      DIV \t\t\towner\n      PUSH FFFFFFFFFFFFFFFFFFFFFFFFFFFFFFFFFFFFFFFF\t\t\towner\n      AND \t\t\towner\n      PUSH FFFFFFFFFFFFFFFFFFFFFFFFFFFFFFFFFFFFFFFF\t\t\tmsg.sender == owner\n      AND \t\t\tmsg.sender == owner\n      CALLER \t\t\tmsg.sender\n      PUSH FFFFFFFFFFFFFFFFFFFFFFFFFFFFFFFFFFFFFFFF\t\t\tmsg.sender == owner\n      AND \t\t\tmsg.sender == owner\n      EQ \t\t\tmsg.sender == owner\n      PUSH [tag] 79\t\t\trequire(msg.sender == owner, \"...\n      JUMPI \t\t\trequire(msg.sender == owner, \"...\n      PUSH 40\t\t\trequire(msg.sender == owner, \"...\n      MLOAD \t\t\trequire(msg.sender == owner, \"...\n      PUSH 8C379A000000000000000000000000000000000000000000000000000000000\t\t\trequire(msg.sender == owner, \"...\n      DUP2 \t\t\trequire(msg.sender == owner, \"...\n      MSTORE \t\t\trequire(msg.sender == owner, \"...\n      PUSH 4\t\t\trequire(msg.sender == owner, \"...\n      ADD \t\t\trequire(msg.sender == owner, \"...\n      PUSH [tag] 80\t\t\trequire(msg.sender == owner, \"...\n      SWAP1 \t\t\trequire(msg.sender == owner, \"...\n      PUSH [tag] 81\t\t\trequire(msg.sender == owner, \"...\n      JUMP [in]\t\t\trequire(msg.sender == owner, \"...\n    tag 80\t\t\trequire(msg.sender == owner, \"...\n      JUMPDEST \t\t\trequire(msg.sender == owner, \"...\n      PUSH 40\t\t\trequire(msg.sender == owner, \"...\n      MLOAD \t\t\trequire(msg.sender == owner, \"...\n      DUP1 \t\t\trequire(msg.sender == owner, \"...\n      SWAP2 \t\t\trequire(msg.sender == owner, \"...\n      SUB \t\t\trequire(msg.sender == owner, \"...\n      SWAP1 \t\t\trequire(msg.sender == owner, \"...\n      REVERT \t\t\trequire(msg.sender == owner, \"...\n    tag 79\t\t\trequire(msg.sender == owner, \"...\n      JUMPDEST \t\t\trequire(msg.sender == owner, \"...\n      PUSH 0\t\t\trecords\n      PUSH 40\t\t\tRecord({\\r\\n            name: ...\n      MLOAD \t\t\tRecord({\\r\\n            name: ...\n      DUP1 \t\t\tRecord({\\r\\n            name: ...\n      PUSH A0\t\t\tRecord({\\r\\n            name: ...\n      ADD \t\t\tRecord({\\r\\n            name: ...\n      PUSH 40\t\t\tRecord({\\r\\n            name: ...\n      MSTORE \t\t\tRecord({\\r\\n            name: ...\n      DUP1 \t\t\tRecord({\\r\\n            name: ...\n      DUP6 \t\t\t_name\n      DUP2 \t\t\tRecord({\\r\\n            name: ...\n      MSTORE \t\t\tRecord({\\r\\n            name: ...\n      PUSH 20\t\t\tRecord({\\r\\n            name: ...\n      ADD \t\t\tRecord({\\r\\n            name: ...\n      DUP5 \t\t\t_timestamp\n      DUP2 \t\t\tRecord({\\r\\n            name: ...\n      MSTORE \t\t\tRecord({\\r\\n            name: ...\n      PUSH 20\t\t\tRecord({\\r\\n            name: ...\n      ADD \t\t\tRecord({\\r\\n            name: ...\n      DUP4 \t\t\t_hash\n      DUP2 \t\t\tRecord({\\r\\n            name: ...\n      MSTORE \t\t\tRecord({\\r\\n            name: ...\n      PUSH 20\t\t\tRecord({\\r\\n            name: ...\n      ADD \t\t\tRecord({\\r\\n            name: ...\n      CALLER \t\t\tmsg.sender\n      PUSH FFFFFFFFFFFFFFFFFFFFFFFFFFFFFFFFFFFFFFFF\t\t\tRecord({\\r\\n            name: ...\n      AND \t\t\tRecord({\\r\\n            name: ...\n      DUP2 \t\t\tRecord({\\r\\n            name: ...\n      MSTORE \t\t\tRecord({\\r\\n            name: ...\n      PUSH 20\t\t\tRecord({\\r\\n            name: ...\n      ADD \t\t\tRecord({\\r\\n            name: ...\n      NUMBER \t\t\tblock.number\n      DUP2 \t\t\tRecord({\\r\\n            name: ...\n      MSTORE \t\t\tRecord({\\r\\n            name: ...\n      POP \t\t\tRecord({\\r\\n            name: ...\n      SWAP1 \t\t\trecords.push(Record({\\r\\n     ...\n      DUP1 \t\t\trecords.push(Record({\\r\\n     ...\n      PUSH 1\t\t\trecords.push(Record({\\r\\n     ...\n      DUP2 \t\t\trecords.push(Record({\\r\\n     ...\n      SLOAD \t\t\trecords.push(Record({\\r\\n     ...\n      ADD \t\t\trecords.push(Record({\\r\\n     ...\n      DUP1 \t\t\trecords.push(Record({\\r\\n     ...\n      DUP3 \t\t\trecords.push(Record({\\r\\n     ...\n      SSTORE \t\t\trecords.push(Record({\\r\\n     ...\n      DUP1 \t\t\trecords.push(Record({\\r\\n     ...\n      SWAP2 \t\t\trecords.push(Record({\\r\\n     ...\n      POP \t\t\trecords.push(Record({\\r\\n     ...\n      POP \t\t\trecords.push(Record({\\r\\n     ...\n      PUSH 1\t\t\trecords.push(Record({\\r\\n     ...\n      SWAP1 \t\t\trecords.push(Record({\\r\\n     ...\n      SUB \t\t\trecords.push(Record({\\r\\n     ...\n      SWAP1 \t\t\trecords.push(Record({\\r\\n     ...\n      PUSH 0\t\t\trecords.push(Record({\\r\\n     ...\n      MSTORE \t\t\trecords.push(Record({\\r\\n     ...\n      PUSH 20\t\t\trecords.push(Record({\\r\\n     ...\n      PUSH 0\t\t\trecords.push(Record({\\r\\n     ...\n      KECCAK256 \t\t\trecords.push(Record({\\r\\n     ...\n      SWAP1 \t\t\trecords.push(Record({\\r\\n     ...\n      PUSH 5\t\t\trecords.push(Record({\\r\\n     ...\n      MUL \t\t\trecords.push(Record({\\r\\n     ...\n      ADD \t\t\trecords.push(Record({\\r\\n     ...\n      PUSH 0\t\t\trecords.push(Record({\\r\\n     ...\n      SWAP1 \t\t\trecords.push(Record({\\r\\n     ...\n      SWAP2 \t\t\trecords.push(Record({\\r\\n     ...\n      SWAP1 \t\t\trecords.push(Record({\\r\\n     ...\n      SWAP2 \t\t\trecords.push(Record({\\r\\n     ...\n      SWAP1 \t\t\trecords.push(Record({\\r\\n     ...\n      SWAP2 \t\t\trecords.push(Record({\\r\\n     ...\n      POP \t\t\trecords.push(Record({\\r\\n     ...\n      PUSH 0\t\t\trecords.push(Record({\\r\\n     ...\n      DUP3 \t\t\trecords.push(Record({\\r\\n     ...\n      ADD \t\t\trecords.push(Record({\\r\\n     ...\n      MLOAD \t\t\trecords.push(Record({\\r\\n     ...\n      DUP2 \t\t\trecords.push(Record({\\r\\n     ...\n      PUSH 0\t\t\trecords.push(Record({\\r\\n     ...\n      ADD \t\t\trecords.push(Record({\\r\\n     ...\n      SWAP1 \t\t\trecords.push(Record({\\r\\n     ...\n      DUP1 \t\t\trecords.push(Record({\\r\\n     ...\n      MLOAD \t\t\trecords.push(Record({\\r\\n     ...\n      SWAP1 \t\t\trecords.push(Record({\\r\\n     ...\n      PUSH 20\t\t\trecords.push(Record({\\r\\n     ...\n      ADD \t\t\trecords.push(Record({\\r\\n     ...\n      SWAP1 \t\t\trecords.push(Record({\\r\\n     ...\n      PUSH [tag] 84\t\t\trecords.push(Record({\\r\\n     ...\n      SWAP3 \t\t\trecords.push(Record({\\r\\n     ...\n      SWAP2 \t\t\trecords.push(Record({\\r\\n     ...\n      SWAP1 \t\t\trecords.push(Record({\\r\\n     ...\n      PUSH [tag] 85\t\t\trecords.push(Record({\\r\\n     ...\n      JUMP [in]\t\t\trecords.push(Record({\\r\\n     ...\n    tag 84\t\t\trecords.push(Record({\\r\\n     ...\n      JUMPDEST \t\t\trecords.push(Record({\\r\\n     ...\n      POP \t\t\trecords.push(Record({\\r\\n     ...\n      PUSH 20\t\t\trecords.push(Record({\\r\\n     ...\n      DUP3 \t\t\trecords.push(Record({\\r\\n     ...\n      ADD \t\t\trecords.push(Record({\\r\\n     ...\n      MLOAD \t\t\trecords.push(Record({\\r\\n     ...\n      DUP2 \t\t\trecords.push(Record({\\r\\n     ...\n      PUSH 1\t\t\trecords.push(Record({\\r\\n     ...\n      ADD \t\t\trecords.push(Record({\\r\\n     ...\n      SWAP1 \t\t\trecords.push(Record({\\r\\n     ...\n      DUP1 \t\t\trecords.push(Record({\\r\\n     ...\n      MLOAD \t\t\trecords.push(Record({\\r\\n     ...\n      SWAP1 \t\t\trecords.push(Record({\\r\\n     ...\n      PUSH 20\t\t\trecords.push(Record({\\r\\n     ...\n      ADD \t\t\trecords.push(Record({\\r\\n     ...\n      SWAP1 \t\t\trecords.push(Record({\\r\\n     ...\n      PUSH [tag] 86\t\t\trecords.push(Record({\\r\\n     ...\n      SWAP3 \t\t\trecords.push(Record({\\r\\n     ...\n      SWAP2 \t\t\trecords.push(Record({\\r\\n     ...\n      SWAP1 \t\t\trecords.push(Record({\\r\\n     ...\n      PUSH [tag] 85\t\t\trecords.push(Record({\\r\\n     ...\n      JUMP [in]\t\t\trecords.push(Record({\\r\\n     ...\n    tag 86\t\t\trecords.push(Record({\\r\\n     ...\n      JUMPDEST \t\t\trecords.push(Record({\\r\\n     ...\n      POP \t\t\trecords.push(Record({\\r\\n     ...\n      PUSH 40\t\t\trecords.push(Record({\\r\\n     ...\n      DUP3 \t\t\trecords.push(Record({\\r\\n     ...\n      ADD \t\t\trecords.push(Record({\\r\\n     ...\n      MLOAD \t\t\trecords.push(Record({\\r\\n     ...\n      DUP2 \t\t\trecords.push(Record({\\r\\n     ...\n      PUSH 2\t\t\trecords.push(Record({\\r\\n     ...\n      ADD \t\t\trecords.push(Record({\\r\\n     ...\n      SWAP1 \t\t\trecords.push(Record({\\r\\n     ...\n      DUP1 \t\t\trecords.push(Record({\\r\\n     ...\n      MLOAD \t\t\trecords.push(Record({\\r\\n     ...\n      SWAP1 \t\t\trecords.push(Record({\\r\\n     ...\n      PUSH 20\t\t\trecords.push(Record({\\r\\n     ...\n      ADD \t\t\trecords.push(Record({\\r\\n     ...\n      SWAP1 \t\t\trecords.push(Record({\\r\\n     ...\n      PUSH [tag] 87\t\t\trecords.push(Record({\\r\\n     ...\n      SWAP3 \t\t\trecords.push(Record({\\r\\n     ...\n      SWAP2 \t\t\trecords.push(Record({\\r\\n     ...\n      SWAP1 \t\t\trecords.push(Record({\\r\\n     ...\n      PUSH [tag] 85\t\t\trecords.push(Record({\\r\\n     ...\n      JUMP [in]\t\t\trecords.push(Record({\\r\\n     ...\n    tag 87\t\t\trecords.push(Record({\\r\\n     ...\n      JUMPDEST \t\t\trecords.push(Record({\\r\\n     ...\n      POP \t\t\trecords.push(Record({\\r\\n     ...\n      PUSH 60\t\t\trecords.push(Record({\\r\\n     ...\n      DUP3 \t\t\trecords.push(Record({\\r\\n     ...\n      ADD \t\t\trecords.push(Record({\\r\\n     ...\n      MLOAD \t\t\trecords.push(Record({\\r\\n     ...\n      DUP2 \t\t\trecords.push(Record({\\r\\n     ...\n      PUSH 3\t\t\trecords.push(Record({\\r\\n     ...\n      ADD \t\t\trecords.push(Record({\\r\\n     ...\n      PUSH 0\t\t\trecords.push(Record({\\r\\n     ...\n      PUSH 100\t\t\trecords.push(Record({\\r\\n     ...\n      EXP \t\t\trecords.push(Record({\\r\\n     ...\n      DUP2 \t\t\trecords.push(Record({\\r\\n     ...\n      SLOAD \t\t\trecords.push(Record({\\r\\n     ...\n      DUP2 \t\t\trecords.push(Record({\\r\\n     ...\n      PUSH FFFFFFFFFFFFFFFFFFFFFFFFFFFFFFFFFFFFFFFF\t\t\trecords.push(Record({\\r\\n     ...\n      MUL \t\t\trecords.push(Record({\\r\\n     ...\n      NOT \t\t\trecords.push(Record({\\r\\n     ...\n      AND \t\t\trecords.push(Record({\\r\\n     ...\n      SWAP1 \t\t\trecords.push(Record({\\r\\n     ...\n      DUP4 \t\t\trecords.push(Record({\\r\\n     ...\n      PUSH FFFFFFFFFFFFFFFFFFFFFFFFFFFFFFFFFFFFFFFF\t\t\trecords.push(Record({\\r\\n     ...\n      AND \t\t\trecords.push(Record({\\r\\n     ...\n      MUL \t\t\trecords.push(Record({\\r\\n     ...\n      OR \t\t\trecords.push(Record({\\r\\n     ...\n      SWAP1 \t\t\trecords.push(Record({\\r\\n     ...\n      SSTORE \t\t\trecords.push(Record({\\r\\n     ...\n      POP \t\t\trecords.push(Record({\\r\\n     ...\n      PUSH 80\t\t\trecords.push(Record({\\r\\n     ...\n      DUP3 \t\t\trecords.push(Record({\\r\\n     ...\n      ADD \t\t\trecords.push(Record({\\r\\n     ...\n      MLOAD \t\t\trecords.push(Record({\\r\\n     ...\n      DUP2 \t\t\trecords.push(Record({\\r\\n     ...\n      PUSH 4\t\t\trecords.push(Record({\\r\\n     ...\n      ADD \t\t\trecords.push(Record({\\r\\n     ...\n      SSTORE \t\t\trecords.push(Record({\\r\\n     ...\n      POP \t\t\trecords.push(Record({\\r\\n     ...\n      POP \t\t\trecords.push(Record({\\r\\n     ...\n      POP \t\t\tfunction addRecord(\\r\\n       ...\n      POP \t\t\tfunction addRecord(\\r\\n       ...\n      POP \t\t\tfunction addRecord(\\r\\n       ...\n      JUMP [out]\t\t\tfunction addRecord(\\r\\n       ...\n    tag 24\t\t\taddress public owner\n      JUMPDEST \t\t\taddress public owner\n      PUSH 1\t\t\taddress public owner\n      PUSH 0\t\t\taddress public owner\n      SWAP1 \t\t\taddress public owner\n      SLOAD \t\t\taddress public owner\n      SWAP1 \t\t\taddress public owner\n      PUSH 100\t\t\taddress public owner\n      EXP \t\t\taddress public owner\n      SWAP1 \t\t\taddress public owner\n      DIV \t\t\taddress public owner\n      PUSH FFFFFFFFFFFFFFFFFFFFFFFFFFFFFFFFFFFFFFFF\t\t\taddress public owner\n      AND \t\t\taddress public owner\n      DUP2 \t\t\taddress public owner\n      JUMP [out]\t\t\taddress public owner\n    tag 28\t\t\tfunction getRecordCount() publ...\n      JUMPDEST \t\t\tfunction getRecordCount() publ...\n      PUSH 0\t\t\tuint256\n      DUP1 \t\t\trecords\n      DUP1 \t\t\trecords.length\n      SLOAD \t\t\trecords.length\n      SWAP1 \t\t\trecords.length\n      POP \t\t\trecords.length\n      SWAP1 \t\t\treturn records.length\n      POP \t\t\treturn records.length\n      SWAP1 \t\t\tfunction getRecordCount() publ...\n      JUMP [out]\t\t\tfunction getRecordCount() publ...\n    tag 34\t\t\tfunction verifyRecord(\\r\\n    ...\n      JUMPDEST \t\t\tfunction verifyRecord(\\r\\n    ...\n      PUSH 0\t\t\tbool\n      DUP1 \t\t\trecords\n      DUP1 \t\t\trecords.length\n      SLOAD \t\t\trecords.length\n      SWAP1 \t\t\trecords.length\n      POP \t\t\trecords.length\n      DUP6 \t\t\tindex\n      LT \t\t\tindex < records.length\n      PUSH [tag] 90\t\t\trequire(index < records.length...\n      JUMPI \t\t\trequire(index < records.length...\n      PUSH 40\t\t\trequire(index < records.length...\n      MLOAD \t\t\trequire(index < records.length...\n      PUSH 8C379A000000000000000000000000000000000000000000000000000000000\t\t\trequire(index < records.length...\n      DUP2 \t\t\trequire(index < records.length...\n      MSTORE \t\t\trequire(index < records.length...\n      PUSH 4\t\t\trequire(index < records.length...\n      ADD \t\t\trequire(index < records.length...\n      PUSH [tag] 91\t\t\trequire(index < records.length...\n      SWAP1 \t\t\trequire(index < records.length...\n      PUSH [tag] 40\t\t\trequire(index < records.length...\n      JUMP [in]\t\t\trequire(index < records.length...\n    tag 91\t\t\trequire(index < records.length...\n      JUMPDEST \t\t\trequire(index < records.length...\n      PUSH 40\t\t\trequire(index < records.length...\n      MLOAD \t\t\trequire(index < records.length...\n      DUP1 \t\t\trequire(index < records.length...\n      SWAP2 \t\t\trequire(index < records.length...\n      SUB \t\t\trequire(index < records.length...\n      SWAP1 \t\t\trequire(index < records.length...\n      REVERT \t\t\trequire(index < records.length...\n    tag 90\t\t\trequire(index < records.length...\n      JUMPDEST \t\t\trequire(index < records.length...\n      PUSH 0\t\t\tRecord memory record\n      DUP1 \t\t\trecords\n      DUP7 \t\t\tindex\n      DUP2 \t\t\trecords[index]\n      SLOAD \t\t\trecords[index]\n      DUP2 \t\t\trecords[index]\n      LT \t\t\trecords[index]\n      PUSH [tag] 92\t\t\trecords[index]\n      JUMPI \t\t\trecords[index]\n      PUSH [tag] 93\t\t\trecords[index]\n      PUSH [tag] 43\t\t\trecords[index]\n      JUMP [in]\t\t\trecords[index]\n    tag 93\t\t\trecords[index]\n      JUMPDEST \t\t\trecords[index]\n    tag 92\t\t\trecords[index]\n      JUMPDEST \t\t\trecords[index]\n      SWAP1 \t\t\trecords[index]\n      PUSH 0\t\t\trecords[index]\n      MSTORE \t\t\trecords[index]\n      PUSH 20\t\t\trecords[index]\n      PUSH 0\t\t\trecords[index]\n      KECCAK256 \t\t\trecords[index]\n      SWAP1 \t\t\trecords[index]\n      PUSH 5\t\t\trecords[index]\n      MUL \t\t\trecords[index]\n      ADD \t\t\trecords[index]\n      PUSH 40\t\t\tRecord memory record = records...\n      MLOAD \t\t\tRecord memory record = records...\n      DUP1 \t\t\tRecord memory record = records...\n      PUSH A0\t\t\tRecord memory record = records...\n      ADD \t\t\tRecord memory record = records...\n      PUSH 40\t\t\tRecord memory record = records...\n      MSTORE \t\t\tRecord memory record = records...\n      SWAP1 \t\t\tRecord memory record = records...\n      DUP2 \t\t\tRecord memory record = records...\n      PUSH 0\t\t\tRecord memory record = records...\n      DUP3 \t\t\tRecord memory record = records...\n      ADD \t\t\tRecord memory record = records...\n      DUP1 \t\t\tRecord memory record = records...\n      SLOAD \t\t\tRecord memory record = records...\n      PUSH [tag] 95\t\t\tRecord memory record = records...\n      SWAP1 \t\t\tRecord memory record = records...\n      PUSH [tag] 46\t\t\tRecord memory record = records...\n      JUMP [in]\t\t\tRecord memory record = records...\n    tag 95\t\t\tRecord memory record = records...\n      JUMPDEST \t\t\tRecord memory record = records...\n      DUP1 \t\t\tRecord memory record = records...\n      PUSH 1F\t\t\tRecord memory record = records...\n      ADD \t\t\tRecord memory record = records...\n      PUSH 20\t\t\tRecord memory record = records...\n      DUP1 \t\t\tRecord memory record = records...\n      SWAP2 \t\t\tRecord memory record = records...\n      DIV \t\t\tRecord memory record = records...\n      MUL \t\t\tRecord memory record = records...\n      PUSH 20\t\t\tRecord memory record = records...\n      ADD \t\t\tRecord memory record = records...\n      PUSH 40\t\t\tRecord memory record = records...\n      MLOAD \t\t\tRecord memory record = records...\n      SWAP1 \t\t\tRecord memory record = records...\n      DUP2 \t\t\tRecord memory record = records...\n      ADD \t\t\tRecord memory record = records...\n      PUSH 40\t\t\tRecord memory record = records...\n      MSTORE \t\t\tRecord memory record = records...\n      DUP1 \t\t\tRecord memory record = records...\n      SWAP3 \t\t\tRecord memory record = records...\n      SWAP2 \t\t\tRecord memory record = records...\n      SWAP1 \t\t\tRecord memory record = records...\n      DUP2 \t\t\tRecord memory record = records...\n      DUP2 \t\t\tRecord memory record = records...\n      MSTORE \t\t\tRecord memory record = records...\n      PUSH 20\t\t\tRecord memory record = records...\n      ADD \t\t\tRecord memory record = records...\n      DUP3 \t\t\tRecord memory record = records...\n      DUP1 \t\t\tRecord memory record = records...\n      SLOAD \t\t\tRecord memory record = records...\n      PUSH [tag] 96\t\t\tRecord memory record = records...\n      SWAP1 \t\t\tRecord memory record = records...\n      PUSH [tag] 46\t\t\tRecord memory record = records...\n      JUMP [in]\t\t\tRecord memory record = records...\n    tag 96\t\t\tRecord memory record = records...\n      JUMPDEST \t\t\tRecord memory record = records...\n      DUP1 \t\t\tRecord memory record = records...\n      ISZERO \t\t\tRecord memory record = records...\n      PUSH [tag] 97\t\t\tRecord memory record = records...\n      JUMPI \t\t\tRecord memory record = records...\n      DUP1 \t\t\tRecord memory record = records...\n      PUSH 1F\t\t\tRecord memory record = records...\n      LT \t\t\tRecord memory record = records...\n      PUSH [tag] 98\t\t\tRecord memory record = records...\n      JUMPI \t\t\tRecord memory record = records...\n      PUSH 100\t\t\tRecord memory record = records...\n      DUP1 \t\t\tRecord memory record = records...\n      DUP4 \t\t\tRecord memory record = records...\n      SLOAD \t\t\tRecord memory record = records...\n      DIV \t\t\tRecord memory record = records...\n      MUL \t\t\tRecord memory record = records...\n      DUP4 \t\t\tRecord memory record = records...\n      MSTORE \t\t\tRecord memory record = records...\n      SWAP2 \t\t\tRecord memory record = records...\n      PUSH 20\t\t\tRecord memory record = records...\n      ADD \t\t\tRecord memory record = records...\n      SWAP2 \t\t\tRecord memory record = records...\n      PUSH [tag] 97\t\t\tRecord memory record = records...\n      JUMP \t\t\tRecord memory record = records...\n    tag 98\t\t\tRecord memory record = records...\n      JUMPDEST \t\t\tRecord memory record = records...\n      DUP3 \t\t\tRecord memory record = records...\n      ADD \t\t\tRecord memory record = records...\n      SWAP2 \t\t\tRecord memory record = records...\n      SWAP1 \t\t\tRecord memory record = records...\n      PUSH 0\t\t\tRecord memory record = records...\n      MSTORE \t\t\tRecord memory record = records...\n      PUSH 20\t\t\tRecord memory record = records...\n      PUSH 0\t\t\tRecord memory record = records...\n      KECCAK256 \t\t\tRecord memory record = records...\n      SWAP1 \t\t\tRecord memory record = records...\n    tag 99\t\t\tRecord memory record = records...\n      JUMPDEST \t\t\tRecord memory record = records...\n      DUP2 \t\t\tRecord memory record = records...\n      SLOAD \t\t\tRecord memory record = records...\n      DUP2 \t\t\tRecord memory record = records...\n      MSTORE \t\t\tRecord memory record = records...\n      SWAP1 \t\t\tRecord memory record = records...\n      PUSH 1\t\t\tRecord memory record = records...\n      ADD \t\t\tRecord memory record = records...\n      SWAP1 \t\t\tRecord memory record = records...\n      PUSH 20\t\t\tRecord memory record = records...\n      ADD \t\t\tRecord memory record = records...\n      DUP1 \t\t\tRecord memory record = records...\n      DUP4 \t\t\tRecord memory record = records...\n      GT \t\t\tRecord memory record = records...\n      PUSH [tag] 99\t\t\tRecord memory record = records...\n      JUMPI \t\t\tRecord memory record = records...\n      DUP3 \t\t\tRecord memory record = records...\n      SWAP1 \t\t\tRecord memory record = records...\n      SUB \t\t\tRecord memory record = records...\n      PUSH 1F\t\t\tRecord memory record = records...\n      AND \t\t\tRecord memory record = records...\n      DUP3 \t\t\tRecord memory record = records...\n      ADD \t\t\tRecord memory record = records...\n      SWAP2 \t\t\tRecord memory record = records...\n    tag 97\t\t\tRecord memory record = records...\n      JUMPDEST \t\t\tRecord memory record = records...\n      POP \t\t\tRecord memory record = records...\n      POP \t\t\tRecord memory record = records...\n      POP \t\t\tRecord memory record = records...\n      POP \t\t\tRecord memory record = records...\n      POP \t\t\tRecord memory record = records...\n      DUP2 \t\t\tRecord memory record = records...\n      MSTORE \t\t\tRecord memory record = records...\n      PUSH 20\t\t\tRecord memory record = records...\n      ADD \t\t\tRecord memory record = records...\n      PUSH 1\t\t\tRecord memory record = records...\n      DUP3 \t\t\tRecord memory record = records...\n      ADD \t\t\tRecord memory record = records...\n      DUP1 \t\t\tRecord memory record = records...\n      SLOAD \t\t\tRecord memory record = records...\n      PUSH [tag] 100\t\t\tRecord memory record = records...\n      SWAP1 \t\t\tRecord memory record = records...\n      PUSH [tag] 46\t\t\tRecord memory record = records...\n      JUMP [in]\t\t\tRecord memory record = records...\n    tag 100\t\t\tRecord memory record = records...\n      JUMPDEST \t\t\tRecord memory record = records...\n      DUP1 \t\t\tRecord memory record = records...\n      PUSH 1F\t\t\tRecord memory record = records...\n      ADD \t\t\tRecord memory record = records...\n      PUSH 20\t\t\tRecord memory record = records...\n      DUP1 \t\t\tRecord memory record = records...\n      SWAP2 \t\t\tRecord memory record = records...\n      DIV \t\t\tRecord memory record = records...\n      MUL \t\t\tRecord memory record = records...\n      PUSH 20\t\t\tRecord memory record = records...\n      ADD \t\t\tRecord memory record = records...\n      PUSH 40\t\t\tRecord memory record = records...\n      MLOAD \t\t\tRecord memory record = records...\n      SWAP1 \t\t\tRecord memory record = records...\n      DUP2 \t\t\tRecord memory record = records...\n      ADD \t\t\tRecord memory record = records...\n      PUSH 40\t\t\tRecord memory record = records...\n      MSTORE \t\t\tRecord memory record = records...\n      DUP1 \t\t\tRecord memory record = records...\n      SWAP3 \t\t\tRecord memory record = records...\n      SWAP2 \t\t\tRecord memory record = records...\n      SWAP1 \t\t\tRecord memory record = records...\n      DUP2 \t\t\tRecord memory record = records...\n      DUP2 \t\t\tRecord memory record = records...\n      MSTORE \t\t\tRecord memory record = records...\n      PUSH 20\t\t\tRecord memory record = records...\n      ADD \t\t\tRecord memory record = records...\n      DUP3 \t\t\tRecord memory record = records...\n      DUP1 \t\t\tRecord memory record = records...\n      SLOAD \t\t\tRecord memory record = records...\n      PUSH [tag] 101\t\t\tRecord memory record = records...\n      SWAP1 \t\t\tRecord memory record = records...\n      PUSH [tag] 46\t\t\tRecord memory record = records...\n      JUMP [in]\t\t\tRecord memory record = records...\n    tag 101\t\t\tRecord memory record = records...\n      JUMPDEST \t\t\tRecord memory record = records...\n      DUP1 \t\t\tRecord memory record = records...\n      ISZERO \t\t\tRecord memory record = records...\n      PUSH [tag] 102\t\t\tRecord memory record = records...\n      JUMPI \t\t\tRecord memory record = records...\n      DUP1 \t\t\tRecord memory record = records...\n      PUSH 1F\t\t\tRecord memory record = records...\n      LT \t\t\tRecord memory record = records...\n      PUSH [tag] 103\t\t\tRecord memory record = records...\n      JUMPI \t\t\tRecord memory record = records...\n      PUSH 100\t\t\tRecord memory record = records...\n      DUP1 \t\t\tRecord memory record = records...\n      DUP4 \t\t\tRecord memory record = records...\n      SLOAD \t\t\tRecord memory record = records...\n      DIV \t\t\tRecord memory record = records...\n      MUL \t\t\tRecord memory record = records...\n      DUP4 \t\t\tRecord memory record = records...\n      MSTORE \t\t\tRecord memory record = records...\n      SWAP2 \t\t\tRecord memory record = records...\n      PUSH 20\t\t\tRecord memory record = records...\n      ADD \t\t\tRecord memory record = records...\n      SWAP2 \t\t\tRecord memory record = records...\n      PUSH [tag] 102\t\t\tRecord memory record = records...\n      JUMP \t\t\tRecord memory record = records...\n    tag 103\t\t\tRecord memory record = records...\n      JUMPDEST \t\t\tRecord memory record = records...\n      DUP3 \t\t\tRecord memory record = records...\n      ADD \t\t\tRecord memory record = records...\n      SWAP2 \t\t\tRecord memory record = records...\n      SWAP1 \t\t\tRecord memory record = records...\n      PUSH 0\t\t\tRecord memory record = records...\n      MSTORE \t\t\tRecord memory record = records...\n      PUSH 20\t\t\tRecord memory record = records...\n      PUSH 0\t\t\tRecord memory record = records...\n      KECCAK256 \t\t\tRecord memory record = records...\n      SWAP1 \t\t\tRecord memory record = records...\n    tag 104\t\t\tRecord memory record = records...\n      JUMPDEST \t\t\tRecord memory record = records...\n      DUP2 \t\t\tRecord memory record = records...\n      SLOAD \t\t\tRecord memory record = records...\n      DUP2 \t\t\tRecord memory record = records...\n      MSTORE \t\t\tRecord memory record = records...\n      SWAP1 \t\t\tRecord memory record = records...\n      PUSH 1\t\t\tRecord memory record = records...\n      ADD \t\t\tRecord memory record = records...\n      SWAP1 \t\t\tRecord memory record = records...\n      PUSH 20\t\t\tRecord memory record = records...\n      ADD \t\t\tRecord memory record = records...\n      DUP1 \t\t\tRecord memory record = records...\n      DUP4 \t\t\tRecord memory record = records...\n      GT \t\t\tRecord memory record = records...\n      PUSH [tag] 104\t\t\tRecord memory record = records...\n      JUMPI \t\t\tRecord memory record = records...\n      DUP3 \t\t\tRecord memory record = records...\n      SWAP1 \t\t\tRecord memory record = records...\n      SUB \t\t\tRecord memory record = records...\n      PUSH 1F\t\t\tRecord memory record = records...\n      AND \t\t\tRecord memory record = records...\n      DUP3 \t\t\tRecord memory record = records...\n      ADD \t\t\tRecord memory record = records...\n      SWAP2 \t\t\tRecord memory record = records...\n    tag 102\t\t\tRecord memory record = records...\n      JUMPDEST \t\t\tRecord memory record = records...\n      POP \t\t\tRecord memory record = records...\n      POP \t\t\tRecord memory record = records...\n      POP \t\t\tRecord memory record = records...\n      POP \t\t\tRecord memory record = records...\n      POP \t\t\tRecord memory record = records...\n      DUP2 \t\t\tRecord memory record = records...\n      MSTORE \t\t\tRecord memory record = records...\n      PUSH 20\t\t\tRecord memory record = records...\n      ADD \t\t\tRecord memory record = records...\n      PUSH 2\t\t\tRecord memory record = records...\n      DUP3 \t\t\tRecord memory record = records...\n      ADD \t\t\tRecord memory record = records...\n      DUP1 \t\t\tRecord memory record = records...\n      SLOAD \t\t\tRecord memory record = records...\n      PUSH [tag] 105\t\t\tRecord memory record = records...\n      SWAP1 \t\t\tRecord memory record = records...\n      PUSH [tag] 46\t\t\tRecord memory record = records...\n      JUMP [in]\t\t\tRecord memory record = records...\n    tag 105\t\t\tRecord memory record = records...\n      JUMPDEST \t\t\tRecord memory record = records...\n      DUP1 \t\t\tRecord memory record = records...\n      PUSH 1F\t\t\tRecord memory record = records...\n      ADD \t\t\tRecord memory record = records...\n      PUSH 20\t\t\tRecord memory record = records...\n      DUP1 \t\t\tRecord memory record = records...\n      SWAP2 \t\t\tRecord memory record = records...\n      DIV \t\t\tRecord memory record = records...\n      MUL \t\t\tRecord memory record = records...\n      PUSH 20\t\t\tRecord memory record = records...\n      ADD \t\t\tRecord memory record = records...\n      PUSH 40\t\t\tRecord memory record = records...\n      MLOAD \t\t\tRecord memory record = records...\n      SWAP1 \t\t\tRecord memory record = records...\n      DUP2 \t\t\tRecord memory record = records...\n      ADD \t\t\tRecord memory record = records...\n      PUSH 40\t\t\tRecord memory record = records...\n      MSTORE \t\t\tRecord memory record = records...\n      DUP1 \t\t\tRecord memory record = records...\n      SWAP3 \t\t\tRecord memory record = records...\n      SWAP2 \t\t\tRecord memory record = records...\n      SWAP1 \t\t\tRecord memory record = records...\n      DUP2 \t\t\tRecord memory record = records...\n      DUP2 \t\t\tRecord memory record = records...\n      MSTORE \t\t\tRecord memory record = records...\n      PUSH 20\t\t\tRecord memory record = records...\n      ADD \t\t\tRecord memory record = records...\n      DUP3 \t\t\tRecord memory record = records...\n      DUP1 \t\t\tRecord memory record = records...\n      SLOAD \t\t\tRecord memory record = records...\n      PUSH [tag] 106\t\t\tRecord memory record = records...\n      SWAP1 \t\t\tRecord memory record = records...\n      PUSH [tag] 46\t\t\tRecord memory record = records...\n      JUMP [in]\t\t\tRecord memory record = records...\n    tag 106\t\t\tRecord memory record = records...\n      JUMPDEST \t\t\tRecord memory record = records...\n      DUP1 \t\t\tRecord memory record = records...\n      ISZERO \t\t\tRecord memory record = records...\n      PUSH [tag] 107\t\t\tRecord memory record = records...\n      JUMPI \t\t\tRecord memory record = records...\n      DUP1 \t\t\tRecord memory record = records...\n      PUSH 1F\t\t\tRecord memory record = records...\n      LT \t\t\tRecord memory record = records...\n      PUSH [tag] 108\t\t\tRecord memory record = records...\n      JUMPI \t\t\tRecord memory record = records...\n      PUSH 100\t\t\tRecord memory record = records...\n      DUP1 \t\t\tRecord memory record = records...\n      DUP4 \t\t\tRecord memory record = records...\n      SLOAD \t\t\tRecord memory record = records...\n      DIV \t\t\tRecord memory record = records...\n      MUL \t\t\tRecord memory record = records...\n      DUP4 \t\t\tRecord memory record = records...\n      MSTORE \t\t\tRecord memory record = records...\n      SWAP2 \t\t\tRecord memory record = records...\n      PUSH 20\t\t\tRecord memory record = records...\n      ADD \t\t\tRecord memory record = records...\n      SWAP2 \t\t\tRecord memory record = records...\n      PUSH [tag] 107\t\t\tRecord memory record = records...\n      JUMP \t\t\tRecord memory record = records...\n    tag 108\t\t\tRecord memory record = records...\n      JUMPDEST \t\t\tRecord memory record = records...\n      DUP3 \t\t\tRecord memory record = records...\n      ADD \t\t\tRecord memory record = records...\n      SWAP2 \t\t\tRecord memory record = records...\n      SWAP1 \t\t\tRecord memory record = records...\n      PUSH 0\t\t\tRecord memory record = records...\n      MSTORE \t\t\tRecord memory record = records...\n      PUSH 20\t\t\tRecord memory record = records...\n      PUSH 0\t\t\tRecord memory record = records...\n      KECCAK256 \t\t\tRecord memory record = records...\n      SWAP1 \t\t\tRecord memory record = records...\n    tag 109\t\t\tRecord memory record = records...\n      JUMPDEST \t\t\tRecord memory record = records...\n      DUP2 \t\t\tRecord memory record = records...\n      SLOAD \t\t\tRecord memory record = records...\n      DUP2 \t\t\tRecord memory record = records...\n      MSTORE \t\t\tRecord memory record = records...\n      SWAP1 \t\t\tRecord memory record = records...\n      PUSH 1\t\t\tRecord memory record = records...\n      ADD \t\t\tRecord memory record = records...\n      SWAP1 \t\t\tRecord memory record = records...\n      PUSH 20\t\t\tRecord memory record = records...\n      ADD \t\t\tRecord memory record = records...\n      DUP1 \t\t\tRecord memory record = records...\n      DUP4 \t\t\tRecord memory record = records...\n      GT \t\t\tRecord memory record = records...\n      PUSH [tag] 109\t\t\tRecord memory record = records...\n      JUMPI \t\t\tRecord memory record = records...\n      DUP3 \t\t\tRecord memory record = records...\n      SWAP1 \t\t\tRecord memory record = records...\n      SUB \t\t\tRecord memory record = records...\n      PUSH 1F\t\t\tRecord memory record = records...\n      AND \t\t\tRecord memory record = records...\n      DUP3 \t\t\tRecord memory record = records...\n      ADD \t\t\tRecord memory record = records...\n      SWAP2 \t\t\tRecord memory record = records...\n    tag 107\t\t\tRecord memory record = records...\n      JUMPDEST \t\t\tRecord memory record = records...\n      POP \t\t\tRecord memory record = records...\n      POP \t\t\tRecord memory record = records...\n      POP \t\t\tRecord memory record = records...\n      POP \t\t\tRecord memory record = records...\n      POP \t\t\tRecord memory record = records...\n      DUP2 \t\t\tRecord memory record = records...\n      MSTORE \t\t\tRecord memory record = records...\n      PUSH 20\t\t\tRecord memory record = records...\n      ADD \t\t\tRecord memory record = records...\n      PUSH 3\t\t\tRecord memory record = records...\n      DUP3 \t\t\tRecord memory record = records...\n      ADD \t\t\tRecord memory record = records...\n      PUSH 0\t\t\tRecord memory record = records...\n      SWAP1 \t\t\tRecord memory record = records...\n      SLOAD \t\t\tRecord memory record = records...\n      SWAP1 \t\t\tRecord memory record = records...\n      PUSH 100\t\t\tRecord memory record = records...\n      EXP \t\t\tRecord memory record = records...\n      SWAP1 \t\t\tRecord memory record = records...\n      DIV \t\t\tRecord memory record = records...\n      PUSH FFFFFFFFFFFFFFFFFFFFFFFFFFFFFFFFFFFFFFFF\t\t\tRecord memory record = records...\n      AND \t\t\tRecord memory record = records...\n      PUSH FFFFFFFFFFFFFFFFFFFFFFFFFFFFFFFFFFFFFFFF\t\t\tRecord memory record = records...\n      AND \t\t\tRecord memory record = records...\n      PUSH FFFFFFFFFFFFFFFFFFFFFFFFFFFFFFFFFFFFFFFF\t\t\tRecord memory record = records...\n      AND \t\t\tRecord memory record = records...\n      DUP2 \t\t\tRecord memory record = records...\n      MSTORE \t\t\tRecord memory record = records...\n      PUSH 20\t\t\tRecord memory record = records...\n      ADD \t\t\tRecord memory record = records...\n      PUSH 4\t\t\tRecord memory record = records...\n      DUP3 \t\t\tRecord memory record = records...\n      ADD \t\t\tRecord memory record = records...\n      SLOAD \t\t\tRecord memory record = records...\n      DUP2 \t\t\tRecord memory record = records...\n      MSTORE \t\t\tRecord memory record = records...\n      POP \t\t\tRecord memory record = records...\n      POP \t\t\tRecord memory record = records...\n      SWAP1 \t\t\tRecord memory record = records...\n      POP \t\t\tRecord memory record = records...\n      DUP5 \t\t\t_name\n      DUP1 \t\t\tkeccak256(bytes(_name))\n      MLOAD \t\t\tkeccak256(bytes(_name))\n      SWAP1 \t\t\tkeccak256(bytes(_name))\n      PUSH 20\t\t\tkeccak256(bytes(_name))\n      ADD \t\t\tkeccak256(bytes(_name))\n      KECCAK256 \t\t\tkeccak256(bytes(_name))\n      DUP2 \t\t\trecord\n      PUSH 0\t\t\trecord.name\n      ADD \t\t\trecord.name\n      MLOAD \t\t\trecord.name\n      DUP1 \t\t\tkeccak256(bytes(record.name))\n      MLOAD \t\t\tkeccak256(bytes(record.name))\n      SWAP1 \t\t\tkeccak256(bytes(record.name))\n      PUSH 20\t\t\tkeccak256(bytes(record.name))\n      ADD \t\t\tkeccak256(bytes(record.name))\n      KECCAK256 \t\t\tkeccak256(bytes(record.name))\n      EQ \t\t\tkeccak256(bytes(record.name)) ...\n      DUP1 \t\t\tkeccak256(bytes(record.name)) ...\n      ISZERO \t\t\tkeccak256(bytes(record.name)) ...\n      PUSH [tag] 110\t\t\tkeccak256(bytes(record.name)) ...\n      JUMPI \t\t\tkeccak256(bytes(record.name)) ...\n      POP \t\t\tkeccak256(bytes(record.name)) ...\n      DUP4 \t\t\t_timestamp\n      DUP1 \t\t\tkeccak256(bytes(_timestamp))\n      MLOAD \t\t\tkeccak256(bytes(_timestamp))\n      SWAP1 \t\t\tkeccak256(bytes(_timestamp))\n      PUSH 20\t\t\tkeccak256(bytes(_timestamp))\n      ADD \t\t\tkeccak256(bytes(_timestamp))\n      KECCAK256 \t\t\tkeccak256(bytes(_timestamp))\n      DUP2 \t\t\trecord\n      PUSH 20\t\t\trecord.timestamp\n      ADD \t\t\trecord.timestamp\n      MLOAD \t\t\trecord.timestamp\n      DUP1 \t\t\tkeccak256(bytes(record.timesta...\n      MLOAD \t\t\tkeccak256(bytes(record.timesta...\n      SWAP1 \t\t\tkeccak256(bytes(record.timesta...\n      PUSH 20\t\t\tkeccak256(bytes(record.timesta...\n      ADD \t\t\tkeccak256(bytes(record.timesta...\n      KECCAK256 \t\t\tkeccak256(bytes(record.timesta...\n      EQ \t\t\tkeccak256(bytes(record.timesta...\n    tag 110\t\t\tkeccak256(bytes(record.name)) ...\n      JUMPDEST \t\t\tkeccak256(bytes(record.name)) ...\n      DUP1 \t\t\tkeccak256(bytes(record.name)) ...\n      ISZERO \t\t\tkeccak256(bytes(record.name)) ...\n      PUSH [tag] 111\t\t\tkeccak256(bytes(record.name)) ...\n      JUMPI \t\t\tkeccak256(bytes(record.name)) ...\n      POP \t\t\tkeccak256(bytes(record.name)) ...\n      DUP3 \t\t\t_hash\n      DUP1 \t\t\tkeccak256(bytes(_hash))\n      MLOAD \t\t\tkeccak256(bytes(_hash))\n      SWAP1 \t\t\tkeccak256(bytes(_hash))\n      PUSH 20\t\t\tkeccak256(bytes(_hash))\n      ADD \t\t\tkeccak256(bytes(_hash))\n      KECCAK256 \t\t\tkeccak256(bytes(_hash))\n      DUP2 \t\t\trecord\n      PUSH 40\t\t\trecord.hash\n      ADD \t\t\trecord.hash\n      MLOAD \t\t\trecord.hash\n      DUP1 \t\t\tkeccak256(bytes(record.hash))\n      MLOAD \t\t\tkeccak256(bytes(record.hash))\n      SWAP1 \t\t\tkeccak256(bytes(record.hash))\n      PUSH 20\t\t\tkeccak256(bytes(record.hash))\n      ADD \t\t\tkeccak256(bytes(record.hash))\n      KECCAK256 \t\t\tkeccak256(bytes(record.hash))\n      EQ \t\t\tkeccak256(bytes(record.hash)) ...\n    tag 111\t\t\tkeccak256(bytes(record.name)) ...\n      JUMPDEST \t\t\tkeccak256(bytes(record.name)) ...\n      SWAP2 \t\t\treturn (\\r\\n            keccak...\n      POP \t\t\treturn (\\r\\n            keccak...\n      POP \t\t\treturn (\\r\\n            keccak...\n      SWAP5 \t\t\tfunction verifyRecord(\\r\\n    ...\n      SWAP4 \t\t\tfunction verifyRecord(\\r\\n    ...\n      POP \t\t\tfunction verifyRecord(\\r\\n    ...\n      POP \t\t\tfunction verifyRecord(\\r\\n    ...\n      POP \t\t\tfunction verifyRecord(\\r\\n    ...\n      POP \t\t\tfunction verifyRecord(\\r\\n    ...\n      JUMP [out]\t\t\tfunction verifyRecord(\\r\\n    ...\n    tag 85\t\t\t\n      JUMPDEST \t\t\t\n      DUP3 \t\t\t\n      DUP1 \t\t\t\n      SLOAD \t\t\t\n      PUSH [tag] 112\t\t\t\n      SWAP1 \t\t\t\n      PUSH [tag] 46\t\t\t\n      JUMP [in]\t\t\t\n    tag 112\t\t\t\n      JUMPDEST \t\t\t\n      SWAP1 \t\t\t\n      PUSH 0\t\t\t\n      MSTORE \t\t\t\n      PUSH 20\t\t\t\n      PUSH 0\t\t\t\n      KECCAK256 \t\t\t\n      SWAP1 \t\t\t\n      PUSH 1F\t\t\t\n      ADD \t\t\t\n      PUSH 20\t\t\t\n      SWAP1 \t\t\t\n      DIV \t\t\t\n      DUP2 \t\t\t\n      ADD \t\t\t\n      SWAP3 \t\t\t\n      DUP3 \t\t\t\n      PUSH [tag] 114\t\t\t\n      JUMPI \t\t\t\n      PUSH 0\t\t\t\n      DUP6 \t\t\t\n      SSTORE \t\t\t\n      PUSH [tag] 113\t\t\t\n      JUMP \t\t\t\n    tag 114\t\t\t\n      JUMPDEST \t\t\t\n      DUP3 \t\t\t\n      PUSH 1F\t\t\t\n      LT \t\t\t\n      PUSH [tag] 115\t\t\t\n      JUMPI \t\t\t\n      DUP1 \t\t\t\n      MLOAD \t\t\t\n      PUSH FF\t\t\t\n      NOT \t\t\t\n      AND \t\t\t\n      DUP4 \t\t\t\n      DUP1 \t\t\t\n      ADD \t\t\t\n      OR \t\t\t\n      DUP6 \t\t\t\n      SSTORE \t\t\t\n      PUSH [tag] 113\t\t\t\n      JUMP \t\t\t\n    tag 115\t\t\t\n      JUMPDEST \t\t\t\n      DUP3 \t\t\t\n      DUP1 \t\t\t\n      ADD \t\t\t\n      PUSH 1\t\t\t\n      ADD \t\t\t\n      DUP6 \t\t\t\n      SSTORE \t\t\t\n      DUP3 \t\t\t\n      ISZERO \t\t\t\n      PUSH [tag] 113\t\t\t\n      JUMPI \t\t\t\n      SWAP2 \t\t\t\n      DUP3 \t\t\t\n      ADD \t\t\t\n    tag 116\t\t\t\n      JUMPDEST \t\t\t\n      DUP3 \t\t\t\n      DUP2 \t\t\t\n      GT \t\t\t\n      ISZERO \t\t\t\n      PUSH [tag] 117\t\t\t\n      JUMPI \t\t\t\n      DUP3 \t\t\t\n      MLOAD \t\t\t\n      DUP3 \t\t\t\n      SSTORE \t\t\t\n      SWAP2 \t\t\t\n      PUSH 20\t\t\t\n      ADD \t\t\t\n      SWAP2 \t\t\t\n      SWAP1 \t\t\t\n      PUSH 1\t\t\t\n      ADD \t\t\t\n      SWAP1 \t\t\t\n      PUSH [tag] 116\t\t\t\n      JUMP \t\t\t\n    tag 117\t\t\t\n      JUMPDEST \t\t\t\n    tag 113\t\t\t\n      JUMPDEST \t\t\t\n      POP \t\t\t\n      SWAP1 \t\t\t\n      POP \t\t\t\n      PUSH [tag] 118\t\t\t\n      SWAP2 \t\t\t\n      SWAP1 \t\t\t\n      PUSH [tag] 119\t\t\t\n      JUMP [in]\t\t\t\n    tag 118\t\t\t\n      JUMPDEST \t\t\t\n      POP \t\t\t\n      SWAP1 \t\t\t\n      JUMP [out]\t\t\t\n    tag 119\t\t\t\n      JUMPDEST \t\t\t\n    tag 120\t\t\t\n      JUMPDEST \t\t\t\n      DUP1 \t\t\t\n      DUP3 \t\t\t\n      GT \t\t\t\n      ISZERO \t\t\t\n      PUSH [tag] 121\t\t\t\n      JUMPI \t\t\t\n      PUSH 0\t\t\t\n      DUP2 \t\t\t\n      PUSH 0\t\t\t\n      SWAP1 \t\t\t\n      SSTORE \t\t\t\n      POP \t\t\t\n      PUSH 1\t\t\t\n      ADD \t\t\t\n      PUSH [tag] 120\t\t\t\n      JUMP \t\t\t\n    tag 121\t\t\t\n      JUMPDEST \t\t\t\n      POP \t\t\t\n      SWAP1 \t\t\t\n      JUMP [out]\t\t\t\n    tag 122\t\t\t-License-Identifier: MIT\\r\\npr...\n      JUMPDEST \t\t\t-License-Identifier: MIT\\r\\npr...\n      PUSH 0\t\t\tsolidi\n      PUSH 40\t\t\tnd\n      MLOAD \t\t\tt Attenda\n      SWAP1 \t\t\t\\n\\r\\ncontract Attenda\n      POP \t\t\t\\n\\r\\ncontract Attenda\n      SWAP1 \t\t\t-License-Identifier: MIT\\r\\npr...\n      JUMP [out]\t\t\t-License-Identifier: MIT\\r\\npr...\n    tag 123\t\t\ttruct Record {\\r\\n        stri...\n      JUMPDEST \t\t\ttruct Record {\\r\\n        stri...\n      PUSH 0\t\t\te\n      DUP1 \t\t\to\n      REVERT \t\t\tess recorded\n    tag 124\t\t\t uint256 blockNumber;\\r\\n    }...\n      JUMPDEST \t\t\t uint256 blockNumber;\\r\\n    }...\n      PUSH 0\t\t\tu\n      DUP1 \t\t\ts\n      REVERT \t\t\t    construc\n    tag 125\t\t\t     owner = msg.sender;\\r\\n  ...\n      JUMPDEST \t\t\t     owner = msg.sender;\\r\\n  ...\n      PUSH 0\t\t\t\\r\\n    m\n      DUP2 \t\t\t\\n    \n      SWAP1 \t\t\tyOwner() {\\r\\n    \n      POP \t\t\tyOwner() {\\r\\n    \n      SWAP2 \t\t\t     owner = msg.sender;\\r\\n  ...\n      SWAP1 \t\t\t     owner = msg.sender;\\r\\n  ...\n      POP \t\t\t     owner = msg.sender;\\r\\n  ...\n      JUMP [out]\t\t\t     owner = msg.sender;\\r\\n  ...\n    tag 126\t\t\tmsg.sender == owner, \"Only own...\n      JUMPDEST \t\t\tmsg.sender == owner, \"Only own...\n      PUSH [tag] 159\t\t\t   }\\r\\n    \\r\\n    function\n      DUP2 \t\t\tnctio\n      PUSH [tag] 125\t\t\t   }\\r\\n    \\r\\n    function\n      JUMP [in]\t\t\t   }\\r\\n    \\r\\n    function\n    tag 159\t\t\t   }\\r\\n    \\r\\n    function\n      JUMPDEST \t\t\t   }\\r\\n    \\r\\n    function\n      DUP2 \t\t\t  _;\\r\n      EQ \t\t\t     _;\\r\\n    }\\r\\n    \\r\\n  ...\n      PUSH [tag] 160\t\t\ton\");\\r\\n        _;\\r\\n    }\\r...\n      JUMPI \t\t\ton\");\\r\\n        _;\\r\\n    }\\r...\n      PUSH 0\t\t\t \n      DUP1 \t\t\t\\n\n      REVERT \t\t\tecord(\\r\\n    \n    tag 160\t\t\ton\");\\r\\n        _;\\r\\n    }\\r...\n      JUMPDEST \t\t\ton\");\\r\\n        _;\\r\\n    }\\r...\n      POP \t\t\tmsg.sender == owner, \"Only own...\n      JUMP [out]\t\t\tmsg.sender == owner, \"Only own...\n    tag 127\t\t\tory _name,\\r\\n        string m...\n      JUMPDEST \t\t\tory _name,\\r\\n        string m...\n      PUSH 0\t\t\t\\n    \n      DUP2 \t\t\tblic o\n      CALLDATALOAD \t\t\tash\\r\\n    ) public on\n      SWAP1 \t\t\tmemory _hash\\r\\n    ) public o...\n      POP \t\t\tmemory _hash\\r\\n    ) public o...\n      PUSH [tag] 162\t\t\t\\r\\n        records.push(Recor...\n      DUP2 \t\t\trd({\\r\n      PUSH [tag] 126\t\t\t\\r\\n        records.push(Recor...\n      JUMP [in]\t\t\t\\r\\n        records.push(Recor...\n    tag 162\t\t\t\\r\\n        records.push(Recor...\n      JUMPDEST \t\t\t\\r\\n        records.push(Recor...\n      SWAP3 \t\t\tory _name,\\r\\n        string m...\n      SWAP2 \t\t\tory _name,\\r\\n        string m...\n      POP \t\t\tory _name,\\r\\n        string m...\n      POP \t\t\tory _name,\\r\\n        string m...\n      JUMP [out]\t\t\tory _name,\\r\\n        string m...\n    tag 11\t\t\tname: _name,\\r\\n            ti...\n      JUMPDEST \t\t\tname: _name,\\r\\n            ti...\n      PUSH 0\t\t\t   has\n      PUSH 20\t\t\ter\n      DUP3 \t\t\tBy: msg.s\n      DUP5 \t\t\t record\n      SUB \t\t\t     recordedBy: msg.se\n      SLT \t\t\t         recordedBy: msg.sende...\n      ISZERO \t\t\t            recordedBy: msg.se...\n      PUSH [tag] 164\t\t\t            recordedBy: msg.se...\n      JUMPI \t\t\t            recordedBy: msg.se...\n      PUSH [tag] 165\t\t\t           blockNumber: block....\n      PUSH [tag] 123\t\t\t           blockNumber: block....\n      JUMP [in]\t\t\t           blockNumber: block....\n    tag 165\t\t\t           blockNumber: block....\n      JUMPDEST \t\t\t           blockNumber: block....\n    tag 164\t\t\t            recordedBy: msg.se...\n      JUMPDEST \t\t\t            recordedBy: msg.se...\n      PUSH 0\t\t\t2\n      PUSH [tag] 166\t\t\tcords.length;\\r\\n    }\\r\\n    ...\n      DUP5 \t\t\tecord(u\n      DUP3 \t\t\ttion g\n      DUP6 \t\t\t \\r\\n    fu\n      ADD \t\t\t\\n    \\r\\n    function ge\n      PUSH [tag] 127\t\t\tcords.length;\\r\\n    }\\r\\n    ...\n      JUMP [in]\t\t\tcords.length;\\r\\n    }\\r\\n    ...\n    tag 166\t\t\tcords.length;\\r\\n    }\\r\\n    ...\n      JUMPDEST \t\t\tcords.length;\\r\\n    }\\r\\n    ...\n      SWAP2 \t\t\t return records.length;\\r\\n   ...\n      POP \t\t\t return records.length;\\r\\n   ...\n      POP \t\t\tt() public view returns (uint2...\n      SWAP3 \t\t\tname: _name,\\r\\n            ti...\n      SWAP2 \t\t\tname: _name,\\r\\n            ti...\n      POP \t\t\tname: _name,\\r\\n            ti...\n      POP \t\t\tname: _name,\\r\\n            ti...\n      JUMP [out]\t\t\tname: _name,\\r\\n            ti...\n    tag 128\t\t\tw returns (\\r\\n        string ...\n      JUMPDEST \t\t\tw returns (\\r\\n        string ...\n      PUSH 0\t\t\tmemory\n      DUP2 \t\t\t     \n      MLOAD \t\t\try,\\r\\n       \n      SWAP1 \t\t\ttring memory,\\r\\n       \n      POP \t\t\ttring memory,\\r\\n       \n      SWAP2 \t\t\tw returns (\\r\\n        string ...\n      SWAP1 \t\t\tw returns (\\r\\n        string ...\n      POP \t\t\tw returns (\\r\\n        string ...\n      JUMP [out]\t\t\tw returns (\\r\\n        string ...\n    tag 129\t\t\t      uint256\\r\\n    ) {\\r\\n  ...\n      JUMPDEST \t\t\t      uint256\\r\\n    ) {\\r\\n  ...\n      PUSH 0\t\t\t\");\\r\\n      \n      DUP3 \t\t\t= reco\n      DUP3 \t\t\tcor\n      MSTORE \t\t\tmory record = recor\n      PUSH 20\t\t\t    \n      DUP3 \t\t\t\\r\\n \n      ADD \t\t\trn (\\r\\n        \n      SWAP1 \t\t\t;\\r\\n        return (\\r\\n     ...\n      POP \t\t\t;\\r\\n        return (\\r\\n     ...\n      SWAP3 \t\t\t      uint256\\r\\n    ) {\\r\\n  ...\n      SWAP2 \t\t\t      uint256\\r\\n    ) {\\r\\n  ...\n      POP \t\t\t      uint256\\r\\n    ) {\\r\\n  ...\n      POP \t\t\t      uint256\\r\\n    ) {\\r\\n  ...\n      JUMP [out]\t\t\t      uint256\\r\\n    ) {\\r\\n  ...\n    tag 130\t\t\tame,\\r\\n            record.tim...\n      JUMPDEST \t\t\tame,\\r\\n            record.tim...\n      PUSH 0\t\t\t \n    tag 170\t\t\tord.recordedBy,\\r\\n           ...\n      JUMPDEST \t\t\tord.recordedBy,\\r\\n           ...\n      DUP4 \t\t\t,\\r\\n   \n      DUP2 \t\t\td\n      LT \t\t\trdedBy,\\r\\n    \n      ISZERO \t\t\tord.recordedBy,\\r\\n           ...\n      PUSH [tag] 172\t\t\tord.recordedBy,\\r\\n           ...\n      JUMPI \t\t\tord.recordedBy,\\r\\n           ...\n      DUP1 \t\t\t(\n      DUP3 \t\t\teco\n      ADD \t\t\tifyRecord(\\r\n      MLOAD \t\t\ton verifyRecord(\\r\\n\n      DUP2 \t\t\tn\n      DUP5 \t\t\t   \n      ADD \t\t\t \\r\\n    func\n      MSTORE \t\t\t }\\r\\n    \\r\\n    function ver...\n      PUSH 20\t\t\tbl\n      DUP2 \t\t\tr\n      ADD \t\t\trecord.blo\n      SWAP1 \t\t\t     record.blo\n      POP \t\t\t     record.blo\n      PUSH [tag] 170\t\t\tord.recordedBy,\\r\\n           ...\n      JUMP \t\t\tord.recordedBy,\\r\\n           ...\n    tag 172\t\t\tord.recordedBy,\\r\\n           ...\n      JUMPDEST \t\t\tord.recordedBy,\\r\\n           ...\n      DUP4 \t\t\t   str\n      DUP2 \t\t\t \n      GT \t\t\t\\n        stri\n      ISZERO \t\t\tx,\\r\\n        string memory _n...\n      PUSH [tag] 173\t\t\tx,\\r\\n        string memory _n...\n      JUMPI \t\t\tx,\\r\\n        string memory _n...\n      PUSH 0\t\t\ty\n      DUP5 \t\t\ting me\n      DUP5 \t\t\t  s\n      ADD \t\t\t      string mem\n      MSTORE \t\t\tmp,\\r\\n        string memory \n    tag 173\t\t\tx,\\r\\n        string memory _n...\n      JUMPDEST \t\t\tx,\\r\\n        string memory _n...\n      POP \t\t\trecord.hash,\\r\\n            re...\n      POP \t\t\tame,\\r\\n            record.tim...\n      POP \t\t\tame,\\r\\n            record.tim...\n      POP \t\t\tame,\\r\\n            record.tim...\n      JUMP [out]\t\t\tame,\\r\\n            record.tim...\n    tag 131\t\t\tew returns (bool) {\\r\\n       ...\n      JUMPDEST \t\t\tew returns (bool) {\\r\\n       ...\n      PUSH 0\t\t\tx < re\n      PUSH 1F\t\t\t  \n      NOT \t\t\t      R\n      PUSH 1F\t\t\t;\\r\n      DUP4 \t\t\tounds\n      ADD \t\t\tof bounds\");\\r\\n\n      AND \t\t\tout of bounds\");\\r\\n        Re\n      SWAP1 \t\t\th, \"Index out of bounds\");\\r\\n...\n      POP \t\t\th, \"Index out of bounds\");\\r\\n...\n      SWAP2 \t\t\tew returns (bool) {\\r\\n       ...\n      SWAP1 \t\t\tew returns (bool) {\\r\\n       ...\n      POP \t\t\tew returns (bool) {\\r\\n       ...\n      JUMP [out]\t\t\tew returns (bool) {\\r\\n       ...\n    tag 132\t\t\trecord = records[index];\\r\\n  ...\n      JUMPDEST \t\t\trecord = records[index];\\r\\n  ...\n      PUSH 0\t\t\t ke\n      PUSH [tag] 176\t\t\t\\n            keccak256(bytes(...\n      DUP3 \t\t\trd.ti\n      PUSH [tag] 128\t\t\t\\n            keccak256(bytes(...\n      JUMP [in]\t\t\t\\n            keccak256(bytes(...\n    tag 176\t\t\t\\n            keccak256(bytes(...\n      JUMPDEST \t\t\t\\n            keccak256(bytes(...\n      PUSH [tag] 177\t\t\tak256(bytes(_timestamp)) &&\\r\\...\n      DUP2 \t\t\thash))\n      DUP6 \t\t\tcor\n      PUSH [tag] 129\t\t\tak256(bytes(_timestamp)) &&\\r\\...\n      JUMP [in]\t\t\tak256(bytes(_timestamp)) &&\\r\\...\n    tag 177\t\t\tak256(bytes(_timestamp)) &&\\r\\...\n      JUMPDEST \t\t\tak256(bytes(_timestamp)) &&\\r\\...\n      SWAP4 \t\t\t== keccak256(bytes(_timestamp)...\n      POP \t\t\t== keccak256(bytes(_timestamp)...\n      PUSH [tag] 178\t\t\t256(bytes(_hash))\\r\\n        )...\n      DUP2 \t\t\t\n      DUP6 \t\t\t\n      PUSH 20\t\t\t  }\\r\n      DUP7 \t\t\t );\\r\\n\n      ADD \t\t\t     );\\r\\n    }\\r\\n\n      PUSH [tag] 130\t\t\t256(bytes(_hash))\\r\\n        )...\n      JUMP [in]\t\t\t256(bytes(_hash))\\r\\n        )...\n    tag 178\t\t\t256(bytes(_hash))\\r\\n        )...\n      JUMPDEST \t\t\t256(bytes(_hash))\\r\\n        )...\n      PUSH [tag] 179\t\t\t\n      DUP2 \t\t\t\n      PUSH [tag] 131\t\t\t\n      JUMP [in]\t\t\t\n    tag 179\t\t\t\n      JUMPDEST \t\t\t\n      DUP5 \t\t\t\n      ADD \t\t\t\n      SWAP2 \t\t\t\n      POP \t\t\t\n      POP \t\t\tcak256(bytes(_name)) &&\\r\\n   ...\n      SWAP3 \t\t\trecord = records[index];\\r\\n  ...\n      SWAP2 \t\t\trecord = records[index];\\r\\n  ...\n      POP \t\t\trecord = records[index];\\r\\n  ...\n      POP \t\t\trecord = records[index];\\r\\n  ...\n      JUMP [out]\t\t\trecord = records[index];\\r\\n  ...\n    tag 133\t\t\t\n      JUMPDEST \t\t\t\n      PUSH 0\t\t\t\n      PUSH FFFFFFFFFFFFFFFFFFFFFFFFFFFFFFFFFFFFFFFF\t\t\t\n      DUP3 \t\t\t\n      AND \t\t\t\n      SWAP1 \t\t\t\n      POP \t\t\t\n      SWAP2 \t\t\t\n      SWAP1 \t\t\t\n      POP \t\t\t\n      JUMP [out]\t\t\t\n    tag 134\t\t\t\n      JUMPDEST \t\t\t\n      PUSH 0\t\t\t\n      PUSH [tag] 182\t\t\t\n      DUP3 \t\t\t\n      PUSH [tag] 133\t\t\t\n      JUMP [in]\t\t\t\n    tag 182\t\t\t\n      JUMPDEST \t\t\t\n      SWAP1 \t\t\t\n      POP \t\t\t\n      SWAP2 \t\t\t\n      SWAP1 \t\t\t\n      POP \t\t\t\n      JUMP [out]\t\t\t\n    tag 135\t\t\t\n      JUMPDEST \t\t\t\n      PUSH [tag] 184\t\t\t\n      DUP2 \t\t\t\n      PUSH [tag] 134\t\t\t\n      JUMP [in]\t\t\t\n    tag 184\t\t\t\n      JUMPDEST \t\t\t\n      DUP3 \t\t\t\n      MSTORE \t\t\t\n      POP \t\t\t\n      POP \t\t\t\n      JUMP [out]\t\t\t\n    tag 136\t\t\t\n      JUMPDEST \t\t\t\n      PUSH [tag] 186\t\t\t\n      DUP2 \t\t\t\n      PUSH [tag] 125\t\t\t\n      JUMP [in]\t\t\t\n    tag 186\t\t\t\n      JUMPDEST \t\t\t\n      DUP3 \t\t\t\n      MSTORE \t\t\t\n      POP \t\t\t\n      POP \t\t\t\n      JUMP [out]\t\t\t\n    tag 14\t\t\t\n      JUMPDEST \t\t\t\n      PUSH 0\t\t\t\n      PUSH A0\t\t\t\n      DUP3 \t\t\t\n      ADD \t\t\t\n      SWAP1 \t\t\t\n      POP \t\t\t\n      DUP2 \t\t\t\n      DUP2 \t\t\t\n      SUB \t\t\t\n      PUSH 0\t\t\t\n      DUP4 \t\t\t\n      ADD \t\t\t\n      MSTORE \t\t\t\n      PUSH [tag] 188\t\t\t\n      DUP2 \t\t\t\n      DUP9 \t\t\t\n      PUSH [tag] 132\t\t\t\n      JUMP [in]\t\t\t\n    tag 188\t\t\t\n      JUMPDEST \t\t\t\n      SWAP1 \t\t\t\n      POP \t\t\t\n      DUP2 \t\t\t\n      DUP2 \t\t\t\n      SUB \t\t\t\n      PUSH 20\t\t\t\n      DUP4 \t\t\t\n      ADD \t\t\t\n      MSTORE \t\t\t\n      PUSH [tag] 189\t\t\t\n      DUP2 \t\t\t\n      DUP8 \t\t\t\n      PUSH [tag] 132\t\t\t\n      JUMP [in]\t\t\t\n    tag 189\t\t\t\n      JUMPDEST \t\t\t\n      SWAP1 \t\t\t\n      POP \t\t\t\n      DUP2 \t\t\t\n      DUP2 \t\t\t\n      SUB \t\t\t\n      PUSH 40\t\t\t\n      DUP4 \t\t\t\n      ADD \t\t\t\n      MSTORE \t\t\t\n      PUSH [tag] 190\t\t\t\n      DUP2 \t\t\t\n      DUP7 \t\t\t\n      PUSH [tag] 132\t\t\t\n      JUMP [in]\t\t\t\n    tag 190\t\t\t\n      JUMPDEST \t\t\t\n      SWAP1 \t\t\t\n      POP \t\t\t\n      PUSH [tag] 191\t\t\t\n      PUSH 60\t\t\t\n      DUP4 \t\t\t\n      ADD \t\t\t\n      DUP6 \t\t\t\n      PUSH [tag] 135\t\t\t\n      JUMP [in]\t\t\t\n    tag 191\t\t\t\n      JUMPDEST \t\t\t\n      PUSH [tag] 192\t\t\t\n      PUSH 80\t\t\t\n      DUP4 \t\t\t\n      ADD \t\t\t\n      DUP5 \t\t\t\n      PUSH [tag] 136\t\t\t\n      JUMP [in]\t\t\t\n    tag 192\t\t\t\n      JUMPDEST \t\t\t\n      SWAP7 \t\t\t\n      SWAP6 \t\t\t\n      POP \t\t\t\n      POP \t\t\t\n      POP \t\t\t\n      POP \t\t\t\n      POP \t\t\t\n      POP \t\t\t\n      JUMP [out]\t\t\t\n    tag 137\t\t\t\n      JUMPDEST \t\t\t\n      PUSH 0\t\t\t\n      DUP1 \t\t\t\n      REVERT \t\t\t\n    tag 138\t\t\t\n      JUMPDEST \t\t\t\n      PUSH 0\t\t\t\n      DUP1 \t\t\t\n      REVERT \t\t\t\n    tag 139\t\t\t\n      JUMPDEST \t\t\t\n      PUSH 4E487B7100000000000000000000000000000000000000000000000000000000\t\t\t\n      PUSH 0\t\t\t\n      MSTORE \t\t\t\n      PUSH 41\t\t\t\n      PUSH 4\t\t\t\n      MSTORE \t\t\t\n      PUSH 24\t\t\t\n      PUSH 0\t\t\t\n      REVERT \t\t\t\n    tag 140\t\t\t\n      JUMPDEST \t\t\t\n      PUSH [tag] 197\t\t\t\n      DUP3 \t\t\t\n      PUSH [tag] 131\t\t\t\n      JUMP [in]\t\t\t\n    tag 197\t\t\t\n      JUMPDEST \t\t\t\n      DUP2 \t\t\t\n      ADD \t\t\t\n      DUP2 \t\t\t\n      DUP2 \t\t\t\n      LT \t\t\t\n      PUSH FFFFFFFFFFFFFFFF\t\t\t\n      DUP3 \t\t\t\n      GT \t\t\t\n      OR \t\t\t\n      ISZERO \t\t\t\n      PUSH [tag] 198\t\t\t\n      JUMPI \t\t\t\n      PUSH [tag] 199\t\t\t\n      PUSH [tag] 139\t\t\t\n      JUMP [in]\t\t\t\n    tag 199\t\t\t\n      JUMPDEST \t\t\t\n    tag 198\t\t\t\n      JUMPDEST \t\t\t\n      DUP1 \t\t\t\n      PUSH 40\t\t\t\n      MSTORE \t\t\t\n      POP \t\t\t\n      POP \t\t\t\n      POP \t\t\t\n      JUMP [out]\t\t\t\n    tag 141\t\t\t\n      JUMPDEST \t\t\t\n      PUSH 0\t\t\t\n      PUSH [tag] 201\t\t\t\n      PUSH [tag] 122\t\t\t\n      JUMP [in]\t\t\t\n    tag 201\t\t\t\n      JUMPDEST \t\t\t\n      SWAP1 \t\t\t\n      POP \t\t\t\n      PUSH [tag] 202\t\t\t\n      DUP3 \t\t\t\n      DUP3 \t\t\t\n      PUSH [tag] 140\t\t\t\n      JUMP [in]\t\t\t\n    tag 202\t\t\t\n      JUMPDEST \t\t\t\n      SWAP2 \t\t\t\n      SWAP1 \t\t\t\n      POP \t\t\t\n      JUMP [out]\t\t\t\n    tag 142\t\t\t\n      JUMPDEST \t\t\t\n      PUSH 0\t\t\t\n      PUSH FFFFFFFFFFFFFFFF\t\t\t\n      DUP3 \t\t\t\n      GT \t\t\t\n      ISZERO \t\t\t\n      PUSH [tag] 204\t\t\t\n      JUMPI \t\t\t\n      PUSH [tag] 205\t\t\t\n      PUSH [tag] 139\t\t\t\n      JUMP [in]\t\t\t\n    tag 205\t\t\t\n      JUMPDEST \t\t\t\n    tag 204\t\t\t\n      JUMPDEST \t\t\t\n      PUSH [tag] 206\t\t\t\n      DUP3 \t\t\t\n      PUSH [tag] 131\t\t\t\n      JUMP [in]\t\t\t\n    tag 206\t\t\t\n      JUMPDEST \t\t\t\n      SWAP1 \t\t\t\n      POP \t\t\t\n      PUSH 20\t\t\t\n      DUP2 \t\t\t\n      ADD \t\t\t\n      SWAP1 \t\t\t\n      POP \t\t\t\n      SWAP2 \t\t\t\n      SWAP1 \t\t\t\n      POP \t\t\t\n      JUMP [out]\t\t\t\n    tag 143\t\t\t\n      JUMPDEST \t\t\t\n      DUP3 \t\t\t\n      DUP2 \t\t\t\n      DUP4 \t\t\t\n      CALLDATACOPY \t\t\t\n      PUSH 0\t\t\t\n      DUP4 \t\t\t\n      DUP4 \t\t\t\n      ADD \t\t\t\n      MSTORE \t\t\t\n      POP \t\t\t\n      POP \t\t\t\n      POP \t\t\t\n      JUMP [out]\t\t\t\n    tag 144\t\t\t\n      JUMPDEST \t\t\t\n      PUSH 0\t\t\t\n      PUSH [tag] 209\t\t\t\n      PUSH [tag] 210\t\t\t\n      DUP5 \t\t\t\n      PUSH [tag] 142\t\t\t\n      JUMP [in]\t\t\t\n    tag 210\t\t\t\n      JUMPDEST \t\t\t\n      PUSH [tag] 141\t\t\t\n      JUMP [in]\t\t\t\n    tag 209\t\t\t\n      JUMPDEST \t\t\t\n      SWAP1 \t\t\t\n      POP \t\t\t\n      DUP3 \t\t\t\n      DUP2 \t\t\t\n      MSTORE \t\t\t\n      PUSH 20\t\t\t\n      DUP2 \t\t\t\n      ADD \t\t\t\n      DUP5 \t\t\t\n      DUP5 \t\t\t\n      DUP5 \t\t\t\n      ADD \t\t\t\n      GT \t\t\t\n      ISZERO \t\t\t\n      PUSH [tag] 211\t\t\t\n      JUMPI \t\t\t\n      PUSH [tag] 212\t\t\t\n      PUSH [tag] 138\t\t\t\n      JUMP [in]\t\t\t\n    tag 212\t\t\t\n      JUMPDEST \t\t\t\n    tag 211\t\t\t\n      JUMPDEST \t\t\t\n      PUSH [tag] 213\t\t\t\n      DUP5 \t\t\t\n      DUP3 \t\t\t\n      DUP6 \t\t\t\n      PUSH [tag] 143\t\t\t\n      JUMP [in]\t\t\t\n    tag 213\t\t\t\n      JUMPDEST \t\t\t\n      POP \t\t\t\n      SWAP4 \t\t\t\n      SWAP3 \t\t\t\n      POP \t\t\t\n      POP \t\t\t\n      POP \t\t\t\n      JUMP [out]\t\t\t\n    tag 145\t\t\t\n      JUMPDEST \t\t\t\n      PUSH 0\t\t\t\n      DUP3 \t\t\t\n      PUSH 1F\t\t\t\n      DUP4 \t\t\t\n      ADD \t\t\t\n      SLT \t\t\t\n      PUSH [tag] 215\t\t\t\n      JUMPI \t\t\t\n      PUSH [tag] 216\t\t\t\n      PUSH [tag] 137\t\t\t\n      JUMP [in]\t\t\t\n    tag 216\t\t\t\n      JUMPDEST \t\t\t\n    tag 215\t\t\t\n      JUMPDEST \t\t\t\n      DUP2 \t\t\t\n      CALLDATALOAD \t\t\t\n      PUSH [tag] 217\t\t\t\n      DUP5 \t\t\t\n      DUP3 \t\t\t\n      PUSH 20\t\t\t\n      DUP7 \t\t\t\n      ADD \t\t\t\n      PUSH [tag] 144\t\t\t\n      JUMP [in]\t\t\t\n    tag 217\t\t\t\n      JUMPDEST \t\t\t\n      SWAP2 \t\t\t\n      POP \t\t\t\n      POP \t\t\t\n      SWAP3 \t\t\t\n      SWAP2 \t\t\t\n      POP \t\t\t\n      POP \t\t\t\n      JUMP [out]\t\t\t\n    tag 21\t\t\t\n      JUMPDEST \t\t\t\n      PUSH 0\t\t\t\n      DUP1 \t\t\t\n      PUSH 0\t\t\t\n      PUSH 60\t\t\t\n      DUP5 \t\t\t\n      DUP7 \t\t\t\n      SUB \t\t\t\n      SLT \t\t\t\n      ISZERO \t\t\t\n      PUSH [tag] 219\t\t\t\n      JUMPI \t\t\t\n      PUSH [tag] 220\t\t\t\n      PUSH [tag] 123\t\t\t\n      JUMP [in]\t\t\t\n    tag 220\t\t\t\n      JUMPDEST \t\t\t\n    tag 219\t\t\t\n      JUMPDEST \t\t\t\n      PUSH 0\t\t\t\n      DUP5 \t\t\t\n      ADD \t\t\t\n      CALLDATALOAD \t\t\t\n      PUSH FFFFFFFFFFFFFFFF\t\t\t\n      DUP2 \t\t\t\n      GT \t\t\t\n      ISZERO \t\t\t\n      PUSH [tag] 221\t\t\t\n      JUMPI \t\t\t\n      PUSH [tag] 222\t\t\t\n      PUSH [tag] 124\t\t\t\n      JUMP [in]\t\t\t\n    tag 222\t\t\t\n      JUMPDEST \t\t\t\n    tag 221\t\t\t\n      JUMPDEST \t\t\t\n      PUSH [tag] 223\t\t\t\n      DUP7 \t\t\t\n      DUP3 \t\t\t\n      DUP8 \t\t\t\n      ADD \t\t\t\n      PUSH [tag] 145\t\t\t\n      JUMP [in]\t\t\t\n    tag 223\t\t\t\n      JUMPDEST \t\t\t\n      SWAP4 \t\t\t\n      POP \t\t\t\n      POP \t\t\t\n      PUSH 20\t\t\t\n      DUP5 \t\t\t\n      ADD \t\t\t\n      CALLDATALOAD \t\t\t\n      PUSH FFFFFFFFFFFFFFFF\t\t\t\n      DUP2 \t\t\t\n      GT \t\t\t\n      ISZERO \t\t\t\n      PUSH [tag] 224\t\t\t\n      JUMPI \t\t\t\n      PUSH [tag] 225\t\t\t\n      PUSH [tag] 124\t\t\t\n      JUMP [in]\t\t\t\n    tag 225\t\t\t\n      JUMPDEST \t\t\t\n    tag 224\t\t\t\n      JUMPDEST \t\t\t\n      PUSH [tag] 226\t\t\t\n      DUP7 \t\t\t\n      DUP3 \t\t\t\n      DUP8 \t\t\t\n      ADD \t\t\t\n      PUSH [tag] 145\t\t\t\n      JUMP [in]\t\t\t\n    tag 226\t\t\t\n      JUMPDEST \t\t\t\n      SWAP3 \t\t\t\n      POP \t\t\t\n      POP \t\t\t\n      PUSH 40\t\t\t\n      DUP5 \t\t\t\n      ADD \t\t\t\n      CALLDATALOAD \t\t\t\n      PUSH FFFFFFFFFFFFFFFF\t\t\t\n      DUP2 \t\t\t\n      GT \t\t\t\n      ISZERO \t\t\t\n      PUSH [tag] 227\t\t\t\n      JUMPI \t\t\t\n      PUSH [tag] 228\t\t\t\n      PUSH [tag] 124\t\t\t\n      JUMP [in]\t\t\t\n    tag 228\t\t\t\n      JUMPDEST \t\t\t\n    tag 227\t\t\t\n      JUMPDEST \t\t\t\n      PUSH [tag] 229\t\t\t\n      DUP7 \t\t\t\n      DUP3 \t\t\t\n      DUP8 \t\t\t\n      ADD \t\t\t\n      PUSH [tag] 145\t\t\t\n      JUMP [in]\t\t\t\n    tag 229\t\t\t\n      JUMPDEST \t\t\t\n      SWAP2 \t\t\t\n      POP \t\t\t\n      POP \t\t\t\n      SWAP3 \t\t\t\n      POP \t\t\t\n      SWAP3 \t\t\t\n      POP \t\t\t\n      SWAP3 \t\t\t\n      JUMP [out]\t\t\t\n    tag 26\t\t\t\n      JUMPDEST \t\t\t\n      PUSH 0\t\t\t\n      PUSH 20\t\t\t\n      DUP3 \t\t\t\n      ADD \t\t\t\n      SWAP1 \t\t\t\n      POP \t\t\t\n      PUSH [tag] 231\t\t\t\n      PUSH 0\t\t\t\n      DUP4 \t\t\t\n      ADD \t\t\t\n      DUP5 \t\t\t\n      PUSH [tag] 135\t\t\t\n      JUMP [in]\t\t\t\n    tag 231\t\t\t\n      JUMPDEST \t\t\t\n      SWAP3 \t\t\t\n      SWAP2 \t\t\t\n      POP \t\t\t\n      POP \t\t\t\n      JUMP [out]\t\t\t\n    tag 30\t\t\t\n      JUMPDEST \t\t\t\n      PUSH 0\t\t\t\n      PUSH 20\t\t\t\n      DUP3 \t\t\t\n      ADD \t\t\t\n      SWAP1 \t\t\t\n      POP \t\t\t\n      PUSH [tag] 233\t\t\t\n      PUSH 0\t\t\t\n      DUP4 \t\t\t\n      ADD \t\t\t\n      DUP5 \t\t\t\n      PUSH [tag] 136\t\t\t\n      JUMP [in]\t\t\t\n    tag 233\t\t\t\n      JUMPDEST \t\t\t\n      SWAP3 \t\t\t\n      SWAP2 \t\t\t\n      POP \t\t\t\n      POP \t\t\t\n      JUMP [out]\t\t\t\n    tag 33\t\t\t\n      JUMPDEST \t\t\t\n      PUSH 0\t\t\t\n      DUP1 \t\t\t\n      PUSH 0\t\t\t\n      DUP1 \t\t\t\n      PUSH 80\t\t\t\n      DUP6 \t\t\t\n      DUP8 \t\t\t\n      SUB \t\t\t\n      SLT \t\t\t\n      ISZERO \t\t\t\n      PUSH [tag] 235\t\t\t\n      JUMPI \t\t\t\n      PUSH [tag] 236\t\t\t\n      PUSH [tag] 123\t\t\t\n      JUMP [in]\t\t\t\n    tag 236\t\t\t\n      JUMPDEST \t\t\t\n    tag 235\t\t\t\n      JUMPDEST \t\t\t\n      PUSH 0\t\t\t\n      PUSH [tag] 237\t\t\t\n      DUP8 \t\t\t\n      DUP3 \t\t\t\n      DUP9 \t\t\t\n      ADD \t\t\t\n      PUSH [tag] 127\t\t\t\n      JUMP [in]\t\t\t\n    tag 237\t\t\t\n      JUMPDEST \t\t\t\n      SWAP5 \t\t\t\n      POP \t\t\t\n      POP \t\t\t\n      PUSH 20\t\t\t\n      DUP6 \t\t\t\n      ADD \t\t\t\n      CALLDATALOAD \t\t\t\n      PUSH FFFFFFFFFFFFFFFF\t\t\t\n      DUP2 \t\t\t\n      GT \t\t\t\n      ISZERO \t\t\t\n      PUSH [tag] 238\t\t\t\n      JUMPI \t\t\t\n      PUSH [tag] 239\t\t\t\n      PUSH [tag] 124\t\t\t\n      JUMP [in]\t\t\t\n    tag 239\t\t\t\n      JUMPDEST \t\t\t\n    tag 238\t\t\t\n      JUMPDEST \t\t\t\n      PUSH [tag] 240\t\t\t\n      DUP8 \t\t\t\n      DUP3 \t\t\t\n      DUP9 \t\t\t\n      ADD \t\t\t\n      PUSH [tag] 145\t\t\t\n      JUMP [in]\t\t\t\n    tag 240\t\t\t\n      JUMPDEST \t\t\t\n      SWAP4 \t\t\t\n      POP \t\t\t\n      POP \t\t\t\n      PUSH 40\t\t\t\n      DUP6 \t\t\t\n      ADD \t\t\t\n      CALLDATALOAD \t\t\t\n      PUSH FFFFFFFFFFFFFFFF\t\t\t\n      DUP2 \t\t\t\n      GT \t\t\t\n      ISZERO \t\t\t\n      PUSH [tag] 241\t\t\t\n      JUMPI \t\t\t\n      PUSH [tag] 242\t\t\t\n      PUSH [tag] 124\t\t\t\n      JUMP [in]\t\t\t\n    tag 242\t\t\t\n      JUMPDEST \t\t\t\n    tag 241\t\t\t\n      JUMPDEST \t\t\t\n      PUSH [tag] 243\t\t\t\n      DUP8 \t\t\t\n      DUP3 \t\t\t\n      DUP9 \t\t\t\n      ADD \t\t\t\n      PUSH [tag] 145\t\t\t\n      JUMP [in]\t\t\t\n    tag 243\t\t\t\n      JUMPDEST \t\t\t\n      SWAP3 \t\t\t\n      POP \t\t\t\n      POP \t\t\t\n      PUSH 60\t\t\t\n      DUP6 \t\t\t\n      ADD \t\t\t\n      CALLDATALOAD \t\t\t\n      PUSH FFFFFFFFFFFFFFFF\t\t\t\n      DUP2 \t\t\t\n      GT \t\t\t\n      ISZERO \t\t\t\n      PUSH [tag] 244\t\t\t\n      JUMPI \t\t\t\n      PUSH [tag] 245\t\t\t\n      PUSH [tag] 124\t\t\t\n      JUMP [in]\t\t\t\n    tag 245\t\t\t\n      JUMPDEST \t\t\t\n    tag 244\t\t\t\n      JUMPDEST \t\t\t\n      PUSH [tag] 246\t\t\t\n      DUP8 \t\t\t\n      DUP3 \t\t\t\n      DUP9 \t\t\t\n      ADD \t\t\t\n      PUSH [tag] 145\t\t\t\n      JUMP [in]\t\t\t\n    tag 246\t\t\t\n      JUMPDEST \t\t\t\n      SWAP2 \t\t\t\n      POP \t\t\t\n      POP \t\t\t\n      SWAP3 \t\t\t\n      SWAP6 \t\t\t\n      SWAP2 \t\t\t\n      SWAP5 \t\t\t\n      POP \t\t\t\n      SWAP3 \t\t\t\n      POP \t\t\t\n      JUMP [out]\t\t\t\n    tag 146\t\t\t\n      JUMPDEST \t\t\t\n      PUSH 0\t\t\t\n      DUP2 \t\t\t\n      ISZERO \t\t\t\n      ISZERO \t\t\t\n      SWAP1 \t\t\t\n      POP \t\t\t\n      SWAP2 \t\t\t\n      SWAP1 \t\t\t\n      POP \t\t\t\n      JUMP [out]\t\t\t\n    tag 147\t\t\t\n      JUMPDEST \t\t\t\n      PUSH [tag] 249\t\t\t\n      DUP2 \t\t\t\n      PUSH [tag] 146\t\t\t\n      JUMP [in]\t\t\t\n    tag 249\t\t\t\n      JUMPDEST \t\t\t\n      DUP3 \t\t\t\n      MSTORE \t\t\t\n      POP \t\t\t\n      POP \t\t\t\n      JUMP [out]\t\t\t\n    tag 36\t\t\t\n      JUMPDEST \t\t\t\n      PUSH 0\t\t\t\n      PUSH 20\t\t\t\n      DUP3 \t\t\t\n      ADD \t\t\t\n      SWAP1 \t\t\t\n      POP \t\t\t\n      PUSH [tag] 251\t\t\t\n      PUSH 0\t\t\t\n      DUP4 \t\t\t\n      ADD \t\t\t\n      DUP5 \t\t\t\n      PUSH [tag] 147\t\t\t\n      JUMP [in]\t\t\t\n    tag 251\t\t\t\n      JUMPDEST \t\t\t\n      SWAP3 \t\t\t\n      SWAP2 \t\t\t\n      POP \t\t\t\n      POP \t\t\t\n      JUMP [out]\t\t\t\n    tag 148\t\t\t\n      JUMPDEST \t\t\t\n      PUSH 496E646578206F7574206F6620626F756E647300000000000000000000000000\t\t\t\n      PUSH 0\t\t\t\n      DUP3 \t\t\t\n      ADD \t\t\t\n      MSTORE \t\t\t\n      POP \t\t\t\n      JUMP [out]\t\t\t\n    tag 149\t\t\t\n      JUMPDEST \t\t\t\n      PUSH 0\t\t\t\n      PUSH [tag] 254\t\t\t\n      PUSH 13\t\t\t\n      DUP4 \t\t\t\n      PUSH [tag] 129\t\t\t\n      JUMP [in]\t\t\t\n    tag 254\t\t\t\n      JUMPDEST \t\t\t\n      SWAP2 \t\t\t\n      POP \t\t\t\n      PUSH [tag] 255\t\t\t\n      DUP3 \t\t\t\n      PUSH [tag] 148\t\t\t\n      JUMP [in]\t\t\t\n    tag 255\t\t\t\n      JUMPDEST \t\t\t\n      PUSH 20\t\t\t\n      DUP3 \t\t\t\n      ADD \t\t\t\n      SWAP1 \t\t\t\n      POP \t\t\t\n      SWAP2 \t\t\t\n      SWAP1 \t\t\t\n      POP \t\t\t\n      JUMP [out]\t\t\t\n    tag 40\t\t\t\n      JUMPDEST \t\t\t\n      PUSH 0\t\t\t\n      PUSH 20\t\t\t\n      DUP3 \t\t\t\n      ADD \t\t\t\n      SWAP1 \t\t\t\n      POP \t\t\t\n      DUP2 \t\t\t\n      DUP2 \t\t\t\n      SUB \t\t\t\n      PUSH 0\t\t\t\n      DUP4 \t\t\t\n      ADD \t\t\t\n      MSTORE \t\t\t\n      PUSH [tag] 257\t\t\t\n      DUP2 \t\t\t\n      PUSH [tag] 149\t\t\t\n      JUMP [in]\t\t\t\n    tag 257\t\t\t\n      JUMPDEST \t\t\t\n      SWAP1 \t\t\t\n      POP \t\t\t\n      SWAP2 \t\t\t\n      SWAP1 \t\t\t\n      POP \t\t\t\n      JUMP [out]\t\t\t\n    tag 43\t\t\t\n      JUMPDEST \t\t\t\n      PUSH 4E487B7100000000000000000000000000000000000000000000000000000000\t\t\t\n      PUSH 0\t\t\t\n      MSTORE \t\t\t\n      PUSH 32\t\t\t\n      PUSH 4\t\t\t\n      MSTORE \t\t\t\n      PUSH 24\t\t\t\n      PUSH 0\t\t\t\n      REVERT \t\t\t\n    tag 150\t\t\t\n      JUMPDEST \t\t\t\n      PUSH 4E487B7100000000000000000000000000000000000000000000000000000000\t\t\t\n      PUSH 0\t\t\t\n      MSTORE \t\t\t\n      PUSH 22\t\t\t\n      PUSH 4\t\t\t\n      MSTORE \t\t\t\n      PUSH 24\t\t\t\n      PUSH 0\t\t\t\n      REVERT \t\t\t\n    tag 46\t\t\t\n      JUMPDEST \t\t\t\n      PUSH 0\t\t\t\n      PUSH 2\t\t\t\n      DUP3 \t\t\t\n      DIV \t\t\t\n      SWAP1 \t\t\t\n      POP \t\t\t\n      PUSH 1\t\t\t\n      DUP3 \t\t\t\n      AND \t\t\t\n      DUP1 \t\t\t\n      PUSH [tag] 261\t\t\t\n      JUMPI \t\t\t\n      PUSH 7F\t\t\t\n      DUP3 \t\t\t\n      AND \t\t\t\n      SWAP2 \t\t\t\n      POP \t\t\t\n    tag 261\t\t\t\n      JUMPDEST \t\t\t\n      PUSH 20\t\t\t\n      DUP3 \t\t\t\n      LT \t\t\t\n      DUP2 \t\t\t\n      EQ \t\t\t\n      ISZERO \t\t\t\n      PUSH [tag] 262\t\t\t\n      JUMPI \t\t\t\n      PUSH [tag] 263\t\t\t\n      PUSH [tag] 150\t\t\t\n      JUMP [in]\t\t\t\n    tag 263\t\t\t\n      JUMPDEST \t\t\t\n    tag 262\t\t\t\n      JUMPDEST \t\t\t\n      POP \t\t\t\n      SWAP2 \t\t\t\n      SWAP1 \t\t\t\n      POP \t\t\t\n      JUMP [out]\t\t\t\n    tag 151\t\t\t\n      JUMPDEST \t\t\t\n      PUSH 4F6E6C79206F776E65722063616E2063616C6C20746869732066756E6374696F\t\t\t\n      PUSH 0\t\t\t\n      DUP3 \t\t\t\n      ADD \t\t\t\n      MSTORE \t\t\t\n      PUSH 6E00000000000000000000000000000000000000000000000000000000000000\t\t\t\n      PUSH 20\t\t\t\n      DUP3 \t\t\t\n      ADD \t\t\t\n      MSTORE \t\t\t\n      POP \t\t\t\n      JUMP [out]\t\t\t\n    tag 152\t\t\t\n      JUMPDEST \t\t\t\n      PUSH 0\t\t\t\n      PUSH [tag] 266\t\t\t\n      PUSH 21\t\t\t\n      DUP4 \t\t\t\n      PUSH [tag] 129\t\t\t\n      JUMP [in]\t\t\t\n    tag 266\t\t\t\n      JUMPDEST \t\t\t\n      SWAP2 \t\t\t\n      POP \t\t\t\n      PUSH [tag] 267\t\t\t\n      DUP3 \t\t\t\n      PUSH [tag] 151\t\t\t\n      JUMP [in]\t\t\t\n    tag 267\t\t\t\n      JUMPDEST \t\t\t\n      PUSH 40\t\t\t\n      DUP3 \t\t\t\n      ADD \t\t\t\n      SWAP1 \t\t\t\n      POP \t\t\t\n      SWAP2 \t\t\t\n      SWAP1 \t\t\t\n      POP \t\t\t\n      JUMP [out]\t\t\t\n    tag 81\t\t\t\n      JUMPDEST \t\t\t\n      PUSH 0\t\t\t\n      PUSH 20\t\t\t\n      DUP3 \t\t\t\n      ADD \t\t\t\n      SWAP1 \t\t\t\n      POP \t\t\t\n      DUP2 \t\t\t\n      DUP2 \t\t\t\n      SUB \t\t\t\n      PUSH 0\t\t\t\n      DUP4 \t\t\t\n      ADD \t\t\t\n      MSTORE \t\t\t\n      PUSH [tag] 269\t\t\t\n      DUP2 \t\t\t\n      PUSH [tag] 152\t\t\t\n      JUMP [in]\t\t\t\n    tag 269\t\t\t\n      JUMPDEST \t\t\t\n      SWAP1 \t\t\t\n      POP \t\t\t\n      SWAP2 \t\t\t\n      SWAP1 \t\t\t\n      POP \t\t\t\n      JUMP [out]\t\t\t\n    .data\n"
}